:020000040001F9
:100000003DB8F3960000000000046B0050F90100B9
:1000100000000000000000000000000000000000E0
:10002000FFFFFFFFFFFFFFFFFFFFFFFFFFFFFFFFE0
:10003000FFFFFFFFFFFFFFFFFFFFFFFFFFFFFFFFD0
:10004000FFFFFFFFFFFFFFFFFFFFFFFFFFFFFFFFC0
:10040000F80B0020394A0100DD4A0100795702004B
:1004100099570200B9570200F9570200D957020054
:100420000000000000000000000000007D720100DC
:10043000DD4A01000000000047840100DD4A0100A0
:10044000DD4A0100DD4A010000000000DD4A010034
:1004500000000000DD4A0100000000000000000074
:10046000DD4A0100DD4A0100DD4A0100DD4A0100EC
:10047000DD4A0100DD4A0100DD4A0100DD4A0100DC
:10048000DD4A0100DD4A010000000000000000001C
:10049000DD4A0100DD4A010000000000000000000C
:1004A000DD4A0100DD4A0100DD4A0100DD4A0100AC
:1004B000DD4A0100DD4A0100DD4A0100DD4A01009C
:1004C000DD4A0100DD4A0100DD4A0100DD4A01008C
:1004D000DD4A010000000000DD4A010000000000CC
:1004E000DD4A010000000000DD4A0100DD4A010094
:1004F00000000000DD4A010000000000DD4A0100AC
:10050000000000000000000000000000DD4A0100C3
:10051000DD4A010000000000DD4A0100DD4A010063
:1005200000000000DD4A01000000000000000000A3
:1005300000000000000000000000000000000000BB
:1005400000000000000000000000000000000000AB
:10055000DD4A010000015F5F02000000FE0B0000A9
:100560000D73010000040000000000000000000006
:100570000000000000000000000000000100FFC3B8
:10058000000000C4A0A800200000000001015F5F7F
:10059000030100001F010000F50701000018000022
:1005A0000000000001000000010000000000000049
:1005B000000000000000000000000000F82E0020F5
:1005C000000000007000000048D902008000000018
:1005D000000F000001000000E10801000100000020
:1005E00001015F5F050100001F01000043270100BA
:1005F00000070000000000000100000001000000F2
:1006000000000000000000000000000000000000EA
:10061000F8460020000000008000000053D90200CE
:1006200020000000030F000001000000D90B0100B2
:100630000100000001015F5F000100001F000000D9
:10064000C546010000070000000000000300000094
:100650000100000000000000000000000000000099
:1006600000000000101600200000000080000000C4
:1006700070000000400000006BD902006000000024
:100680000107000001000000A13C01000100000082
:1006900001015F5F010100001F010000812A0100CC
:1006A0002007000000000000000000000100000022
:1006B000000000000000000000000000000000003A
:1006C000F84D00200000000089D9020070000000F1
:1006D000020F0000010000002D13010001000000C6
:1006E00001015F5F040100001F0100001F3B0100CA
:1006F00000050000000000000000000001000000F4
:1007000000000000000000000000000000000000E9
:100710001855002000000000AED902004000000083
:100720000507000001000000D138010001000000B1
:10073000FFFFFFFFFFFFFFFFFFFFFFFFFFFFFFFFC9
:100740002DE9F04100F1A0080446C0E926120D464B
:100750004822002140461F46069E15F0B6F80023A9
:10076000C4E937330223ED0F2046C4F8D85084F88B
:10077000C830C4F8C07010A3D3E90023C4E93423FF
:1007800096E806001CF0B4F82146404602F03BF81B
:10079000054640B103280BD019280CBF01250325BD
:1007A0002846BDE8F081052120461CF054F9F7E702
:1007B0000425F5E7AFF300805D81FF7F00000000B6
:1007C00038B500250648294600F58054D4F80024A1
:1007D000C4F8045415F079F8C4F8005438BD00BFCB
:1007E000185A0020024BD3F80434036000207047ED
:1007F000186A002008B500F037F998B90A4815F0D2
:10080000EEF806F06FFB58B9084815F0E8F800F06C
:10081000C5F900F0D1F928B9BDE808400CF050B98D
:100820006FF0830008BD00BF9A3B0100C43B01008C
:1008300037B511460022CDE9002242680346382A26
:10084000046845D1228D150A032D16D0012D36D00E
:1008500021482468D0F80404AA1ECDE90040072AE4
:1008600030D8DFE802F0040A0E13181D22276A466A
:10087000184601F07DFE03B030BD184601F098FA2D
:10088000F9E76A46184601F054FBF4E76A46184651
:1008900001F0BAF9EFE76A46184601F006FCEAE70C
:1008A0006A46184601F009FDE5E76A46184601F078
:1008B00059FDE0E76A46184601F096FDDBE701F0D6
:1008C00012FFD8E7054815F08AF86FF08500D2E7E7
:1008D0006FF08000CFE700BF186A0020033C0100E2
:1008E0002DE9F04F05680446A1B0002D40F0B58019
:1008F0002022294602A814F0E8FF12AF2022294640
:100900000AA814F0E2FF38222946384614F0DDFF29
:10091000E26904F11C039846B2B10426E26A04F1CC
:100920002C03EAB10425EEB96FF08306304621B0FE
:10093000BDE8F08F002EF1D053F8041D3246013E81
:100940000029F7D01646E9E70326F5E7002DEAD09F
:1009500053F8041D2A46013D0029F7D01546E2E769
:100960000325F5E738233A460021606808F0D6FCF5
:100970003828D9D10121DFF8E8A0CDE9027004F1CF
:10098000100902AF0AF5805B8E4221D10AAF3846CA
:100990000021344A08EB8509D2F80034A2F5805AC8
:1009A000C84533D109B1C2F80034A3683146C2F852
:1009B000043402A82B460AAAFFF73AFF4FF00008BA
:1009C0000646454507F108073ED1FFF7F9FEADE7BA
:1009D00059F8043F1A1D21D8DBF800C4D81C20F0B8
:1009E0000300CCF5A052904218D860440CEB0A02E8
:1009F000CBF800046068CDE9001208F08FFC019A82
:100A00000099F860013147F8082FBDE758F804EF66
:100A10001EF1040F07D909B1C2F80034FFF7D0FE68
:100A20006FF08C0682E70EF1030C2CF0030CC3F57B
:100A3000A05BDC4500F10800EDD803EB0A0140E9BA
:100A4000021E63440121ABE7414657E90223606877
:100A500008F06EFC08F10108B3E76FF0850665E762
:100A6000185A0020186A002008B54FF48C52002153
:100A7000024814F02AFF002008BD00BF781D0020A6
:100A80000023F7B50C6807460E461546019314BBC4
:100A900022B3146001A8FFF7A5FEA8B94FF40C7C9F
:100AA000104A0CFB04F3D158A646013471B94FF03B
:100AB000010E02EB030C42F803E0019910331344DA
:100AC000CCE9011734602B6003B0F0BD082CE8D1ED
:100AD0006FF08400F8E76FF08800F5E76FF08600AC
:100AE000F2E700BF781D00200023F7B505680193E9
:100AF000013D072D036004D96FF08604204603B042
:100B0000F0BD01A8FFF76EFE04460028F6D14FF4B1
:100B10000C735D430A4E73597719012BECD17A6837
:100B2000019B9A42E8D105F110004FF4087221466A
:100B3000304414F0CAFEC7E901447451DEE700BF37
:100B4000781D0020002373B54C1E072C0646154661
:100B5000019303D96FF0880002B070BDC2B101A843
:100B6000FFF740FE0028F7D14FF40C7202FB04F1AE
:100B7000094B5C585A18012CECD19468B442E9D165
:100B80005468019A9442E5D1103119442960E3E791
:100B90006FF08600E0E700BF781D002010B5044C20
:100BA0000F222046034914F06BFE204610BD00BF03
:100BB00018A30020283C010008B54FF44051044818
:100BC00009F020F9034809F065F9002008BD00BFCD
:100BD00018730020DF59020040F2E93270B5036853
:100BE0000546934294B008D040F2EA32934231D0A5
:100BF0006FF08504204614B070BD036A0469B3F534
:100C0000147F04F1FF321E4628BF4FF414763F2AAA
:100C100023D813B382681E4B00211A604068234614
:100C200004AA08F07BFB844211D103AB2146009358
:100C3000184A334604A800F083F904460028D9D1A5
:100C4000039B144A2146686808F072FBD2E76FF0F4
:100C50008304CFE70369042B02D06FF08604C9E751
:100C6000036A042BF9D18168094A406811600021A8
:100C700003AA08F053FB04280646EED1039804A902
:100C800000F082F904460028B4D1334604AAD9E71B
:100C9000206E00202AA300200023132270B588B004
:100CA00003AE054631466846CDE90023029305F0C0
:100CB000E3FF044650B9009B2846054901AA019666
:100CC000029301F08CFD204608B070BD0324FAE7C2
:100CD00003DBFEFF202370B58CB004AE0546314621
:100CE00001A8019305F076FF044650B9019B284600
:100CF000054902AA0296039301F071FD20460CB04B
:100D000070BD0524FAE700BFFEDAFEFF202370B5B0
:100D10008CB004AE0546314601A8019305F076FF7C
:100D2000044650B9019B2846054902AA029603933E
:100D300001F055FD20460CB070BD0524FAE700BF58
:100D400008DBFEFF37B50B4B0546019301F023FD91
:100D50006A4601A900F03EF9044638B9009B2BB958
:100D6000012200232846044901F016FD204603B065
:100D700030BD00BF02DBFEFF01DBFEFF38B50446DD
:100D8000002505F0C3F92B4602460349204601F031
:100D900003FD284638BD00BF06DBFEFF37B505461C
:100DA00001A800F0BBFA044628B9019A2846034975
:100DB000D31701F0F1FC204603B030BD07DBFEFF86
:100DC000202370B58CB004AE0546314601A80193CE
:100DD00005F03DFF044650B9019B2846054902AA8B
:100DE0000296039301F0E7FC20460CB070BD03248B
:100DF000FAE700BF05DBFEFF37B50546684600F0A1
:100E000055F9044620B96A462846034901F0D3FC47
:100E1000204603B030BD00BFFFDAFEFF002370B5EF
:100E20008AB002AE054631462020CDE9003305F0F8
:100E300009FF044650B920236A4628460449009613
:100E4000019301F0B8FC20460AB070BD0324FAE714
:100E500004DBFEFFF0B5BDB004460F462E4802A9E4
:100E6000164608F065FB054690BBBDF8083003F454
:100E70004F42B2F5824F10D1DBB2122B28D1BDF810
:100E80000A30B3F5C07F18D0B3F5007F24D0B3F596
:100E9000807F1DD16FF0060311E0B3F5885F17D195
:100EA000BDF80A30B3F5C07F19D0B3F5007F18D074
:100EB000B3F5807F0CD1052301E06FF022030022FF
:100EC0000097114602A8FFF73BFC60B1012821D032
:100ED000052420463DB0F0BD6FF02303EFE7062365
:100EE000EDE70723EBE722460C4902A801F063FC7B
:100EF0000B4F57F8043B02A8984704460028E8D156
:100F00000135092DF5D1314602A801F01CFC00285D
:100F1000DCD1DEE70224DCE75D81FF7F00DBFEFF42
:100F2000443B010008B500F0B9F8042896BF034B14
:100F30006FF0830033F9100008BD00BF903B010043
:100F40007FB5CDE9022321F01002202ACDE900016E
:100F500001D0402914D19BB1684604AA02A9FFF729
:100F600079FF40B9089B059A1A60064B33F91000C7
:100F700007B05DF804FB0428F7D96FF08300F7E7AA
:100F80000420F2E7903B0100002310B586B0CDE9C4
:100F9000003002936FF00043039320F01003202BE6
:100FA0000C4601D0402811D1684604AA02A9FFF7D7
:100FB00051FF30B9059B2360054B33F9100006B093
:100FC00010BD0428F8D96FF08300F8E70420F3E798
:100FD000903B01002DE9F04F88461546044685B048
:100FE000002855D0002A53D00026DFF8A8A01660AC
:100FF0000DF1080B42F21603BAF800209A4203D012
:10100000032005B0BDE8F08FBAF80230224F5344F8
:10101000BB420AD80136072EECD12B681BB1042144
:1010200020461BF035FD0020EBE7042239465846E8
:10103000019314F025FCBDF80820BDF80A90C2F316
:1010400085118E42019B1FD102F03F023F2AE1D160
:101050002B680133012B2B600CD1B8F1000F05D0A8
:10106000D8F800202046D3171BF0B4FC04212046FA
:101070001BF0F1FC0437CDE9027909219BE80C0053
:1010800020461BF0BCFCC5E709F104094F44BFE74B
:101090000420B6E7246E0020286E00204FF4007272
:1010A0000120014901F0E5BC246E002070B51F4D00
:1010B00004462B6888B0002B2FD11D4E0193336856
:1010C0007BB91C4802A908F033FA10B1032008B01C
:1010D00070BD334641221849164808F04BFA0028E3
:1010E000F4D1164901A808F06BFA0028EED1326855
:1010F000114901A808F088FA0028E7D1104E2022F3
:1011000031460A4B01A808F0A1FA0028DED10123DC
:1011100006F8013C2B6801332B602CB1094B0020F1
:1011200023602B686360D2E70520D0E72870002099
:101130002C7000205D81FF7F9BA50020090000022C
:101140007BA500207AA50020F0B5BDB01E460AABF5
:101150006D460293302385E80600384C1A46029902
:10116000074616A803931BF0C3FB042116A81BF027
:1011700072FC20461BF076FECDE9084008AC032146
:1011800094E80C0016A81BF03AFC95E80300002533
:1011900084E80300022194E80C0016A81BF02FFC41
:1011A000CDE90855022194E80C0016A81BF027FC95
:1011B000002E34D1CDE90866022194E80C0016A86F
:1011C0001BF01DFC0125042116A81BF061FC04A9DD
:1011D00016A81BF08EFC70BB07370CBF6FF00F0119
:1011E000002106A800F07CF8B8B9059B5B1B34BF52
:1011F00003460498CDE9080306A894E8060001F028
:101200000FFC42AB93E8060006A801F009FCDDE9FB
:101210004523449906A801F010FC3DB0F0BD42AB57
:1012200093E8030084E803000B2194E80C0016A85F
:101230001BF0E5FBC7E71520EFE700BF373C0100D7
:1012400082B030B587B00AA9073081E80C00129C43
:1012500016D105AB109D0293119B0A49CDE90053AD
:10126000DDE90E230C9808F0BFFA01F0BCFB10B9C1
:10127000059B2560636007B0BDE8304002B0704751
:101280000120F8E70906000682B010B586B008A96B
:1012900081E80C00114A52F8043B2BB9012006B03A
:1012A000BDE8104002B070479842F4D10A9C00217A
:1012B0001822684614F009FB6946204608F038F900
:1012C00001F091FB40B9BDF80220D308520718BFC6
:1012D00001330C9A5B0013600020E0E7683B0100DB
:1012E00000234FF6FF7210B503600B4B044611F15B
:1012F000100F14BF1146194608F062F9606038B14A
:1013000010F1860F05D010F18A0F14BF04200520BC
:1013100010BD0320FCE700BF09000002024B1B6860
:1013200003600020704700BF206E00206FF47A72C7
:10133000F0B50368044613448DB0032B7CD8DFE876
:1013400003F002284C6B0369082B02D06FF0800574
:101350005FE08569042DF9D10021406808AA07F0F3
:10136000DDFF0828F2D12B460221606806AA07F0AB
:10137000D5FF0428EAD16168314A63691160069A91
:10138000CDE90032DDE90823A06800F021F9054627
:101390003FE00369082BD9D14569042DD6D100213E
:1013A000406808AA07F0BAFF0828CFD12B460121D0
:1013B000606806AA07F0B2FF0428C7D16168204A16
:1013C000236A116005AACDE90132069B0093A0684B
:1013D000DDE9082300F058F9D9E70369082BB5D1F6
:1013E000076A0C2FB2D10021406806AA07F096FFC9
:1013F0000828ABD1DDE9062308AE0096A06800F00E
:1014000095F9054628B901463B463246606807F023
:101410008FFF28460DB0F0BD0369082B96D100213F
:10142000406808AA07F07AFF08288FD1DDE9082371
:10143000A06800F08DF9AAE76FF08505E9E700BF25
:1014400030700020024603480B460068012107F077
:1014500065BF00BF30700020024603480B4600689D
:10146000002107F065BF00BF307000201FB550EAB3
:10147000010314461BD0CDE90120042203910E483C
:101480000DEB020114F0FCF908220C480DEB0201EF
:1014900014F0F6F90A4B0B480B4AB4F5807F08BFED
:1014A0001846054904B0BDE8104001F0CEBB6FF00E
:1014B000860004B010BD00BFDCA50020E0A5002020
:1014C000347000204C7000206472002030B5384B1E
:1014D00085B09D6AA8470369042B03D06FF0800094
:1014E00005B030BDA847334C8368A360A847037D8F
:1014F00001A8237605F060FB0028EFD1019BA268CC
:1015000063609DF80C3021465343029A2A48B2FB8F
:10151000F3F22282294AE36001F04AFB0028DFD17E
:10152000254801F076FB002834D1A8470369042B35
:10153000D4D1A847224C8368A360A847037D01A8A3
:10154000237605F02BFB0028C8D1019BA2686360BD
:101550009DF80C3021465343029A1A48B2FBF3F22D
:101560002282164AE36001F023FB0028B8D1154817
:1015700001F04FFB0028B3D0134814F030FA1148A3
:1015800001F061FB0028ABD10E4805B0BDE830404A
:1015900001F03FBB0D4814F022FA074801F053FB5D
:1015A00000289DD1044801F034FB0028BDD097E706
:1015B000988B01005C1D00204C700020703B0100E6
:1015C000401D002034700020683C0100423C0100B6
:1015D0002DE9F3471946DDE90A5652EA01030446AC
:1015E000104641D0072E42D82246FFF73FFF30B9C0
:1015F000204B9B68DB0705D56FF0840031E010F1CC
:101600008C0F2ED1DFF86CA01B4F1C4B46F44036DC
:10161000CAF80860B4F5807F18BF1F460026DFF8BF
:101620006080DFF86090CAF80450B5F5007F2C4662
:1016300028BF4FF4007412482146FFF703FF2346EA
:10164000524649463846CDE9006801F012FB40B9E0
:10165000DAF808302D1B23F44033CAF8083026444A
:10166000E3D102B0BDE8F0876FF08600F9E76FF0D4
:101670008500F6E764720020347000204C70002072
:1016800064700020DCA500202DE9F74F194652EACE
:10169000010380460C9E1046DDF8389039D0424652
:1016A000FFF7E4FE054638BB1B4B1C68B44230D341
:1016B0000D9BA41B9C4228BF1C46184F184BDFF8FB
:1016C00064A0B8F5807F18BF1F46DFF85C80C9F8BA
:1016D0000040B4F5007FA34628BF4FF4007B33469B
:1016E0005A4651463846CDF8008001F0CBFB0546FE
:1016F00030B10023C9F80030284603B0BDE8F08FB0
:1017000059464046FFF7A8FEB4EB0B045E44E0D117
:10171000F2E76FF08605EFE7647200203470002076
:101720004C700020DCA500206470002038B5054610
:10173000194610462A46049CFFF798FE28B9034B29
:101740001A689B68C4E90022A36038BD6472002057
:1017500010B50446194610462246FFF787FE80B9A9
:10176000084B9B68DB070AD40748084B0849B4F5C7
:10177000807F08BF1846BDE8104001F073BB6FF0D2
:10178000840010BD647200204C7000203470002072
:10179000DCA50020F8B51D46036804465B680E46CC
:1017A000174698470B4BC0F3410013F8202063689D
:1017B0000699E0681D442368B1FBF2F200FB065075
:1017C00039469B6998470028B4BF6FF0910000200C
:1017D000F8BD00BF843B01002DE9F3470A9C074692
:1017E0009146002C57D0C26840681E183B6802FB27
:1017F00001665B689847294BC0F3410013F82080CD
:10180000B6FBF8FA08FB0AFA564524D03B680122D9
:1018100050465B6901A99847002804DA6FF09100EF
:1018200002B0BDE8F087A6EB0A03E218904501AAD2
:1018300002EB030104D92246484614F021F808E0DF
:10184000A8EB060555442A46484614F019F8641BCF
:1018500002D10020E4E700253B68A0455B690DD874
:10186000B4FBF8FA09EB05015246A819984700287D
:10187000D4DB08FB0AF2A41AEBD015443B68012222
:101880005B6901A9701998470028C7DB224601A9A6
:1018900009EB0500D1E72046C2E700BF843B010009
:1018A0002DE9F043904600220446ADF51F7D04ADBE
:1018B0002846039106AE11461F4600F018FFA26CA1
:1018C00040F20311304600F012FF4FF4087200217D
:1018D00016A813F0FAFF1822002109A813F0F5FF4B
:1018E0001A2200210DF13E0013F0EFFF4FF6F872BF
:1018F00041F20103B2EBC70F4FF6FF72ADF8203093
:101900004FEAC70338BF134608A80121ADF82230BB
:1019100002F00EF90FA84FF4804102F009F94FF4DC
:101920009053DFF888902146226B03803346C0F83D
:101930000C9009F005FA044638BB494616A80AF08F
:10194000D7FE044608BB96E80C0040F2011116A829
:1019500015F035F80446C0B9042340F2032103AA68
:1019600016A815F01DF8044678B92A4616A908A845
:101970000AF0B2FE044640B9A69B4246009395E8A1
:1019800003003B4609F0A6F9044616A80AF04EFAF1
:1019900096E8030014F040FA95E8030014F03CFACE
:1019A00020460DF51F7DBDE8F08300BF090100084A
:1019B0002DE9F04F00259DB004A8049508F0F0F83B
:1019C0004FF018080646DFF8C090304FB54201D1FD
:1019D000002024E008FB05FA049B03EB0A021169CE
:1019E00049454FD10021946807A853F80A2000F018
:1019F0007EFE1C22002109A813F067FF0DF10E02E4
:101A0000049B019206AA53440092D3F814B03021EB
:101A100003AB05AA10A8D84720B16FF092001DB003
:101A2000BDE8F08F4FF6F8714FF6FF72089B0F93E9
:101A3000BDF80C308B4288BF1346ADF82630069BAC
:101A4000079A0C93BDF80E3009A9ADF82430049B19
:101A500053441B690A9313F0FF0308BF1A4654232B
:101A60005C4304F134000E923C441C22384413F0D1
:101A700007FF2046059A10A913F002FF059B236378
:101A8000012323650135A1E7010100807072002068
:101A90007FB56B46154683E8030012B30024064663
:101AA000146003A8039408F07BF8039BA04209D0BC
:101AB0001A4652F8181B8E4208D1D3E90221931E10
:101AC0000B4306D16FF08B0004B070BD1346013498
:101AD000ECE75421044B002001FB02331B6B2B600D
:101AE000F2E76FF08600EFE7707200202DE9F04F0B
:101AF00087B09846109B012807461446DDF844A09D
:101B0000009304D96FF0860007B0BDE8F08F54252C
:101B100045433C4E73191B6D002B6DD0002AF1D04C
:101B2000D2E905B9002303A8039308F033F8002392
:101B3000039A98424FD0114651F80CCBE3454CD153
:101B4000D2E9011339B1002253F8320081453FD167
:101B500003EBC2035B6805F134011C2231442046CB
:101B6000019313F08DFE5A46494604A800F0BFFDCC
:101B70000499626861610599019BA161D1B221B9A3
:101B800022F0FF0242F0010262601946204601F095
:101B9000CFFF542303FB07631A6B009B9A422ED896
:101BA000B8F1000FAED0BAF1000FABD0A368701936
:101BB0005B0415D540F20313994511D042464946BE
:101BC000009BCDF840A007B0BDE8F04FFFF768BE1E
:101BD00001329142B8D10023BDE70A460133A8E79C
:101BE0000146404613F04CFE542303FB0766336B5B
:101BF0000020CAF8003087E76FF08B0084E76FF0B1
:101C0000890081E7707200202DE9F04F4FF0000845
:101C1000D0F8009089B0B9F828A006AF06460D4666
:101C2000D2E900213846CDF8148000F060FDBAF505
:101C3000A06F15D12B1D03936B6802932B68019342
:101C4000F3680093B368D9F8042097E8030009F01B
:101C5000D3FD0446C0B90024204609B0BDE8F08F8A
:101C600040F201539A4512D12B1D03936B680293E6
:101C70002B680193F3680093B368D9F8042097E8C0
:101C8000030009F065FEE4E7C5F80480E4E7AAF282
:101C9000025B1FFA8BF3012B1FD8D5F80080B8F137
:101CA000000F02D16FF08004D6E76B68032BF9D9DF
:101CB000D9F8083041460120C8F8003005AAFEF7DF
:101CC000DFFE04460028C7D1BBF1060F6DD8DFE860
:101CD0000BF0384725314F5A67000120D9F808101A
:101CE00005AAFEF72FFFAAF20753012B044603D9DA
:101CF0000028B1D18046E7E7D5F80080B8F1000FA1
:101D0000D0D06B68032BCDD9D9F80830C8F8003093
:101D10000028D9D0BAF5A16F9DD09DE705982B1D5D
:101D2000D5E9001214F03FFC0446002893D00023AC
:101D30006B6091E70598D6E9021214F085FC044621
:101D40008AE7D9F80430059897E8060014F013FCE8
:101D5000044600283FF47FAF4046FEF7C5FE7BE710
:101D6000D9F80430059897E8060014F010FCEFE766
:101D70002B1D01936B68059800932B68D6E902121E
:101D800014F084FCD0E7059805F10C03D5E90212A4
:101D900014F09DFC04460028DED00023EB605BE7D6
:101DA000059814F0D7FB0446D6E76FF0850453E797
:101DB0002DE9F0430026056885B0B5F82890074660
:101DC000B9F5407F8846029612D10B1D01934B68EE
:101DD00000930B68D0E90212686814F049FA0446CF
:101DE000002858D0C8F80460204605B0BDE8F0834C
:101DF00040F20133994509D1436900938168D0E9E4
:101E00000323686814F045FA0446EDE740F2023314
:101E1000994519D10E6816B96FF08004E4E74B6854
:101E2000032BF9D9AB6831460320336002AAFEF7D1
:101E300027FE04460028D7D16968029814F083F978
:101E4000044640B330466EE00320A96802AAFEF7BC
:101E500079FE6FF441734B44022B04460BD90028E2
:101E6000C2D10646A9F20333042B5FD8DFE803F0A2
:101E700015371B283200D8F80060002ECCD0D8F8D7
:101E80000430032BC8D9AB6833600028EAD040F295
:101E900007339945A8D10024A6E70298D7E9021292
:101EA00014F074F9B0E7029808F10C03D8E90212B3
:101EB00014F084F9044658B10023C8F80C3093E7B5
:101EC0000298D7E9021214F091F9044600288BD148
:101ED0000024B7E7029814F026F90446B2E700237D
:101EE000D8F800500393002D96D0D8F80430032B77
:101EF00092D9BB68002B8FD0FA68032A8CD91B6853
:101F0000294603202B6003AAFEF7BAFD04460028E9
:101F10007FF46AAFDDE9020114F0E7F90446002816
:101F20003FF462AF2846FEF7DFFD5DE76FF0850402
:101F30005AE72DE9F04F0025D0F8009089B0B9F8A4
:101F400028A00DF1180807460E46D2E900214046A8
:101F5000059500F0CCFBBAF5806F16D1331D0393C5
:101F60007368029333680193FB680093BB68D9F8E8
:101F7000042098E8030014F082FA0446002856D0A2
:101F80007560204609B0BDE8F08F40F201439A45E4
:101F90000ED17B6902933B690193FB680093BB6898
:101FA000D9F8042098E8030014F07EFA0446E8E724
:101FB000AAF2024B1FFA8BF3012B1AD8356815B918
:101FC0006FF08004DDE77368032BF9D9D9F8083086
:101FD000294602202B6005AAFEF752FD0446002880
:101FE000CFD1BBF1050F5DD8DFE80BF02331393FCE
:101FF0004D570220D9F8081005AAFEF7A3FDAAF252
:102000000543022B044603D90028BAD10546E8E768
:102010003568002DD4D07368032BD1D9D9F8083096
:102020002B600028DDD040F207439A45A9D1002457
:10203000A7E7D9F80430059898E8060014F085F968
:1020400004460028F3D02846FEF74EFD99E7D9F85C
:102050000430059898E8060014F083F9F0E7059835
:10206000D7E9021214F089F9A0E7059806F10C03EC
:10207000D6E9021214F09CF9044608B90024E2E7FC
:102080000023F3607DE70598D7E9021214F0CFF939
:10209000044600287FF475AFF0E7059814F03FF987
:1020A0000446D0E76FF085046BE72DE9F04F4FF061
:1020B000000907688DB0B7F828A00DF1280806467A
:1020C0000D46D2E900214046CDF8249000F00FFBE8
:1020D000BAF5C06F1FD12B1D07936B6806932B6851
:1020E0000593F3680493B3680393736902933369A8
:1020F00001937B6A00937A6807F1140398E8030060
:1021000009F0A2FC0446002868D0C5F804902046D7
:102110000DB0BDE8F08F40F201639A4517D12B1D39
:1021200007936B6806932B680593F3680493B36871
:10213000039373690293336901937B6A00937A680E
:1021400007F1140398E8030009F0D4FCDAE7AAF2D7
:10215000026B1FFA8BF3012B20D8D5F80090B9F150
:10216000000F02D16FF08004D1E76B68032BF9D91F
:10217000BB6849460520C9F8003009AAFEF780FC73
:1021800004460028C3D1BBF1090F00F29380DFE8B9
:102190000BF027345662697A6F3B80510520B9688D
:1021A00009AAFEF7CFFC6FF4C1635344022B044627
:1021B00003D90028ABD18146E5E7D5F80090B9F105
:1021C000000FCFD06B68032BCCD9BB68C9F80030A7
:1021D0000028D8D040F20B639A4598D1002496E7A6
:1021E0007B68099898E8060014F0A9FA04460028CC
:1021F000F4D04846FEF778FC89E77B68099898E8B0
:10220000060014F0A8FAF1E705F10C030293EB685D
:1022100009980193AB680093D5E9041205F1140302
:1022200014F027FB044608B90024E2E70023EB6022
:102230006B616CE7099814F06DFA0446D9E70998C8
:102240002B1DD5E9001214F0B9FA04460028C5D0B8
:1022500000236B605BE70998D6E9021214F0ACFA30
:10226000044654E70998D7E9031209F049FDF7E756
:102270002B1D01936B68099800932B68D6E9021215
:1022800009F09EFDE1E70998D6E9021209F066FD22
:10229000E6E7F36809980193B3680093D5E9021261
:1022A00005F10C0314F01EFB04460028BCD00023EB
:1022B000EB602CE76FF0850429E7F0B587B007687D
:1022C00004AE04460D46D2E90021304600F00FFA74
:1022D0003B8DA3F5E063032B41D8DFE803F0021444
:1022E00021332B1D03936B6802932B680193E368E2
:1022F0000093A3687A6896E8030014F0FFF8F0B939
:10230000002007B0F0BD6369029323690193E3687D
:102310000093A3687A6896E8030009F097F8F0E75D
:102320002B1D03936B6802932B680193E368009362
:10233000A3687A6896E8030014F0F6F8DFE7002354
:102340006B60DEE76369029323690193E36800939E
:10235000A3687A6896E8030009F0B8F8D1E76FF04F
:102360008500CEE7F0B589B0076806AE04460D4695
:10237000D2E90021304600F0BAF93B8DB3F5006F89
:1023800007D040F60102934218D06FF0850009B0E3
:10239000F0BD2B1D05936B6804932B680393636951
:1023A000029323690193E3680093A3687A6896E82F
:1023B000030009F0CBF8A0B90020E8E72B1D059336
:1023C0006B6804932B6803936369029323690193F9
:1023D000E3680093A3687A6896E8030009F00CF9B3
:1023E000E9E700236B60D2E700232DE9F047066898
:1023F0008EB0B6F828900DF1140807460D469246A7
:10240000D2E900214046049300F071F9B9F5106F4C
:102410000FD12B1D03936B6802932B680193FB680C
:102420000093BB68706898E8060014F0F8FA044658
:1024300026E040F60113994517D12F68002F74D07C
:102440006B68032B71D9B368394604203B6004AA3A
:10245000FEF716FB044698B9716804980AF048F92B
:102460000446002872D100240AE00420B16804AABE
:10247000FEF768FB044638B140F60A13994557D079
:1024800020460EB0BDE8F087A9F60219B9F1080F91
:102490006BD8DFE809F0050F14281B5F222F4D00D1
:1024A0002968002941D06B68042B3ED1049814F0B0
:1024B0005AFABCE7316B049814F05EFAB7E7718DF5
:1024C0000498D7E9022314F06BFAB0E7718D0498F1
:1024D000D6E90C2314F06DFAA9E70498D5E90012A7
:1024E00009F066FEA3E7718D049898E80C0014F0DB
:1024F00066FA9CE72E68C6B16B68032B15D9B968DC
:1025000099B1FA68182A10D107A813F0B9F9DAF8C6
:10251000040007A900F0EEF84246049907A80AF063
:10252000DBF8059B04463360AAE76FF08004A7E759
:102530002F68002FF9D06B68032BF6D9B3683B6086
:10254000002C90D1049809F071FC04463846FEF73F
:10255000CBFA95E7FB68718D0193BB6804980093F3
:1025600098E80C000AF02AF961E76FF0850487E724
:102570002DE9F0418EB003ACD0F8008006460D4640
:102580001746D2E90021204600F0B1F840F20322BC
:10259000B8F82830934203D0A3F50273012B0ED86C
:1025A000B16811B96FF0800426E0F268182AF9D1F9
:1025B00007A813F065F9786807A900F09BF8B8F848
:1025C0002830A3F50073092B00F28A80DFE803F0BE
:1025D0002F1824052A414D595E77D6E904122E683A
:1025E000002EDFD06B68032BDCD9234607A808F048
:1025F000A7FB0446039B336020460EB0BDE8F08184
:102600002E68002ECED06B68032BCBD9D4E9000105
:10261000224614F0F6FEECE794E8030014F012FFF3
:102620000446E9E794E8030013F0F6FBF8E794E8C2
:10263000030007AA2E6813F01AFC2B680446002B2F
:10264000B0D06A681C2AADD8304607A913F018F933
:10265000D2E72B1D0093D5E9002394E8030008F08E
:1026600039FB044650B90024C6E72B1D0093D5E979
:10267000002394E8030013F089FCF2E700236B6069
:10268000BAE794E8030014F0FEFEC9E7002205A8AB
:1026900011462E6800F02BF82B68002B82D06B6857
:1026A000032B7FF67FAF94E8030005AB07AA13F076
:1026B0009DFC044600289FD1059B3360D3E72E681C
:1026C000002E3FF46FAF6B68032B7FF66BAF214694
:1026D00007A80AF0B9F9044600288DD1039BECE75E
:1026E0006FF0850488E7D1E9000114F0FFB9C0E973
:1026F0000021704788617047F0B585B06C4684E86A
:102700000300002403A816461F46039407F048FA66
:102710002146009A039D814202D16FF08B000BE0AD
:102720002B4653F8184B944208D100202B69336094
:10273000D5E90223C7E9002305B0F0BD1D460131EC
:10274000E9E7FEF7EFBB73B504460D4605211AF025
:102750009FF9214604F1A00000F0CCF838B103281D
:1027600015D019280BD00323184602B070BD6E4651
:10277000204631461AF0BDF90128034601D1012354
:10278000F2E730B996E8030085E80300ECE704239C
:10279000EAE70223E8E7704770B5044616461D468F
:1027A0000A46CB171AF016F932462B462046BDE8EA
:1027B00070401AF00FB973B5D2E9006504460A46B5
:1027C000CB171AF007F902212046CDE9006502ABCC
:1027D00013E90C0002B0BDE870401AF010B973B5EF
:1027E000D2E9006504460A46CB171AF0F3F8032134
:1027F0002046CDE9006502AB13E90C0002B0BDE84C
:1028000070401AF0FCB82DE9F0410446AAB0006A05
:102810000E4600F0E2F800286AD0A36B9A0704D4B1
:102820001222002330461AF00DF9042130461AF026
:1028300012F9182304AD1A4621462846276A019347
:1028400000941AF055F8052128461AF004F90122DF
:10285000002328461AF0BEF83A46FB1728461AF01D
:10286000B9F8052128461AF013F9284602A91AF0EA
:1028700040F9074638B10023C4E906330227384639
:102880002AB0BDE8F081029B039AA361E261002BAC
:10289000F4D0D4E9060185E80300022195E80C0094
:1028A00030461AF0ACF8A36BDB071FD4D4E90F84D1
:1028B000052130461AF0CFF87CB1B8F1000F0CD0EA
:1028C0000422002330461AF085F8CDE90484022161
:1028D00095E80C0030461AF092F8304605211AF0BF
:1028E000D7F8022130461AF0B6F8C8E71C27C6E729
:1028F0000127C4E72DE9F041ACB01CAB0C93402399
:102900000E460D9314AB0E93202310AD04462A46B9
:10291000012130460F931AF0C4F8B37B0BB10123A9
:102920003374337C012B54D0002B54D13268D4F84B
:1029300020C0F2B90BAB0293D4E90C018DE803007F
:102940000A926046D4E90A23FEF79EFC0546DDE9BB
:102950000A0112AB83E8030002210CCB30461AF0C7
:102960004EF8042130461AF093F828462CB0BDE802
:10297000F0810DF1200802AFCDF81080DDE90E01E5
:1029800087E8030095E803008DE803006046D4E97A
:102990000612FEF7D9FB05460028E6D1A36BDB073C
:1029A000D5D4DDE90C010AAB069304AB83E8030040
:1029B00098E8030087E80300D4E90C018DE80300E0
:1029C000206AD4E90A23FEF73BFC0028BFD0054665
:1029D000CBE71925C9E71825C7E7C31D0CBF6FF062
:1029E0000F000020704710F18D0F13D010F18C0FE5
:1029F00009DA10F1970F0FD010F1950F08BF0D20D5
:102A000018BF1720704710F1860F07D0002808BFA5
:102A10000020F5E710207047122070470120704712
:102A200013B502AB03E90600436804461BB911B1B4
:102A300006F0EAFD606002B010BD73B502AD05E9B5
:102A400006001D46436804462BB92B1D0E4606F0B2
:102A5000FDFD60602E60606838B110F1860F06D011
:102A600010F18A0F14BF0420052002B070BD0320AE
:102A7000FBE708B512F0DEFF003818BF012008BDE3
:102A8000FEF724BD08B5036800209B68984700281E
:102A900018BF6FF0910008BD0020704770B5044664
:102AA0000E460025E368AB4201D8002070BD606887
:102AB00006FB030023682844DB69984710B9A36824
:102AC0001D44EFE76FF09100F0E72DE9F04F036848
:102AD0008FB006AA04460E46D3F80C8000F0F7FB30
:102AE00000285FD10BA800F0E6FE014600285CD16B
:102AF000DDE9067A202206A8099D12F0E6FE31469D
:102B0000204606AA00F02AFD00284BD183468146C4
:102B10002368DB8A5B4515D8002D35D12946204630
:102B200003AA00F05CFC00283CD12946204603AAF9
:102B300000F073FEB0BB204600F058FE78B36FF093
:102B400083002FE0B3451CD05946204606AA00F06A
:102B5000BEFB38BB069BBB420DD10BA800F0ABFE01
:102B600048B9079B534506D9984528BF98465B1B33
:102B70000793099B99445946204606AA00F0EEFCAB
:102B800080B90BF1010BC3E743462A46394620467C
:102B9000CDE900A900F097F920B9002FCBD120464C
:102BA00000F080FB0FB0BDE8F08F6FF08B00F9E70D
:102BB00070B50C461646054640B339B332B3098AA0
:102BC000012923D9032921D0E38A0229E268A08AB6
:102BD0004FEA431307D0904218D80C20023908332B
:102BE00000FB013307E0A2F11401C91A81420DD3A1
:102BF00090420BD81433934208D81822002128465B
:102C000012F063FE0020C5E9004670BD6FF086003B
:102C1000FBE737B5054600F08DFD044658B94FF087
:102C20008071284601AA00F0BCFB38B928460199FA
:102C3000FFF74BFF0446204603B030BD10F18C0F68
:102C400018BF0446F7E700F099BC10B58AB01446E7
:102C500002AB01AA00F076FB40B9059B6360049BC0
:102C60002360BDF81830A3600AB010BD6FF08B0070
:102C7000FAE72DE9F04393B00DF1280804468946A0
:102C800015460021202240461F461A9E12F01DFEC6
:102C90004FF6FF73CDE9053325B96FF0860013B009
:102CA000BDE8F083AB68B3F1807FF6D22368494674
:102CB0005A8A6B682046013B1344524213406B60B2
:102CC00005AA434600F03EFB002840F08580AB6833
:102CD00005999A0306D50D9AD5F804C062456ED1C0
:102CE0000C900E9306914FF6FF73069A9A427CD190
:102CF00021686B68898A8B42CFD807A9CDE9028108
:102D000006A90191A9682046009105998A1A18BF61
:102D10000122494600F0C1FB0028C0D1002F6CD130
:102D200020460A9907AA00F078FD002851D106999B
:102D30004246204600F012FC0146002849D1DDE958
:102D400005539D4228BF1D4620462A4600F0DCFC64
:102D500000283ED14FF6FF72059B93420FD0069A92
:102D600093420CD09A4238BF1A462046691C00F0A4
:102D7000CBFC70BBDDE905539D4238BF1D4623687F
:102D80002046DA8A691C00F0BFFC10BB0A9B002BAE
:102D900062D1002F60D0204600F084FA00287FF432
:102DA0007EAF4FF6FF73059999423FF478AF069BCB
:102DB00099423FF474AF2046FFF787FE6FE70E9B02
:102DC000424643F0807320460E9300F0C7FB002874
:102DD00089D06FF0830062E710F18C0F7FF45FAF52
:102DE000AB68DB037FF55BAF7DE720460A9907AA56
:102DF00000F0F5FA002891D0EBE723685B8A5A1EB1
:102E00003242E6D17D1E1D445B421D400C9B9E421A
:102E1000DFD82A4631460D9800F041FD0028D8D170
:102E20001B9B4246CDE900532046334607A900F0DC
:102E3000C0F80028CDD10C9B3E440A999E42204602
:102E4000079D88BF0C9600F028FA294607900A9A39
:102E5000204600F080FB63E7204600F0C7FC002816
:102E600099D0B6E713B5002301AA044600F06AFA28
:102E700028B920460199FFF728FE02B010BD6FF077
:102E80008B00FAE770B58CB015461C4603AA04AB5C
:102E9000064600F057FA98B92A462146069800F0EF
:102EA000FEFC58B9109B2246009330462B4604A9DD
:102EB00000F05EF8002818BF6FF083000CB070BD02
:102EC0006FF08B00FAE72DE9F04786B01646DDE992
:102ED0000E9703AA054688469A4600F080FA0446F3
:102EE00098B9059B414633442846059300F0D5F92F
:102EF00006467FB101464A462846CDE900A7039B16
:102F000000F0D4FB28B16FF08304204606B0BDE882
:102F1000F0870127DDE903324A450AD2A9EB020115
:102F2000CDE900212846314600F0C0FB0028EAD157
:102F3000012742462846039900F00DFB41462846EA
:102F400003AA039600F069FC044628B142463146C4
:102F5000284600F000FBD8E7B8F1000FD5D0002FCD
:102F6000D3D06B683146DB68286898470446CCE7C5
:102F70002DE9FF410D461646096801AA04461F4681
:102F8000DDF8288000F02BFA70B901994B1C0BD0AA
:102F900062686B680A9755684246AC4620683344BD
:102FA00004B0BDE8F04160476FF0830004B0BDE8B5
:102FB000F0812DE9F3471546DDE90AA90F46984649
:102FC0001168044600F069F96B687A689844A8EBC8
:102FD0000203CDE90023064601463B68204600F087
:102FE00065FB20BB6368CDF800A0D3F808A04A4673
:102FF000434631462068D047C8B9EB686A68B9686B
:103000001A4423682046DB685B1A9B1ACDE900232B
:1030100031463B6800F04AFB48B92B683BB131466A
:1030200063682068DB6802B0BDE8F047184702B06B
:10303000BDE8F08713B50C2404FB01F3416800944C
:103040008C68083341690068A04702B010BD43682E
:1030500010B5416904461B690068984750B9236858
:103060001A8A022A06D96268A1681846BDE810408B
:103070001269104710BD008A022814BF03380020CF
:10308000704708B5FFF7F7FF0C2300FB033303EB92
:103090004110083008BD2DE9F04F002405460F46C9
:1030A000904626464FF00C098BB0D5F800A050464C
:1030B000FFF7E1FF013086420ED300264FF02009D2
:1030C000D5F800A0BAF816309E421DD3002088F82B
:1030D00000400BB0BDE8F08F09FB06F36A68CDF83D
:1030E0000090D2F804B039465046083302AAD847B7
:1030F0000028EED102AB13F8012B01300C2884EA32
:103100000204F8D10136D0E76B6831465046D3F857
:1031100004B0FFF7B6FF02AA034639465046CDF881
:103120000090D8470028D4D102AB13F8012B01300E
:10313000202884EA0204F8D10136C1E737B5837B41
:1031400001685A1CD2B28273097E044691424169D9
:1031500004BF02338373012900F10D020DD8FFF77C
:103160009AFF40B90822636800929D68616903462E
:10317000A2182068A84703B030BD6FF08600FAE7B8
:1031800013B50C46114622790346012A09D103687A
:1031900062791B7E9A4214BF00206FF0830002B058
:1031A00010BD022A04D11B68A2791B7E9A4202D16B
:1031B0006FF08300F3E701290DD80DF10702FFF747
:1031C0006AFF0028EBD162799DF807309A4218BF58
:1031D0006FF09100E3E76FF08600E0E70822F0B5BA
:1031E000436887B000925C6800236A44054619462C
:1031F0000068A0470246002832D000264FF0FF3476
:1032000008226B6800925F6801210023286804AAE5
:10321000B84700283AD10122284604A9FFF7B0FF99
:103220000346002832D1002E35D02A689DF81610AA
:10323000127E9DF80E00B2FA82F25209914218D124
:10324000002914BF022301231B1A18BF01231C46A7
:103250002C61B4FA84F4002064096C6107B0F0BDFD
:10326000284602A9FFF78CFF04460028C5D1012695
:10327000C6E7904205D1002814BF022201229142E4
:10328000E5D188422CBF00230123E0E7002EDFD1E7
:103290006FF08300E2E70124DAE709B9406970477B
:1032A0008068704710B50446FFF748FF70B963683F
:1032B0006169DB682068984740B9D4E90423204657
:1032C000C4E90432BDE81040FFF7C1BE10BDF7B538
:1032D000066805463046FFF7D4FE0346202069689D
:1032E00000904F68304629691446B847064640B9F1
:1032F0002868FFF7C0FE23680130834204D36FF0D3
:103300009706304603B0F0BD04F1140000F0D3FA84
:103310000028F6D12D68E268AB8A9A42EFD8A368FC
:103320009A42ECD3D4E900372BB92846E98AFFF753
:10333000A8FEB842E3D83946E86800F0B0FA0028A1
:10334000DFD0DCE72DE9F0430746884691461C466E
:10335000002589B03B68DB8AAB4202D86FF08B0650
:1033600016E06A4629463846FFF7B1FFB0B90C228D
:10337000414605A812F044FB064668B9C9F800505A
:1033800034B16D460FCD0FC495E80F0084E80F00EF
:10339000304609B0BDE8F0830135DBE76FF0830606
:1033A000F6E7F0B505460E461746002489B02B68AF
:1033B000DB8AA34202D86FF08B0009E06A462146FF
:1033C0002846FFF784FF38B9049B1E4202D03C60B8
:1033D00009B0F0BD0134EAE76FF08300F8E773B598
:1033E00006460C2000FB01F3716800904C683068C1
:1033F000316908331546A047044630B93368296857
:103400001A8A914204D36FF09704204602B070BD2F
:10341000D868D5E9011200F042FA04460028F2D13A
:103420002B68012B03D83068C18AFFF72AFE6B682E
:103430008342EAD0E7E7F7B50C2606FB01F34168C3
:1034400000964F6808330169054600681446B8477E
:10345000034630B92B6821681A8A914204D36FF071
:103460009703184603B0F0BDD868D4E9011200F004
:1034700016FA03460028F2D12268012A09D82A68E0
:103480001046FFF7F8FDD18A00FB066649010831B6
:10349000881962688242E4D0E1E72DE9F04F0546E1
:1034A0008B4691469846002789B0DDE9146A286862
:1034B000FFF7E1FD0130874202D36FF08D0420E079
:1034C000524639462846FFF78AFF044680BBDAF8A1
:1034D000082090452AD82B685946DB6837609B1A2C
:1034E00073600C22C6F80C8006F1140012F0C8F9C3
:1034F000129BB4603361DAF80830A3EB0803CAF812
:10350000083000262B68DB8A9E4205D26A46314687
:103510002846FFF7DCFE70B14FF6FF766FF08D04A2
:103520002046139B1E6009B0BDE8F08F0137BEE74F
:103530006FF08304E5E705A800F0BDF948B1B9F1E3
:10354000000F04D0002C18BF6FF08D04E8E74FF097
:1035500001090136D6E702B18160704773B505688D
:1035600004462846FFF78DFD034620206168009041
:103570008E6828466169B04702B070BD70B58CB0E6
:103580000546FFF72BFE002861D16E696B68314656
:103590001B69286898470446002878D1B6FA86F156
:1035A0006B6828681B6949099847044600286ED152
:1035B0002A680126137EB3FA83F35B09AB73138A7F
:1035C000C5E90406022B14BF02230123AB600223CA
:1035D0002B73D18A1046FFF754FDD36821461B1A7E
:1035E000029001AA284603930196FFF723FD0446A3
:1035F00000284CD106462B680290DB6803932B68A9
:103600001846FFF738FDB04223D8002C4BD12B6869
:103610001846FFF730FDA04228D82022002104A838
:1036200012F053F900242B68DB8AA34232D82846D3
:10363000FFF784FD48BB6B686969DB6828689847B9
:10364000044620BBD5E90423C5E904321FE0002667
:103650009CE7198A6A68022914BF032100211846D1
:1036600031441269904701360443C8E71B8A284653
:10367000022B14BF0323002323440134214601AA53
:103680000193FFF7D7FC0028C1D06FF083042046D8
:103690000CB070BD2146284604AAFFF75FFF002842
:1036A000F3D10134BFE76FF09104F0E72DE9F04F5B
:1036B0000446884616469946C3B0DDE94CA51DB9B7
:1036C000284643B0BDE8F08FB5F5807F2F4628BF70
:1036D0004FF4807763680097D3F804B049465346A7
:1036E000206802AAD8470028EBD163680097D3F876
:1036F00008B041463346206802AAD8470028E0D1E6
:103700003E44BA44ED1BDAE773B50668044630461A
:10371000FFF7B7FC1546024629463046FFF7B1FCD5
:10372000801ACDE900202046D4E90431FFF7BEFF1E
:1037300002B070BD2DE9F041436805461B68006882
:1037400086B09847044628B92846FFF747FD28B1B8
:103750006FF08304204606B0BDE8F08108266B6850
:1037600005F108070096D3F804803A4623462969F4
:103770002868C0470028EBD1394628462A69FFF758
:10378000FFFC0028E4D12846FFF761FC044600282E
:10379000DED12B7B012B24D1014603AA2846FFF75B
:1037A0004AFE04460028D5D1059B2A68C3F1FF23B1
:1037B000D26803F57F03F8331344CDE90063324642
:1037C00028462B696969FFF771FF04460028C1D1BB
:1037D0006B7B2846AB7302232B73FFF763FD044614
:1037E000B8E7022B18BF6FF08304B3E710B586B0BB
:1037F000002103AA0446FFF7F2FD60B92068049A8D
:10380000059BD118C36820465B1ACDE90023D4E993
:103810000431FFF74BFF06B010BDF0B504460D466E
:1038200087B009B94369136029462046FFF702FCB7
:103830000146D0B9D4E904768DB90C220021206864
:10384000FFF71FFC05FB02220832801ACDE9002099
:103850003B4631462046FFF729FF07B0F0BD204622
:1038600003AAFFF7BCFD014610B16FF08300F4E737
:10387000204603AA0396FFF7DDFB0028F5D1012DB2
:10388000DBD00C2314226B430C3B019331463B46A7
:1038900020460092FFF70AFF0028CED0DDE78142E4
:1038A00006D8401A90422CBF00206FF08600704767
:1038B0006FF08600704700F10C03984202D16FF060
:1038C0008B00704710F8012B002AF6D000207047BB
:1038D000F0B503680446A3F2F233A7B0032B00F25D
:1038E0001B81DFE803F00259A1A40023C2691693EB
:1038F00000F11C03002A38D00421E26A04F12C03F1
:10390000002A3ED004222369042B43D1206A0428D4
:1039100040D801293ED1012A3CD10021606806AA85
:1039200005F0FCFC042835D1A268069B002A2ADB9E
:10393000022B18462ED8B2F5807F2BD1216A16AA09
:1039400003F062FA30BB0146236A606816AA05F0EC
:10395000EFFC002066E00029CFD053F8040D0A46A2
:1039600001390028F7D01146C7E70321F5E7002AFF
:10397000C9D053F8045D1046013A002DF7D0024635
:10398000C1E70322F5E703F108000228069001D9F8
:10399000022BD3D9012045E0C26900F11C033AB3E0
:1039A0000422E16A04F12C0371B304212369042B7E
:1039B000F0D1012AEED10029ECD1606816AA05F0F9
:1039C000ADFC0428E6D1A268169B002A1EDB022B60
:1039D0001846DFD8B2F5807F1FD0DBE7002AE0D0A1
:1039E00053F8040D1146013A0028F7D00A46D8E7EB
:1039F0000322F5E70029D9D053F8045D08460139C0
:103A0000002DF7D00146D1E70321F5E703F10800C7
:103A100002281690BED9022BBCD803F02AFA00382F
:103A200018BF012027B0F0BD02F04CFB91E7002544
:103A30003C22294607A8CDE90255CDE90455069553
:103A400011F043FF3C22294617A8169511F03DFFBF
:103A5000E269019504F11C0302B30426E26A04F151
:103A60002C033AB30425731E012B93D8012D91D852
:103A70000423002160680DEB030205F04FFC0428CD
:103A80001AD06FF08000CDE7002EE7D053F8041D68
:103A90003246013E0029F7D01646DFE70326F5E758
:103AA000002DE0D053F8041D2A46013D0029F7D02F
:103AB0001546D8E70325F5E7022E22D16669402E88
:103AC00027D806AF33463A460121606805F026FC48
:103AD0008642D6D1CDE9027602A9A5B1236A402B50
:103AE000CFD816AACDE90423019804AA03F04AF816
:103AF000DDE9042305460021606805F019FC28462D
:103B000090E70021E9E72A46019803F03BF80546D3
:103B1000F5E76FF0890085E76FF0850082E708B56B
:103B200003F070F9002814BF6FF09200002008BD68
:103B3000CA0448BF41F480618B0448BF41F400616E
:103B4000816070471D0E0100F90D0100C10D0100DB
:103B50009D0D01007D0D0100450D01000D0D0100C1
:103B6000D50C0100990C0100F9FFFFFF00000000D7
:103B7000852A0100D917010095170100992A010033
:103B80009D2A010001000000020000000400000066
:103B9000000070FF76FF7CFF79FF5B494E465D5B5E
:103BA00043727970746F5D2050726F766973696FBC
:103BB0006E20656E74726F707920736565642E2E49
:103BC0002E0D0A005B494E465D5B43727970746F3F
:103BD0005D2050726F766973696F6E20656E7472C6
:103BE0006F707920736565642E2E2E201B5B303B31
:103BF00033326D636F6D706C6574651B5B306D2E59
:103C00000D0A005B4552525D5B43727970746F5DC3
:103C100020556E737570706F727465642072657173
:103C200075657374210D0A004D62656420544C5310
:103C300020332E362E32005369676E6174757265BB
:103C400031004372656174696E6720616E20656D35
:103C50007074792049545320666C617368206C61DC
:103C6000796F75742E0D0A004372656174696E6711
:103C700020616E20656D70747920505320666C61F0
:103C80007368206C61796F75742E0D0A0000000056
:103C90000000000000000000000000000000000024
:103CA0006FF47A72F0B5474B0446186003688DB024
:103CB0001344042B08D8DFE803F003274867770094
:103CC00003698668082B02D06FF0800559E085698A
:103CD000042DF9D10021406808AA05F01FFB08282F
:103CE000F2D12B460221606806AA05F017FB0428D2
:103CF000EAD1069B3046019363690093DDE908230E
:103D000000F0E2FC05463CE00369082BDCD1456984
:103D1000042DD9D10021406808AA05F0FFFA08282F
:103D2000D2D12B460121606805AA05F0F7FA0428D4
:103D3000CAD106AB0293236A0193059B0093A06846
:103D4000DDE9082300F0D6FCDCE70369082BBBD1D2
:103D5000076A0C2FB8D10021406806AA05F0DEFAE8
:103D60000828B1D1DDE9062308AE0096A06800F06E
:103D7000D5FC054628B901463B463246606805F049
:103D8000D7FA28460DB0F0BD0369082B9CD100215D
:103D9000406808AA05F0C2FA082895D1DDE9082391
:103DA000A06800F0CBFCADE7056A042D8CD100F0D3
:103DB000D8FC2B4608900021606808AA05F0B8FAE4
:103DC0000025DEE7101D002038B5074B02461D68B0
:103DD0000C460B466868012105F0A0FA844214BF26
:103DE0006FF08000002038BD101D00200B460449F4
:103DF00010B40C6802460021606810BC05F098BA47
:103E0000101D002008B50749074811F0E8FD00F033
:103E10000DF830B100F0B3FC18B9BDE8084000F06F
:103E200005B808BD00025005A849010010B5044CB2
:103E3000204600F09FF9034B383C5C6010BD00BF8A
:103E4000680C0020141D00202DE9F047DFF860A069
:103E50001F46534681468846164600F0BBFA044684
:103E600000BB144DDAF800002946C5E90498AE619C
:103E700000F0E2FC044678B9AE6ABE4215D3089B56
:103E8000F61B9E4228BF1E4605F1380031463844D5
:103E9000FFF7ACFF099B1E6040F648020021054871
:103EA00011F013FD2046BDE8F0876FF08604F3E7BC
:103EB000141D0020300C00202DE9F74FDDF830A054
:103EC0008046BAF5006F0F4691469B4668D8364E3D
:103ED000334600F07FFA0446002843D1334D306862
:103EE0002946C5E90487C5F8189000F0A5FC0446EA
:103EF00070BB2B6BDB0750D40123C5E90BABD6F8A5
:103F000000B051462A480193FFF75EFF0446F8B916
:103F1000019B264D18462449C5F828A000F0D2F987
:103F20000446A8B929463068C5E90487C5F8189041
:103F300000F0C5FC044658B94A46404639461A4B7B
:103F400000F0F2F90446E8B10021306805F090FD78
:103F500040F648020021154811F0B7FC204603B096
:103F6000BDE8F08F10F18C0FF2D1104C40F64802F2
:103F70000021204611F0A9FCC4E90BAB02234FF04D
:103F8000000BBEE7BBF1000F03D100F05FFA04465F
:103F9000DEE7584600F0E7FBF9E76FF08404D7E767
:103FA0006FF08604DAE700BF141D0020300C0020FB
:103FB000680C00202DE9F047DFF844A01E46534668
:103FC00081468846174600F005FA0446A0B90D4D13
:103FD000DAF800002946C5E90498AF6100F02CFC2E
:103FE000044618B9AB6A73602B6BB36040F64802A5
:103FF0000021044811F069FC2046BDE8F08700BFAD
:10400000141D0020300C00202DE9F843DFF86080FB
:10401000074643460E46914600F0DCF9044600BBD5
:10402000144DD8F800002946C5E90476C5F8189063
:1040300000F002FC044670B92B6BDB0714D44A462F
:104040003846314600F0DCF9044620B9D8F80000C3
:1040500000F089FB044640F648020021054811F0B3
:1040600034FC2046BDE8F8836FF08404F3E700BF1A
:10407000141D0020300C0020F0B500250A4CD4E9B6
:1040800010768E4208BF874205D1A66C964202D1B7
:1040900000201D60F0BD01350B2D04F12004EED190
:1040A0006FF08B00F6E700BF78140020002070B599
:1040B000DEB0029000F05CFC044618BB02A900F0E0
:1040C0004CFC0446F0B910211E4800F0C9F9044622
:1040D000C0B91D4D029E284600F020FA044678B96A
:1040E0004FF4B47205F1280103A85D9611F0C8FBE6
:1040F0004FF4B672284603A900F09EFA044620B198
:1041000000F0F8F920465EB070BD00F0F3F9044607
:104110000028F7D195F891612B4600904FF4C872B2
:104120000021701C05F046FC04460028EAD195F8F1
:104130009031029885F8913185F8906100F021FB6B
:104140000446DFE7200C00207814002010B5084C4E
:104150004FF4CC722046002111F0B7FB0123A4F8E4
:10416000903184F82830BDE81040FFF79FBF00BFB2
:1041700078140020002270B5504E88B002AD049033
:104180004FF4C87301200021CDE90065CDE9062276
:104190000396ADF8142005F02BFC10B101238DF827
:1041A0001430049B0022009302204FF4C8730021B6
:1041B000019505F01DFC10B101238DF8153000F0BC
:1041C00039FB044678BB10213D4800F049F904460C
:1041D00048BB06A900F0C1FB044638BB29460120B4
:1041E00000F0BBFB044608BB022007A900F0B5FBAA
:1041F0000446D8B9079A029B9A429DF8143018BF1A
:104200000790012B03D0002003A900F0E8FA9DF8E5
:104210001530012B03D0012003A900F0E0FA00F0D3
:1042200069F9044628B1204608B070BD00F062F973
:10423000F9E7039B049993F82830012B1CBF012355
:104240008DF8143091F82830012B1CBF01238DF814
:10425000153040F20113BDF814209A422AD09DF87F
:104260001430012B07D14FF4C8721448A6F89031CE
:1042700011F006FB07E09DF81530022B18D04FF423
:104280008073A6F8903196F891010021013005F075
:10429000EFFB044610B110F18C0FC4D1069800F06A
:1042A00070FA04460028BED1044800F02FF9BAE79E
:1042B0000123D8E76FF08304B5E700BF781400202E
:1042C000200C002070B50D4648B300231C46154A4B
:1042D000D2E91016314304F1010106D00B2919D09F
:1042E0001C46203223460C46F2E70B2900F1FF3032
:1042F0000FD020320028F5D12346DC1C20460021B7
:1043000005F0B6FB10B110F18C0F01D100202C602C
:1043100070BD0A230028F0D06FF08D00F8E76FF031
:104320008600F5E7781400202DE9F0471E460023AB
:104330008146884617468AB0244D02AC01930FCDC2
:104340000FC495E80F0084E80F003A4648464146FE
:1043500001ABFFF791FE1E4D824668B9019C2022F9
:1043600005EB44143034214602A811F089FA2022CA
:104370005146204611F0A9FA33687168DC1E05EB3E
:10438000431343E9089805EB44131C4630341022CC
:1043900020469F6411F074FAFFF788FE064688B144
:1043A000DDE90632134308D0019B202205EB4315BB
:1043B00002A905F1300011F063FA20220021204605
:1043C00011F083FA30460AB0BDE8F0878849010051
:1043D0007814002037B51D4601ABFFF74DFE0446AB
:1043E00048B9019B0549DA1C2A606868102201EB74
:1043F000431111F045FA204603B030BDA814002047
:10440000002330B58BB0019301ABFFF735FE0446B6
:10441000B0B9019B0C4D202205EB4315294602A89B
:1044200011F02EFA21462022284611F04EFAFFF70D
:104430003DFE044620B12022284602A911F020FAB0
:1044400020460BB030BD00BFA8140020034B002154
:1044500093F89101013005F00BBB00BF78140020E8
:1044600030B589B004460D461822002102A811F08B
:104470002CFA0023019385B37CB34FF44072184BA0
:104480001849CDE90423184B01A8029305F01EFA40
:1044900008BB40F20111154A01A805F0D1F9A8B9ED
:1044A0002B46224640F2032101A805F033FA68B9F1
:1044B0000F4C01A9224602A805F054FA30B901A810
:1044C00005F0E2F938B1206805F014F801A805F00C
:1044D000DBF96FF0830009B030BD6FF08600FAE7BA
:1044E0000002500509010008002480005C81FF7F64
:1044F0001C1D002008B5044B186804F0FBFF0028C1
:1045000018BF6FF0830008BD1C1D002000F11C01C6
:104510000C22014811F0B4B9201D00201FB508225B
:10452000184904460DEB020011F0AAF904221649BD
:104530000DEB020011F0A4F9029B039A013342F142
:104540000002CDE90232134314D008220D480DEBCE
:10455000020111F095F904220B480DEB020111F054
:104560008FF90C22074904F11C0011F089F9002091
:1045700004B010BD019B01330193002BE5D16FF016
:104580008300F5E7201D0020281D0020F0B505461A
:1045900089B010980F9FCDE90012CDE904700E98F4
:1045A000119ECDE902300C4806960C230B49006899
:1045B00005F11C0205F078F8044650B93168102264
:1045C000103931602846394411F05AF9204609B0B3
:1045D000F0BD6FF08304F9E71C1D002000025005B8
:1045E0002DE9F0411D460F469046044688B00E9EC8
:1045F00001461022981911F043F9119B10360693C9
:10460000109BCDE902560593CDE900780F9B084831
:10461000049308490C2304F11C02006805F094F887
:10462000002818BF6FF0940008B0BDE8F08100BF0B
:104630001C1D00200002500500B58BB009AB06938D
:104640001023CDE904030023CDE90012CDE90233A4
:1046500000F11C0208480C230849006805F024F802
:1046600038B9099B102B18BF6FF083000BB05DF8B1
:1046700004FB6FF08300F9E71C1D002000025005C9
:1046800000B58BB009AB06930023CDE904331023AA
:10469000CDE90012CDE9020300F11C0207480C230A
:1046A0000749006805F050F8099B184314BF6FF0E4
:1046B000940000200BB05DF804FB00BF1C1D00201F
:1046C00000025005FFF79EBB30B419460446104661
:1046D000DDE9022350EA010505D0072B07D8224661
:1046E00030BCFFF7E9BB6FF0860030BC70476FF05D
:1046F0008500FAE770B4194604461046DDE9033236
:1047000050EA0106059D05D0CDE90325224670BC7F
:10471000FFF79ABB6FF0860070BC7047194610B463
:104720000446104650EA0102019B03D0224610BC09
:10473000FFF740BC6FF0860010BC7047194652EA84
:10474000010310B50446104608D02246FFF75CFC72
:1047500010F1950F08BF6FF0830010BD6FF0860059
:10476000FBE70020704710B50446FFF76FFE0146D7
:1047700020B92046BDE8104005F07AB910BDFFF71A
:10478000E5BC002337B5054601A90120019300F0DF
:10479000E4F868B16FF08304204603B030BD012017
:1047A00000F0E6F804460028F6D1019B013301939E
:1047B000019BAB42F3D3022001A900F0CEF80446DE
:1047C0000028E7D1019BAB42E6D2022000F0D0F8EE
:1047D00018B9019B01330193F4E70446DCE770B597
:1047E00051F82060DCB0CB684FF4B47205460C463B
:1047F00001A806F128015B9311F042F84FF4B6725C
:10480000304601A9FFF73CFF80B1236983B14FF423
:10481000B672304601A95B93FFF732FF00280CBF48
:10482000032301232C4423725CB070BD0223F9E7FB
:104830000123F7E700207047002270B58EB005AB6A
:10484000019301F11C030C460093114640F61C0332
:10485000064605F0CDF868BBD4E90423CDE908236A
:10486000A3690422069607A90BA808AE0793059D25
:1048700011F006F8314608220CA811F001F80C21BD
:104880000BA8FFF7EDFDA8B94FF402620C3D04F14F
:104890002803CDE90132204604220396009506A99B
:1048A000FFF79EFE10B9089B9D4205D0FFF722FE40
:1048B0006FF083000EB070BDFFF71CFEFAE72DE924
:1048C000F041D1E904238CB0CDE906238B690422A1
:1048D0008E6A049005460C4609A805A906AF059303
:1048E00010F0CEFF082239460AA810F0C9FF0C21AB
:1048F00009A8FFF7B5FD0146E0B92046FFF70EFE17
:104900000146B8B94FF4026206F1100804F1280319
:10491000CDE90132204604220397CDF8008004A996
:10492000FFF734FE10B9069B984507D0FFF7E2FD6C
:104930006FF0830108460CB0BDE8F081FFF7DAFDA7
:1049400001460028F6D1009004F11C03284606F128
:104950001C0205F02FF80146ECE70A4608B50421D1
:1049600005F0B4F8002814BF6FF08300002008BDE4
:1049700008B505F093F8002814BF6FF083000020FD
:1049800008BD000000000000000000000000000062
:104990000000000000000000000000000000000017
:1049A00000000000000000005B494E465D5B505374
:1049B0005D20456E6372797074696F6E20616C67FB
:1049C0003A20307825780D0A000000000000000031
:1049D00000000000000000000000000000000000D7
:1049E000C8470000010000008991010061910100A9
:1049F00088FC020000A600203200000050FC0200EB
:104A0000401D00200E00000040FC0200200C002091
:104A100004000000C8A600209C0D0000781D0020A6
:104A200022220000300C002044040000000C002072
:104A300008000000FEE7000008B572B61E4A1F4BD2
:104A40009A601F4B83F309881E4B83F30A8883F314
:104A50000B881D4B16A1D1E90001C3E9000100F04C
:104A60005DF81A4B1A498B4212D30020194B1A4990
:104A70008B4218D304F09CFB186850F82240586809
:104A800040F82240013298688242F5D30C33EAE7BD
:104A90000022F8E71C6844F8220001325C68A24258
:104AA000F8D30833E4E70022F8E700BFAFF3008053
:104AB000A5EDF5FEA5EDF5FE0004010000ED00E01A
:104AC000F80B002000040020F80B0020F049010042
:104AD000144A0100144A0100344A0100EFF308802F
:104AE000EFF309812DE9F00F6B46724600F0FEF8F6
:104AF00008B0FFF79FFFFEE74FF47F03D3F83021A4
:104B0000D3F83431072A05D1023B032B02D8024ADD
:104B1000D05C704700207047A68A0100694A08B53A
:104B2000D2F8D03043F00203C2F8D030FFF7E4FFF0
:104B300058B1654BD3F8202A3AB90D21C3F8201A91
:104B40000121C3F81C19C3F81C290022D30003F566
:104B50007F03D3F80013013107D0D3F800130132DB
:104B6000D3F80433202A0B60F0D1FFF7C5FF0028EB
:104B700040F0A080FFF7C0FF40B1544B544AC3F847
:104B800030254FF050230122C3F858254FF47F03FE
:104B9000D3F83021D3F83431072A09D1023B032B53
:104BA00006D84C4AD35C1BB100224B4BC3F84C25B2
:104BB000FFF7A2FF50B14FF05023D3F80024D107E4
:104BC00042BF0022C3F81421C3F818214FF47F0319
:104BD000D3F83021D3F83431072A09D14FF05023CC
:104BE000D3F80024D20744BF6FF00102C3F80024B9
:104BF000FFF782FF18B16522334BC3F80C274FF43F
:104C00007F03D3F83021D3F83431072A16D1324B41
:104C1000D3F82034002B11DA4FF050230322C3F8CD
:104C2000182501229A60D3F80421002AFBD0002223
:104C3000C3F804210122DA60C3F818254FF47F037A
:104C4000D3F83021D3F83431072A23D1023B032B88
:104C500002D8224AD35CEBB17E221B4B1B49C3F81E
:104C60000C27C3F83C297F231D4AC2F818310023C2
:104C7000C1F8043EC1F8083E01F54821C1F81031E1
:104C8000C2F82431C2F82C3102F5FF1202F580522D
:104C9000C2F8A0320B4AD2F88C3043F44063C2F819
:104CA0008C30104A104B1168C3F84415D269C3F810
:104CB0004C2508BD2922044BC3F80C270322C3F856
:104CC0003C2757E700ED00E0004000500090035003
:104CD0004400EFBEA28A0100002003509E8A01001A
:104CE000002000500080FF000060005038B51D46D5
:104CF000384B394C5B68C3F308032360EFF303833D
:104D000063655306C4E90120E16039D502F00C0265
:104D10000C2A08BF08460146206120222F4810F0C7
:104D2000AFFD25B1202229462D4810F0A9FD294BC1
:104D30009A6AA265D96AE165986B206602F4004020
:104D40006066586BA06602F08000E0669A62D962E5
:104D5000D3F8E42023482267D3F8E810616702F013
:104D60004001A167C3F8E4200E2101F0A7FD2268ED
:104D7000D31E042B22D8DFE803F00F15181B1E00EA
:104D8000EFF39483990704D5130702D5EFF38980D5
:104D9000C1E7EFF38880BEE70C211348BDE8384037
:104DA00001F08CBD12211148F8E70B211048F5E7FE
:104DB0000D211048F2E70E210F48EFE70F2A98BFA8
:104DC0001421BDE8384089BF25210C480C48103A11
:104DD00002F0F4B900ED00E0BCAC0020D0AC002043
:104DE000F0AC0020AA8A0100B88A0100C48A010040
:104DF000D68A0100E18A0100EE8A0100FC8A0100E6
:104E0000108B01002DE9F34106460F460C4DD5F8F5
:104E10002C80C04710F00104FBD1394630466B6945
:104E2000984740B9C047C307FCD42B6A019302B02E
:104E3000BDE8F0411847204602B0BDE8F08100BF50
:104E4000388B010010B5094C0020A36898472369EE
:104E5000022098474FF4E131A46A0120A0470121C4
:104E60001520A0470122024B1A6010BD388B0100AB
:104E700038AD0020064B82B01868002382B262F37E
:104E80000F03000C60F31F43184602B0704700BFC9
:104E9000808B0100014B1869704700BF04A60020F9
:104EA000014B5869704700BF04A6002010B5044CA0
:104EB000204600F025FF002084F8240010BD00BF2C
:104EC00004A6002038B50C4D0C4695F8243013B9D3
:104ED0004FF0FF3038BD0A460146284600F0A0FFDB
:104EE000064B984205D00B3B9842F1D100206C61F3
:104EF000F0E76FF00100EDE704A600200B00AD0B1A
:104F0000F0B51B4E054696F824300C4691B01BB9FF
:104F10004FF0FF3011B0F0BD00F06043B3F1005F1F
:104F200021D100230A460146304600F00BFC114B0C
:104F300098421AD00B3B9842EAD1346111E0A71B8A
:104F4000402F28BF4027A9193A46684610F098FC20
:104F500039466846FFF7D4FF0028DBD14036B4421B
:104F6000EDD80020D6E70026F9E76FF00100D1E781
:104F700004A600200B00AD0BC3B2012B30B540F0EE
:104F8000A2804DF6C023994276D028D8B1F5615F52
:104F900075D011D8B1F5965F73D008D8B1F5966F7A
:104FA00071D0B1F5166F71D06FF0070063E0B1F505
:104FB000165FF9D14B4B33E047F61223994268D084
:104FC00007D8B1F5964F67D0B1F5E14FECD1464B1C
:104FD00026E0B1F5164FE7D14FF41D0320E0434B17
:104FE00099425BD011D8B1F5E13F5AD007D8B1F55D
:104FF000614F59D0B1F5963FD6D13D4B10E0B1F598
:10500000613FD1D14FF06C730AE0B1F5612F4ED002
:10501000384B99424ED0B1F5E12FC5D14FF0E8633E
:1050200010F4E06F52D110F4404403D0B4F5804F37
:105030004FD11024304900F44052B2F5805F8D8B7F
:105040003BD0B2F5005F3BD0002A45D110F4403090
:1050500003D0B0F5403F42D101204A7622432A4393
:105060000876024300200B628C768D830968C1F8B4
:105070002435C1F86C2530BD4FF46503D0E71F4BD4
:10508000CEE71F4BCCE74FF49E23C9E74FF41D2317
:10509000C6E74FF40003C3E71A4BC1E74FF0806344
:1050A000BEE74FF0EB73BBE74FF46B03B8E74FF08D
:1050B0007063B5E74FF08053B2E700250E22C5E7D5
:1050C0004FF48075FAE76FF00300D4E76FF0080043
:1050D000D1E76FF00A00CEE76FF00900CBE76FF081
:1050E0000B00C8E70050270000C0750090D00300F7
:1050F00000903A0140420F0004A6002000F03A0060
:1051000000B0130000A04E0010B58EB02822002180
:1051100004A810F0DAFB4FF0FF33CDE90033CDE9FE
:1051200002334FF0EB7368460A930723104C8DF857
:105130003530D4E9021201F0DFFB0146002220469F
:1051400000F052FA0B4B98420ED1DDE90B0100231F
:105150000A9AA061226201221846C4E90433A1839D
:1051600084F824200EB010BD6FF00100FAE700BFF4
:1051700004A600200000AD0B036803F01F025B09CA
:10518000026004D0012B034818BF0020704702487A
:10519000704700BF00288450002584507FB500254B
:1051A0000C46C0F808511646D0F80821D0F8002265
:1051B00022F02002C0F80022104AC0F8082301F0B3
:1051C000EBFBA560256104F14C03D3E8EF1F21F44C
:1051D0007F0121F47041C3E8E21F002AF5D11022BB
:1051E0002946684610F071FB042368468DF80030AC
:1051F0000196D4E90013984704B070BD10020A006C
:10520000044B054A1B68B3FBF2F35843034B43F0CE
:105210000103184700A6002040420F00908B0100B8
:1052200007B5019001A8FFF7A7FF019B00EB8300E2
:10523000D0F80022034B1340C0F8003203B05DF8F1
:1052400004FB00BFF0F0FCFF2DE9F04F804690F822
:1052500004A05020664F0E4600FB0A70416885B0DE
:1052600049B113F0020304D0836B002B00F0B2802D
:105270000123009300E000914FF0500909FB0A73ED
:10528000DB6CD90600F1A6804FF0010BB318029336
:10529000029BB34200F0A78006F06043039398F8A6
:1052A0000450D8F8004009FB05739A6B9AB9039B28
:1052B000B3F1005F40F09980019200F0F3FD09FB2B
:1052C0000572D16C204601F0010101F033FB28B9D1
:1052D00000F0F0FDE3E701230193EEE7516C334664
:1052E0000029BCBFD4F84C155164019A42B109FBA6
:1052F00005713078D1E90E23D054D1E90E32134430
:105300001BB1C4F84435C4F848B50022C4F82021C4
:10531000D4F82011C4F85821D4F85811C4F85021F9
:10532000D4F850210822C4F80025009AE2B14FF4C5
:105330008003C4F80433C4F808B000F0BBFD502368
:1053400003FB0A72516800294BD1D26C120748D571
:1053500003FB0A734C33D3E8EF1F21F00801C3E8C5
:10536000E21F002A36D0F6E7C4F808B0019300F037
:10537000A1FD09FB0572D16C019B01F001012046E2
:10538000019301F0D7FA8446019BD4F84C05D4F878
:105390004425BCF1000F0DD19342F0D005EB8505FB
:1053A00007EB0515D1B100F07DFD2946204601F03F
:1053B00005FBC2E705EB8505934207EB0515F1D127
:1053C0000028EFD100F06EFD2946204601F0F6FAE4
:1053D00000F070FD074805B0BDE8F08FC4F80CB0D0
:1053E000E1E7013654E70448F5E70448F3E700BF76
:1053F0003CAD00200800AD0B0000AD0B0400AD0B70
:1054000007B5019001A8FFF7B7FE019B00EB8300F1
:10541000D0F80022044B134043F00303C0F80032DD
:1054200003B05DF804FB00BFF0F0FCFF07B501908E
:1054300001A8FFF7A1FE019B00EB8300D0F800223A
:10544000044B134043F00203C0F8003203B05DF890
:1054500004FB00BFF0F0FCFF2DE9F3470C4694F885
:105460003330054690F804800968002B36D150236C
:105470005A4F03FB0873DE6C46F00072DA644A1C74
:105480000AD001A80191FFF777FE0123019A93400A
:1054900083600846FFF7B4FF6068431C01D0FFF744
:1054A000BFFE94F82C30012B18D1502303FB087356
:1054B000E06846F02066421CDE6401D0FFF7B0FED3
:1054C000A668731C0AD001A80196FFF755FE0123B8
:1054D000019A934083603046FFF792FF94F8327050
:1054E0003FB950223D4B02FB0833DA6C42F0807228
:1054F000DA6494F82C6094F82D0094F82E90228EA3
:105500002B68D4F828A0324340EA09000243D4F8BB
:105510000CC0D4E9018EC3F824A5C3F86C254FB99B
:10552000012EC3F80C15C3F8148504BFC3F808E5B1
:10553000C3F810C5D3F8682503F26457012A08BFE1
:10554000DA60D3F86425012A0FD1082149F64046D4
:10555000C3F800155A603B68A3BB2B68D3F88024BE
:10556000C3F880240022C3F8002500212B6894F89A
:105570003520C3F81011D3F81001C3F82011D3F867
:105580002001C3F82411D3F82401C3F84411D3F83F
:105590004401C3F85811D3F8581143F307335201AB
:1055A000002BD2B214DB0E49C81880F80023012268
:1055B000580903F01F0302FA03F341F8203002B048
:1055C000BDE8F0870120FFF71BFE013EC3D1C4E711
:1055D000044903F00F03CA54F1E700BF3CAD0020BB
:1055E00000E100E014ED00E02DE9F3479046502281
:1055F00090F804904E4C02FB09FA04EB0A070D46A2
:1056000097F84810064600297ED109EB890004EB83
:10561000001010F05AF92B69AA6944F80A306B6936
:10562000BB6302B1013A502303FB0943DA632A6AE0
:10563000042A81BFEA699A610022DA6195F8343060
:10564000B8F1000F34D083F001073F0233B150238B
:1056500003FB0943DA6C42F00102DA64502303FBD6
:1056600009440123C4F8048084F848303468D4F82D
:105670004C21FAB929463046FFF7EEFE08220023F6
:1056800034688DF80730C4F800250DF10702C4F81E
:105690004425C4F8483501230A25A360E360D4F803
:1056A00058319BBB0120FFF7ABFD013DF7D125E051
:1056B0004746CBE708224FF06409C4F80025636031
:1056C000D4F84431F3B9D4F82431DBB90A20FFF718
:1056D00097FDB9F10109F3D14B460022C4F84C21E2
:1056E000D4F84C11C4F81021D4F81011C4F8442196
:1056F000D4F84411C4F80025002BBBD10D4802B0EA
:10570000BDE8F0870123E8E70B48F8E70023C4F879
:1057100020319845D4F82021C4F80035074B08BF44
:1057200000231F4333680648C3F80473E7E700BF4C
:105730003CAD00200100AD0B0C00AD0B10020A00C7
:105740000000AD0B2DE9F04784460F469E461646F5
:105750000579002A51D04FF0500ADFF8AC80D0F81C
:1057600000900AFB058ADAF8044074B96BB9DAF8DC
:105770002C50002D43D1CAF82C20FFF765FD0446BC
:10578000CAF82C502046BDE8F0871EF0030F07D062
:10579000734632463946BDE8F0476046FFF754BDD0
:1057A00007F06043B3F1005F4FF0500414D104FBE5
:1057B000058400F077FBE26A1AB1144C00F07AFB22
:1057C000E0E7C4E90A7605EB8505484608EB0511D4
:1057D00001F0FFF80E4CF1E704FB0584A36B83B1E5
:1057E00000F060FBE36A002BE7D1E36C012243F099
:1057F0000203C4E90A76E364E5E7064CC2E7034C1A
:10580000C0E7054CBEE700BF3CAD00200B00AD0B70
:105810000000AD0B0600AD0B0A00AD0B2DE9F843FF
:1058200050230679284D046803FB0653D4F804730B
:10583000DA6AC4F8087322B92448C4F80473BDE8CE
:10584000F88306EB860005F14C024FEA001802EBE4
:105850000012D2E8EFCF4CF0080CC2E8E0CF0028ED
:10586000F7D10122E26031B3D96C01EA020949465D
:10587000204601F05FF80028FAD000F013FBB9F1E0
:10588000000F1CD1D4F8203153B10123E360D4F8C8
:105890005831002BFBD0204605EB080101F08EF8B3
:1058A00000F008FB0023C4F82031D4F82021502256
:1058B00002FB0655EB620648C4F80473BFE7D4F850
:1058C0005831002BE7D1EBE73CAD00200500AD0BD4
:1058D0000000AD0B2DE9F84390F804804A4E08EB28
:1058E00088073F0107F14C0504683544D5E8EF3FD0
:1058F00043F48052C5E8E02F0028F7D1DA047FD4C2
:105900004B0705D5502303FB08639B69002B79D017
:105910003E4B3744C4F808330823C4F8003500234D
:10592000C4F81031D4F81021C4F84C31D4F84C210B
:10593000C4F844310A03D4F844318B0303F48043A0
:1059400002F400524903134301F400410B43D5E82C
:10595000EF2F1A43C5E8E12F0029F8D14FF0500985
:1059600009FB0869D9F80830EBB9D9F8043093B9C4
:10597000502303FB0863DB6CD8043FD5D5E8EF3F29
:1059800023F47F0323F47043C5E8E23F002AF5D1F6
:105990001F48BDE8F8830321384600F0D8FFD9F846
:1059A0000830002BE4D0D4F80433590713D5502322
:1059B00003FB08635A6872B1DB6C1A030BD5D5E898
:1059C000EF3F23F40023C5E8E23F002AF7D1062188
:1059D000384600F0BCFF502303FB0863DB6CDB049C
:1059E0000CD5D4F84C310BB901232360502303FBB1
:1059F0000866736813B1054BC4F804330548C8E75B
:105A00000548C6E70548C4E73CAD002010020A007F
:105A10000200AD0B0000AD0B0B00AD0B0800AD0B91
:105A20002DE9F84F502390F804905B4E046803FB77
:105A300009631746DA6CD4F804A350038846C4F807
:105A400008A300F1A38001F06041B1F1005F40F0D4
:105A50009F80996859B15B68002B40F08380D4F82F
:105A6000101100297ED0C4F81031D4F8103150251F
:105A700005FB0965EA6909EB890BC5E902874FEA6D
:105A80000B1B002A49D0974235D84FF000093A46FF
:105A9000A9694046C5E902990FF0F2FEEA69A869D2
:105AA000D21BC119EA610FF0B5FE6B6823B93B4800
:105AB000C4F804A3BDE8F88FEB6C5E44990414D5D8
:105AC000374B5B44D3E8EF1F41F48021C3E8E21F6A
:105AD000002AF7D13A464146304600F049FF4A468F
:105AE00031462046FFF75AFBE1E73A464146304649
:105AF00000F03EFFDBE74046A9690FF0C1FEEB690D
:105B00006B620023EB61264B5B44D3E8EF1F41F44B
:105B10000021C3E8E21F002AF7D1502303FB0963E9
:105B2000586ADA689968DB6C121A0144C4F83415B3
:105B3000C4F83825DA04BAD5194B5B44D3E8EF1F13
:105B400021F48021C3E8E21F002AF7D1012323605A
:105B5000D4F84431002BAAD00023C4F84431D4F83F
:105B60004431A4E7502303FB0966336993B9530416
:105B7000C4F83485C6E90487C4F8387597D5D4F8D5
:105B8000003243F02003C4F8003290E705488FE765
:105B900005488DE705488BE73CAD00200000AD0BC4
:105BA00088AD00200500AD0B0A00AD0B0B00AD0B5E
:105BB00050232DE9F0414E4D90F80480046803FB1A
:105BC0000853D86CD4F8007200F48220B0F5805FDE
:105BD00005D009B10022DA614648BDE8F081D4F869
:105BE0000463C4F8086309B9BB0652D44FF4A11189
:105BF000D4F8003223F02003C4F80032502303FB12
:105C000008574C37D7E8EF0F0843C7E8EC0FBCF153
:105C1000000FF7D122B903FB08535B68002B63D157
:105C2000354BC4F8083301236360D4F84431002BAA
:105C3000FBD00023C4F84C31D4F84C21C4F8103107
:105C4000D4F81021C4F84431D4F84421502202FB86
:105C50000852D16C11F400411ED1D161204600F0F0
:105C60009BFE502303FB08550023AB602B61D7E854
:105C7000EF3F23F47F0323F47043C7E8E23F002A99
:105C8000F5D126F4202626F404761C48C4F80463D3
:105C9000A3E74FF48031B1E79269C4F84C31D4F8EE
:105CA0004C11C4F834250522C4F83825C4F8103145
:105CB000D4F810310123E362D4F81031002BFBD06B
:105CC0000023C4F81031D4F81031D4F84C210AB1B3
:105CD000D4F83C25502303FB0853DA610023C4F8B1
:105CE0004C31D4F84C31B9E701236360CDE700BFF4
:105CF0003CAD00200500AD0B10020A000000AD0B0A
:105D00002DE9F04103682E4A0579C3F8082343F3CF
:105D10000733002B04460DDB01215A0903F01F0352
:105D2000994002F12003274A42F82310BFF34F8F16
:105D3000BFF36F8F012220461146FFF739FF012183
:105D40002046FFF76BFD2368227950241E49D3F8C3
:105D50000C0504FB0212D46CD3F81485E201D3F8CD
:105D60000865D3F8107509D54FF0FF32C3F80C253C
:105D7000C3F81425C3F80825C3F81025A20115D5CA
:105D8000431C01D0FFF752FBB8F1FF3F02D0404661
:105D9000FFF74CFB200109D57A1C02D03846FFF7EB
:105DA00045FB731C02D03046FFF740FB5023002216
:105DB00003FB0513DA6483F848205A60BDE8F081DC
:105DC00010034A0000E100E03CAD002010B5502473
:105DD00002790E4B04FB02335B689BB90368D3F86E
:105DE0000025082A05D011B1D3F83C350B600848CE
:105DF00010BDD3F810213AB111B1D3F83C350B6086
:105E00000448F5E70448F3E70448F1E73CAD002017
:105E10000C00AD0B0000AD0B0800AD0B0B00AD0B83
:105E20002DE9F34105461646FFF7FAFD184B0446E7
:105E3000984226D10321284695F80480FFF74AFDB1
:105E4000144FB84201D0A0421FD15022124B02FB86
:105E500008335B68ABB90193284601A9FFF7B6FF89
:105E6000B842F9D00D4B98420AD0019BB34207D3F8
:105E700001222846114602B0BDE8F041FFF798BE66
:105E8000074C204602B0BDE8F0810446F9E700BFA8
