:020000040000FA
:10000000204C0020210B0000990B0000990B0000F0
:10001000990B0000990B0000990B0000990B000050
:10002000000000000000000000000000990B00002C
:10003000990B000000000000990B0000990B0000D4
:10004000990B0000990B000000000000990B0000C4
:1000500000000000990B00000000000000000000FC
:10006000990B0000990B0000990B0000990B000000
:10007000990B0000990B0000990B0000990B0000F0
:10008000990B0000990B0000000000000000000028
:10009000990B0000990B0000000000000000000018
:1000A000990B0000990B0000990B0000990B0000C0
:1000B000990B0000990B0000990B0000990B0000B0
:1000C000990B0000990B0000990B0000990B0000A0
:1000D000990B000000000000990B000000000000D8
:1000E000990B000000000000990B0000990B000024
:1000F00000000000990B000000000000990B0000B8
:10010000000000000000000000000000990B00004B
:10011000990B000000000000990B0000990B0000F3
:1001200000000000990B000000000000000000002B
:1001300000000000000000000000000000000000BF
:1001400000000000000000000000000000000000AF
:10015000990B00000348044B834202D0034B03B1C8
:1001600018477047D0040020D00400200000000091
:100170000548064B1B1AD90F01EBA301491002D009
:10018000034B03B118477047D0040020D00400206F
:100190000000000010B5064C237843B9FFF7DAFFE2
:1001A000044B13B10448AFF300800123237010BD4A
:1001B000D004002000000000A46E000008B5044B2D
:1001C0001BB104490448AFF30080BDE80840CFE705
:1001D00000000000D4040020A46E0000A3F5803AC3
:1001E000704700BF174B002B08BF134B9D46FFF70E
:1001F000F5FF00218B460F461348144A121A05F0EA
:10020000E4F80E4B002B00D098470D4B002B00D08C
:1002100098470020002104000D000D48002802D05E
:100220000C48AFF3008005F06DF82000290000F0C5
:1002300037FB05F053F800BF000008000000000085
:1002400000000000204C0020D004002004340020D6
:10025000000000000000000040B1521805D2C06844
:10026000904234BF002001207047002070470000FA
:100270000B4B30B51A6800230A4C9A4203DC06D1B6
:100280004FF0FF3008E01D01655D854205D100207B
:10029000044A02EB03130B6030BD0133EDE700BFEE
:1002A000186300001C630000704700002DE9F3474D
:1002B00016461A4607460D461C46FFF7CDFF002896
:1002C0006FD07B685B689847374BC0F3410013F8E9
:1002D0002090C9F1000303EA050835EA03032BD097
:1002E000D7E9013001225B6901A940449847002801
:1002F00016DB2B19A3EB08034B4538BF22464FF002
:10030000000124BFA9EB05024244A5EB08035FFAF4
:1003100081F8904501F1010105D3A41A7CB90020B0
:1003200002B0BDE8F08708F108006844184410F8EE
:10033000040C06F80800EAE74FF00008EEE77B68D7
:100340004C45B4FBF9FA5B69B8680BD328445246B4
:1003500006EB0801404498470028E1DB09FB1A44FA
:10036000002CDCD0BB680AFB09F91D447B684544BE
:1003700001225B6901A905EB090098470028CFDB42
:1003800000231A464E4403F1080169440133DBB2ED
:1003900011F8041C3244A34202F808101A46F2D3A2
:1003A000BDE74FF0FF30BBE70C6300002DE9F04FD5
:1003B00087B002921A46064689461D4621F0030A76
:1003C00001F00308FFF748FF28B94FF0FF33184644
:1003D00007B0BDE8F08F73680DF1140B5B689847A8
:1003E0005D4BC0F3410053F820305A46009351460C
:1003F00043463046FFF75AFF0028E6D1EB1C434442
:1004000023F00303AAEB09077F1B1A465146304627
:1004100001931F44FFF720FF0028D6D03B4630460B
:1004200004AA09EB0501FFF741FF03460028CCD1E0
:10043000B8F1000F4AD14446AC42C8D2A5EB040A39
:100440003AF0030A00F08480B06871689DF80020DB
:100450004844D1F818B0BAFBF2F202992044039351
:10046000D8470028B1DB039B002FB0D05444A542ED
:1004700060D92246002305A902980133805C042B31
:1004800001F8010B02F1010259D09542F4D1A446C2
:10049000002204A905A8042B01D0BA4252D108F1C8
:1004A0000408042BE04490D1BA428ED1019A42450F
:1004B0008BD1B06871689DF800204844B3FBF2F21C
:1004C0008C69604405A9A047C31780E741460446EC
:1004D00007E0AC4209D0029A125D01340BF801200A
:1004E00001310329F5D9AC4208D1002204A80DF14D
:1004F000140C032915D9BA427FF467AF042903937A
:100500007FF463AFD6E901309DF80020D3F818B02E
:10051000B1FBF2F2504405A9D8470028039B8BDABF
:1005200053E7BA42EAD010F801EB013201F80CE0CF
:100530000131DEE7A4460023A542A9D045E7A44641
:100540001446F9E711F8014B01321C540133A2E7BC
:10055000002F3FF43CAF8CE70C6300002DE9F04125
:1005600005460E469046FFF777FEA8B16B689B6A7A
:1005700098470468074664B10020BDE8F081D5E9DA
:100580000130DB69304498470028F6D1BB681C4431
:100590001E444445F3D3EFE74FF0FF30EDE708B5D5
:1005A00043689B6A9847006908BD000008B501F0E0
:1005B000B5FE10B1024B186808BD024BFBE700BF47
:1005C0002C0400203C25002037B50B4D0C462A6832
:1005D00061B1011D0AD80330042807D8042101AAFB
:1005E00001F09EFE28B12A68019B2360104603B0EB
:1005F00030BD024B1A68F7E72C0400203C25002090
:1006000008B5031D0DD8C31C052B184628BF0520AF
:10061000042B06D801F08CFE003818BF01204042A0
:1006200008BD4FF0FF30FBE71FB5082102AA0220EA
:1006300002F03CF9DDE902020B490C4B9A4208BF7B
:10064000884207D10A4B0B4A00930B490B4B0C48CD
:1006500004F076FF082200210DEB020004F0B5FE45
:1006600005B05DF804FB00BFA9B454B26D6F90A44F
:10067000C36300007C630000AA6300005C630000A9
:10068000B263000007B50421072001AA02F00EF9A9
:1006900020B9019801288CBF0020012003B05DF82B
:1006A00004FB000008B544210C20084A02F09FF921
:1006B00018B14CF25A32904206D1BDE808404421AC
:1006C0000D20034A02F093B908BD00BF2764000063
:1006D0006B6400001FB50421072003AA02F0E6F8AE
:1006E0000446B8B90D4804F02BFF0D4B0D4A00939A
:1006F0000D490E4B0E4804F023FF039B53B902F043
:10070000EDF9044630B9FFF7CDFF044610B902F009
:10071000E7F90446204604B010BD00BFC8630000DE
:10072000C3630000EB630000AA6300005C63000089
:10073000B26300000020704710B50446006830B175
:10074000012805D1201D03F059FC0023236010BDB2
:100750006FF08800F9E770B50D46061D00210446CC
:100760006C22304604F031FE2946304603F058FC36
:1007700008B90123236070BD2AB10368012B04D19D
:10078000043003F079BC104670476FF08800704762
:1007900038B500251D6004460068012808D1201DD9
:1007A00003F07CFC05462046FFF7C6FF284638BD0F
:1007B0006FF08805F7E7000070B5002686B06D463B
:1007C0000B4C442200210B4804F0FFFD0834314655
:1007D0001822684644F8046C04F0F7FD0FCD0FC4EE
:1007E00095E8030084E80300304606B070BD00BF02
:1007F00000040020EC0400207FB50C46154644217F
:100800001A4A0B301E4602F051F848BB4FF42053F1
:1008100041221748C0E90434164BC0E90123C368DC
:100820001B0A20D124F0FF03B3F1062F0CD1099B42
:1008300000950393089BCDE90163234650F8081BFC
:1008400004F0E6F804B070BD24F4FF7424F0010451
:10085000B4F1062F14BF6FF086006FF08500F1E74A
:100860006FF08300EEE76FF08600EBE7EC0400200A
:100870000004002012410001002818BF6FF083001F
:10088000704710B51446184604F078FD039B00200D
:100890001C6010BD7047704770477047704700007C
:1008A0002DE9F3474FF400514F4803F05FFB01F08F
:1008B00063FC01F009FC18B14C4804F041FEFEE76E
:1008C0004B4804F03DFE01F08DFF18B1494804F09B
:1008D00037FEFEE7FFF7D6FE30B1FFF7FBFE18B19B
:1008E000454804F02DFEFEE7FFF79EFEFFF75EFE93
:1008F000424E3368834203D0414804F021FEFEE7B4
:1009000001F0F2FB18B13F4804F01AFEFEE7FFF7D2
:1009100011FF014618B13C4804F012FEFEE73B49C6
:100920003B4804F00DFE012001F0FEFB002839D009
:1009300001242046254601F0F3FB08BBDFF8D480F4
:10094000DFF8D490DFF8D4A00C220021404604F058
:100950003CFD2946404600F05BFD07463368834274
:1009600016D0484604F0ECFD284601F0DFFB60B1EC
:100970003268DAF800309A4207D0FEE70024D8E760
:100980002146274804F0DCFDFEE73368BB42DBD19B
:10099000284601F0C7FB20B12146224804F0D0FDD3
:1009A000FEE724B1002001F0BFFB0028E6D1194D7D
:1009B0001D48A96804F0C4FD1C4804F0C1FD01A94C
:1009C000287900F035F82B681A691C8912F0200F7D
:1009D00005BFAB68019A5B689B181C4401F0E4FBFF
:1009E000204601F083FB00BF3C050020AF640000FF
:1009F000CC640000E8640000116500003C25002084
:100A00002D6500006365000085650000B765000086
:100A1000BF65000030050020146600002C04002093
:100A2000EA6500003A66000065660000976600000F
:100A3000642808B507D001466422044804F080FD0C
:100A40004FF0FF3008BD00200860FBE7C4660000DF
:100A5000012908D002290CD069B978B1012814BF46
:100A6000FF200220704758B1012814BFFF20042046
:100A70007047052070474FF0FF30704701207047E6
:100A80000320704708B543689B6A9847007D08BDFE
:100A90002DE9F341D1F8008006460D46C0B201A908
:100AA0001746FFF7E5FB044688BB2B68CBB103462E
:100AB0004FF48050019AD1682B6009B1434506D3A9
:100AC000434510D93146134804F03AFD09E0B1F529
:100AD000805F0FD24FF480533146D2680E4804F045
:100AE0002FFD4FF0FF340198FFF7DEFB204602B0E8
:100AF000BDE8F0814FEA033C47F833C02B68A1F50D
:100B0000805107EBC30358602B680133D4E74FF0E3
:100B1000FF34EBE729670000ED660000FEE7000008
:100B200008B5174B83F30988164B83F30A8883F3C0
:100B30000B8801F0C7F9144B14498B4212D30020E3
:100B4000134B14498B4218D3FFF74CFB186850F82D
:100B50002240586840F82240013298688242F5D31A
:100B60000C33EAE70022F8E71C6844F8220001325F
:100B70005C68A242F8D30833E4E70022F8E700BF3C
:100B8000204C002020340020E0620000EC620000D5
:100B9000EC620000F4620000FFF7C0FFFEE70346CE
:100BA000402213B5084693F8B810019299B1012973
:100BB00003D0FF2811D001201DE002280DD004220F
:100BC0008242F8D1582404FB013204FB0133126D38
:100BD00003F1540409E001280FD1582404FB013229
:100BE00004FB0133526A03F1280401A9FFF750FF07
:100BF00008B9019B236002B010BD0322E0E738B5BD
:100C000090F8B8300446F3B1012B06D0FF21FFF76E
:100C1000C6FFF8B10125284638BD0221FFF7BFFF06
:100C20000028F7D104212046FFF7B9FF054698B9FF
:100C3000582294F8B83002FB0343186AFFF7AFFC60
:100C4000C4F8B400E7E70121FFF7A9FF0028E1D1CC
:100C50000321E8E7FF21E6E70925DCE737B50C4685
:100C6000002105460091FFF7F3FE6946C0B2FFF789
:100C7000FFFA88B92046009901AA00F0F7FE044661
:100C800020B928460199FFF7BBFC04460098FFF7FE
:100C90000BFB204603B030BD0124F7E770B50023FD
:100CA000582690F8B8200D4602FB06021946044665
:100CB00000F01AFC034660B994F8B820012106FB45
:100CC000024220462C3200F00FFC10B1002D08BF6C
:100CD000002070BD2DE9F043404F89B0044690F8E4
:100CE000B8000E463D68FFF7B3FE06A9C0B2FFF795
:100CF000BFFAF8B994F8B88031464046FFF7A8FE2D
:100D00002C2507A9C0B27543FFF7B2FAB0B14FF076
:100D100058092C2309FB08F103FB061104EB010C15
:100D2000DCF81000069BC2061ED52D4B1D680698E8
:100D3000FFF7BAFA284609B0BDE8F0830798FFF735
:100D4000A1FE81460798FFF7AFFA582394F8B82020
:100D500002FB035323445A1E033312F8011F494573
:100D6000D5D19342F9D1E0E754F801E01D498E4511
:100D700030D1BCF80810DCF80C2089182AD2BCF855
:100D80000AC01CEB010C25D2D9688C4522D240F652
:100D90000C6108401ED14FF4807108FB095201918B
:100DA000CDE9030010490290009194F8B810224454
:100DB00000F08CFE05460D4B1B68AB42B7D05EB110
:100DC00006980021C268FFF7C9FB0949094804F0E9
:100DD000B7FBAAE73D68EEE70749F7E72C040020D8
:100DE000280400203DB8F396402500203C25002033
:100DF0005D6700006767000055670000012303601E
:100E000003F1012343600023C0E9023370474379B3
:100E1000012B07D10368012B04D10079431E5842EE
:100E200058417047002070472DE9F04B0E46904620
:100E300099460024099FDFF844B0BC4201D300204A
:100E40000EE03D1BB5F5806F28BF4FF4806530463E
:100E50002B460A4A04EB0901FFF728FA10B10120DA
:100E6000BDE8F08B08992B465A4640466118FFF7BB
:100E70009DFA0028F3D12C44DFE700BF4026002074
:100E80002DE9F04F4FF0000A04460F46D046DFF838
:100E9000D491DFF8D4B195B0BAF1010F84F8B8A0BD
:100EA00007D9B8F1000F00F05681002058252C26F4
:100EB000D2E004EB0A0393F8B930002B50D1582646
:100EC00006FB0A4009EB4A21416201F58061016598
:100ED000194650460393FFF7BBFD94F8B81005463A
:100EE00006FB0141C0B22031FFF7C2F9039B70B984
:100EF00001215046FFF7ACFD94F8B810054606FBFB
:100F00000141C0B24C31FFF7B3F938B10123009071
:100F100052462946554804F013FBFEE72046FFF7EA
:100F20006EFE054680B900212046FFF7B7FEE8B106
:100F3000584694F8B81004F003FB012294F8B83036
:100F4000234483F8B0200BE04021494804F0F8FA2C
:100F5000012294F8B8309542234483F8B020E2D1BE
:100F600094F8B82001325FFA82FA95E7204600F043
:100F70006BFA0028E1D00AA8FFF740FFFFF747FF10
:100F80000646C0B994F8B83023B900212046FFF7CF
:100F900085FED2E794F8B020042A04BF012284F829
:100FA000B020012BF1D094F8B130042BEDD1012306
:100FB00084F8B130E9E79DF82FA0BAF1010F33D1E1
:100FC00094F8B80000F0C8FC831E022B05460DD82B
:100FD00051462046FFF77EFE264B1B68984205D0FF
:100FE000254B1D68A84214BF0525012594F8B8308B
:100FF000234483F8B05094F8B8306BB1E21892F8FB
:10100000B020012AACD0042A0CD094F8B020042AD5
:1010100002D1012284F8B020234493F8B030023B7F
:10102000022B9DD8B0469BE701212046FFF752FED8
:10103000104B1B68984218BF052294F8B83008BFBF
:101040009DF82F20234483F8B020D4E7231893F889
:10105000B9209AB10130C0B2012884F8B800F5D99E
:1010600079E000BF402A0020276800009267000056
:10107000E26700003C2500202804002093F8B0809F
:1010800008F0FB08B8F1010818BF4FF0010841460D
:10109000FFF7DEFC05A9C0B2FFF7EAF8002873D11C
:1010A00006FB08F194F8B830059A03FB05110123FB
:1010B000214400930EA8402300F032FA8046002815
:1010C00062D100230DF1120206A90EA800F074FAF5
:1010D00000283CDB05985BD1BDF812300C2B55D1B4
:1010E000069907AAFFF7E2F800285AD19DF81C30AC
:1010F000012B59D8E21892F8B0206B43023A022A29
:101100008CBF0022012206FB02332344197D9DF887
:1011100020209142D5D80AD3597D9DF821209142B3
:10112000CFD804D3DA8ABDF822309A42C9D294F8D3
:10113000B8300598234493F8B020012A22D0023A0F
:10114000012A02D8012283F8B020FFF7ADF840F25F
:101150000113A4F8B0300025DFF88CB2012D84F81B
:10116000B85024D90023A14DA14EDFF888820E93F8
:10117000012B84F8B83040F2B1800E9A022A00F0B8
:101180001B81FEE70422DEE70598DEE74FF0030847
:101190000598FFF789F8B8F1000FD8D194F8B80096
:1011A00058E74FF00108F3E74FF00708F0E762193E
:1011B00092F8B930002B40F08C800AA8FFF71EFE91
:1011C00092F8B030042B8DF82F3006D8012B06D8BA
:1011D0003CD0FF2382F8B03038E0052BF8E72946F1
:1011E000854804F0ADF9854804F0AAF907A9C5BB04
:1011F0000120FFF73DF8032000264FF05809B046C4
:101200000EA9FFF735F894F8B83009FB0343D3F87B
:1012100028A0C2452AD132462946584604F090F902
:1012200000232046079A0E9901960093FFF7FCFDD4
:1012300060B9582594F8B80005FB00412C31FFF740
:101240000DFD014620B36E4804F07AF994F8B830E9
:10125000234493F8B030FF2B3BD16A4804F070F977
:10126000FEE70220FFF704F80420C5E794F8B82051
:10127000314609FB0242526A079802EBC8025268E3
:1012800008F101080392FFF769F9039A1644C0E7D1
:1012900094F8B8300E9805FB03431B6D5A68FFF7AE
:1012A0005DF994F8B83005FB0343D3E91423013BFF
:1012B00052F8331002EBC30013684268C91A0E9843
:1012C000FFF74CF90798FEF7EFFF0E98FEF7ECFFDB
:1012D000BCE794F8B8500135EDB23FE7234493F8EA
:1012E000B9208DF81C209DF81C2002F0FF013AB1B6
:1012F0000E9B01330E9394F8B8300133DBB237E71D
:1013000093F8B030012B13D02046FFF7C7FC78B11B
:101310002D68102200210AA804F057F8582600234F
:10132000012B84F8B83032D9284615B0BDE8F08FCB
:1013300000212046FFF7CEFC33688342E8D12A68BB
:101340009A42E5D0D8F800209A42E1D094F8B8004B
:10135000231893F8B030012B09D1582100FB01412B
:10136000FFF77CFC18B1284804F0EAF8D0E75821D0
:1013700094F8B80001FB004319461A6A00F0E4F93A
:101380000028B5D02148EFE784F8B82028E0E2181B
:1013900092F8B9205AB906FB0343D86CFEF784FFD4
:1013A00094F8B83006FB0343186AFEF77DFF94F803
:1013B000B8300133DBB2B3E794F8B93023B194F815
:1013C000BA30002BE0D1012384F8B8301A465823F4
:1013D00003FB0242136A597839719B683A60BB601B
:1013E000034B1D6895E700BFAF6800002C04002088
:1013F0003C25002028040020566800008E6800006C
:10140000FC68000038690000476900008669000038
:1014100038B50A4B012905460C4618680CD802223B
:101420000121074803F0D1FF00230648044484F853
:10143000B9302946FFF724FD38BD00BF2C04002039
:10144000F9320020403200205822F8B590F8B83028
:1014500002FB0300D0F828C0466DBCF1400F01D854
:10146000402E33D91D4804F06BF80020F8BDAC4283
:1014700015D1476A07EBC2077F6801323C44076D0C
:1014800007EBC3077F6801333D446245EFD3B342A6
:10149000EDD3624501D1B3421ED01148E3E70BD230
:1014A000476A022907EBC2077F683C4401D10D4817
:1014B000D9E701210132E8E7076D012907EBC307EE
:1014C0007F683D44F3D002210133DEE700210B4663
:1014D0000A460D460C46D8E70120C7E7B66900006A
:1014E000226A0000E869000013B590F8B8001446BD
:1014F000FFF7AEFA01A9C0B2FEF7BAFE014668B91D
:10150000224620230198FEF7D1FE04460198FEF7FB
:10151000CBFE201E18BF012002B010BD0120FBE74A
:101520002DE9F7430E4617469946044628B94FF071
:10153000FF38404603B0BDE8F0830029F7D0002A09
:10154000F5D0CB680D8938461D44042329460DEBA0
:101550000302FEF7ABFE80460028E8D146F60812EB
:10156000BDF804107389914223D1BDF80610994249
:10157000DDD1042338460DEB03022944FEF796FE25
:101580000028D4D146F60713BDF804209A42CED1E4
:101590009DF82830C4E90067A4F80890A372738905
:1015A000BDF806202B44E3600435134463612561D4
:1015B000BFE7002BE6D0BAE72DE9F7430F46904688
:1015C0001E46044620B94FF0FF3003B0BDE8F0835B
:1015D0000368002BF7D04368002BF4D04FF6FF7957
:1015E000D4E904239A4216D223685B8923B1E368C5
:1015F000934204BF043323610423216960680DEB27
:101600000302FEF753FE0028DDD1A37A256923B13A
:10161000E368AB4201D80120D7E72189BDF8062055
:10162000494502F1040303D0BDF804C08C450BD139
:1016300016B1BDF80410318004353D60A8F80020D3
:1016400022691A442261C0E72B442361C8E748B1EC
:1016500003683BB143682BB1C068884294BF002047
:10166000012070474FF0FF30704700002DE9F7432D
:101670001746002280460C461E4601921BB90320E5
:1016800003B0BDE8F0832D4D297859B94FF480623D
:101690004FF0005003F099FE4FF00053284A1A60B3
:1016A00001232B704FF000535D88DFF898901D44A4
:1016B000A9452BD34FF00059C4F30B0444EA08307A
:1016C0001FFA87F8ADF80400ADF80680B9F80230CB
:1016D00008F1040413FA84F4B4F5803FCFDAA4B21D
:1016E000B4F5806F28D8042228460DEB020103F0E0
:1016F00045FE3A463146281D03F040FEB9F8023057
:10170000002004339844A9F80280B9E7042249462E
:101710000DEB020003F032FEBDF80430B8EB133FCE
:1017200003D1C3F30B039C4204D0BDF8063004334D
:101730009944BDE70220A3E70120A1E7FC32002085
:1017400016200400040000200023F0B5B5B000937B
:1017500005464FF6FF7305A81746FFF7E1FE04465E
:1017600018B14FF0FF3035B0F0BD06460DF10E0355
:1017700003AA04A905A8FFF71FFF0028F1D1BDF8AF
:101780000E30602B0ED1BDF80C30842BE9D83846D2
:10179000049913AAFEF78AFD0028E2D10124BDF8BE
:1017A0000C60E3E7102BE1D1BDF80C30202BD8D82A
:1017B000384604990BAAFEF779FD0028D1D1002CF8
:1017C000CFD01F2ECDD913ABA6F1200004900BA9CA
:1017D0002022184403F0D2FDA901324613AB41F098
:1017E0003F010120FFF742FFBDE703F0B7BD00F066
:1017F00000B8C068183820F0070010387047042877
:1018000009D0052803D1481E18BF01207047431A8C
:101810005842584170470120704738B515460C466C
:1018200061B15AB1FFF72EF92146254411F8013B69
:10183000834203D1A942F9D1012038BD0020FCE741
:1018400038B50C460123114622460546FEF72EFD0B
:1018500000280FDB012221462846FFF7DEFF38B9BA
:101860002378012B14BF022301230020237038BDED
:101870000323FAE70120FAE7C268183A22F00702C8
:10188000FFF7DEBF30B50D46C16887B0102302AA4E
:1018900010390446FEF70AFD002802DA012007B0DD
:1018A00030BD1022204602A9FFF7B7FF00283AD129
:1018B00010221E4902A803F051FD00280CBF01238D
:1018C00002232B702046FFF794FF012301460DF100
:1018D00007022046FEF7EAFC0028DFDB9DF8073010
:1018E000204603F00F021B096A702B7101220DF1D3
:1018F0000701FFF792FF10B96B78042B03D901237E
:101900006B7000232B71E2682046183A22F0070220
:10191000083AA91CFFF794FF0028BFD12046E91C14
:10192000FFF7AAFFBBE70323CBE700BF266B00004E
:1019300013B50C46C0B201A9FEF79AFC50B9214676
:101940000198FFF79FFF04460198FEF7ADFC204683
:1019500002B010BD0124FAE7F0B585B0054669462E
:1019600000284BD0012807D0FF20FFF7E1FF002817
:101970004BD0FF2005B0F0BD0220FFF7D9FF0028B3
:10198000F7D1042002A9FFF7D3FF01283FD1294650
:101990002D4803F0D5FD2D4B029300238DF80C301C
:1019A00000229DF800609DF80870294C314620788F
:1019B000FFF725FF90B339466078FFF720FF68B343
:1019C000A378042B03D09DF80310994226D1E37825
:1019D000042B03D09DF80B1099421FD12379042BBF
:1019E00018D16379022B24D11A4A29461A4803F0E8
:1019F000A7FD6079831E022BBCD9BAE70120FFF74F
:101A000097FF0028B5D10320BCE7FF20BAE70028E4
:101A1000C6D0AEE79DF802109942E2D00132032A07
:101A200004F10604C2D129460C4803F089FD0120C7
:101A3000A0E7032B05D00A4A0A49042B08BF0A462F
:101A4000D3E7094AD1E700BF766A00000301030328
:101A5000146B0000586A0000C46A0000EB6A0000C2
:101A60005D6A00006F6A0000536A000030B50C46E2
:101A7000154601468BB020B31CB312B3438913B98A
:101A800003200BB030BD01232246009304A850234D
:101A9000FFF746FD0028F4D103460DF10A0203A921
:101AA00004A8FFF789FD70B9BDF80A30042BE7D10F
:101AB0002A4620460399FEF7F9FB003818BF01209B
:101AC000DFE70720DDE74FF0FF30DAE72DE9F04FE1
:101AD000CDB003911D46DDE9588A6FF00043002127
:101AE000DFF8DC9114462CA87022CDE906315A9F0C
:101AF000D9F8006003F069FC2CA9702210A803F04B
:101B00003DFC704910A8FEF726FEB8F1000F07D083
:101B1000BAF1000F04DD5246414610A8FEF72CFE34
:101B20004FF0000823896289D4F80CB013449B4419
:101B3000C3455FD8002320222C930DEB02012CAB70
:101B400010A8FEF725FE10A8FEF7F6FD2FB1202203
:101B500038460DEB020103F011FC00232A460093E6
:101B600021464FF6FF7310A8FFF7DAFC074600285E
:101B700050D12846159CFFF73AFE84424AD8B04619
:101B8000039CDFF844A1DFF844B10DF1120304AA6D
:101B900005A910A8FFF710FD00283BDB40F0878067
:101BA000059910A8FFF753FD50B94FF6FF71BDF826
:101BB0001200474A32F8023B8B422BD09842F9D1AF
:101BC000BDF81230102B2FD1BDF81070202F21D16D
:101BD0003B46284605992CAAFEF768FBD0B93A4641
:101BE0002CA908A8FFF701FEDAF80030834211D1D2
:101BF0000127CAE7579BABEB080A9A4528BF9A46CC
:101C0000414653462846569AFEF750FB28B110A885
:101C1000FEF792FD2A4B186846E05246569910A8E6
:101C2000FEF7AAFDD04483E7222B1ED1002C19DB3E
:101C3000DBF80030A34215DDBDF81030802BE9D869
:101C4000284605992CAAFEF731FB0028E2D1202175
:101C5000E4B2BDF8103000942CAA0DEB010000F0A6
:101C600039F880464FF0FF348FE7502B8DD1BDF807
:101C70001030042BCED12846059907AAFEF716FB93
:101C80000028C7D1039806A9FEF79EFCDAF8006089
:101C90008642BFD1DDE906239A427FF676AFD9F8B6
:101CA000000086423FF471AF4DB0BDE8F08F002FC9
:101CB000B0D0054B1B68B342ACD14046F4E700BF3F
:101CC0002C040020090000023C250020C066000012
:101CD000366B00002DE9F0431446894600219BB085
:101CE00080465C2203A89DF88860029103F06DFB9A
:101CF000E57801361F2D04F1040402AF2FD9A5F1B8
:101D000020031C4420222146384603F037FBEB0712
:101D100000D5013D63195A7802351F2A8CBFA2F104
:101D20002003C2F1400004EB050183BFC918202243
:101D30000AA8C01903F022FB40234246CDE90073F4
:101D400030464B460B49FEF757FD80B10A4B1C68E5
:101D50003046FEF731FD20461BB0BDE8F083C5F1EB
:101D600020002A462146384403F008FBD2E7034B03
:101D7000EDE700BF090600062C0400203C250020EA
:101D800004207047002070470020704700487047CB
:101D9000806B000008B500F049F8034B984214BF6F
:101DA0006FF00400002008BD0000AD0B10F0030F21
:101DB00010B514460BD1B0F5801F08D8C0F58013BC
:101DC000B3EB820F03D300F04FF8204610BD6FF045
:101DD0000400FBE70346B3F5801F10B50846144620
:101DE0000BD8C3F58011B1EB840F4FEA820204D304
:101DF000194603F0C3FA204610BD6FF00400FBE75C
:101E00000022034BC3F88425C3F80425704700BFA4
:101E100000900350044AD2F80034DB07FBD5016080
:101E2000BFF35F8F704700BF0090035008B5C0F349
:101E30000B0383B90222094BC3F88425C3F8042598
:101E40004FF0FF320260D3F80024D207FBD5FFF732
:101E5000D7FF034808BD0348FCE700BF00900350CC
:101E60000000AD0B0A00AD0BF8B515460122064681
:101E70000F460024094BC3F88425C3F80425A54266
:101E800003D1BDE8F840FFF7BBBF57F8241006EBBD
:101E90008400FFF7BFFF0134F1E700BF009003505B
:101EA0004FF47F03D3F83021D3F83431072A05D11A
:101EB000023B032B02D8024AD05C704700207047D7
:101EC000A06B000008B5FFF7EBFF58B1644BD3F8E7
:101ED000202A3AB90D21C3F8201A0121C3F81C1990
:101EE000C3F81C290022D30003F57F03D3F80013A5
:101EF000013107D0D3F800130132D3F80433202A7C
:101F00000B60F0D1FFF7CCFF002840F0A080FFF776
:101F1000C7FF40B1534B544AC3F830254FF050230C
:101F20000122C3F858254FF47F03D3F83021D3F8AA
:101F30003431072A09D1023B032B06D84B4AD35C24
:101F40001BB100224A4BC3F84C25FFF7A9FF50B143
:101F50004FF05023D3F80024D10742BF0022C3F82A
:101F60001421C3F818214FF47F03D3F83021D3F89C
:101F70003431072A09D14FF05023D3F80024D20777
:101F800044BF6FF00102C3F80024FFF789FF18B1C6
:101F90006522334BC3F80C274FF47F03D3F830216D
:101FA000D3F83431072A16D1314BD3F82034002B23
:101FB00011DA4FF050230322C3F8182501229A604A
:101FC000D3F80421002AFBD00022C3F80421012207
:101FD000DA60C3F818254FF47F03D3F83021D3F823
:101FE0003431072A23D1023B032B02D8214AD35C88
:101FF000EBB17E221A4B1B49C3F80C27C3F83C29CE
:102000007F231D4AC2F818310023C1F8043EC1F8ED
:10201000083E01F54821C1F81031C2F82431C2F858
:102020002C3102F5FF1202F58052C2F8A032134A99
:10203000D2F88C3043F44063C2F88C30104A114B14
:102040001168C3F84415D269C3F84C2508BD29228C
:10205000034BC3F80C270322C3F83C2757E700BF04
:1020600000400050009003504400EFBE9C6B000005
:1020700000200350986B00000020005000ED00E0AD
:102080000080FF000060005000200449044A521AFA
:10209000043A01DB8850FBE7704700000004002091
:1020A000205C00200746FFF7EFFF002001460246B4
:1020B00003460446054606468046814682468346D8
:1020C000844686463847000008B5054B83F30A88E6
:1020D000044B00209B689847003818BF012008BDBA
:1020E00020340020546B00000020704708B50A4BD4
:1020F0000446DB68984700B1FEE7084B1C6080F39C
:102100000A88226882F30888BFF34F8FBFF36F8F6E
:102110001B685868FFF7C6FF546B000000330020AF
:102120000020704700207047012070470120704751
:102130002DE9F34106460F460C4DD5F82C80C047DB
:1021400010F00104FBD1394630466B69984740B91D
:10215000C047C307FCD42B6A019302B0BDE8F0412D
:102160001847204602B0BDE8F08100BFB06B000008
:1021700008461146FFF7DCBF10B5094C0020A368E4
:1021800098472369022098474FF4E131A46A01205F
:10219000A04701211520A0470122024B1A6010BD63
:1021A000B06B00000433002010B5054C00202369FB
:1021B0009847E36898470022024B1A6010BD00BFA1
:1021C000B06B00000433002037B50422E0308400F7
:1021D0000D4620460DEB020100F046F958B9019B6F
:1021E0005A1C0AD0AB420BD8042220460DEB020148
:1021F000019500F077F903B030BD45F2A350FAE73E
:102200004AF2C530F7E770B5A2B00D4601A90646FF
:1022100000F0EAFA044610BB019B802B28BF802304
:10222000B5EBC30F019321D80146802202A803F029
:10223000CCF8FF21EA0802ABA24213D104F18803D3
:102240000DEB0304012305F00705AB40013B3046CD
:10225000019902AA04F8803C00F0C9FB044620461C
:1022600022B070BD03F8011B0134E5E745F2A35429
:10227000F5E7F0B5A3B00D466946064600F0B4FA9E
:102280000446C8B900993046802928BF802102AA97
:10229000009100F00BFB044670B901460246009F16
:1022A000019002ABB8420AD102B101910422284642
:1022B0000DEB020103F062F8204623B0F0BD0022CE
:1022C00013F801CB4CFA02F6013206F00106082A97
:1022D0003144F7D101220130E4E706281BD8DFE8BA
:1022E00000F004090D111416180004224FF4607058
:1022F00000F0BAB804224FF46170F9E704224FF4F9
:102300006270F5E71020FFF7B4BF1120FBE7122041
:10231000F9E71320F7E74CF25A30704700F0B8B9EC
:10232000042902D11146FFF7D8BF43F65C2070475D
:1023300037B505460C46062824D8DFE800F004151A
:1023400017191D1F21000020FFF73EFF50B9284636
:1023500001A9FFF7C2FF28B943F65C23019AA24204
:1023600018BF184603B030BD0120EDE70220EBE7AF
:102370001020FFF748FFE9E71120FAE71220F8E7FD
:102380001320F6E74CF25A30ECE70000F8B5C0F342
:102390000B0686B920F47F650A4F25F00F05441817
:1023A000AC4201D83046F8BD2846FB69984728B9A9
:1023B00005F58055F4E74AF2C536F3E743F65C26A7
:1023C000F0E700BF546B00002DE9F74FDFF864A081
:1023D0008346DAF804300F46154698470024164B1A
:1023E000C0F3410013F82090DFF8508004F180031F
:1023F000AB4294BF80262E1BB6FBF9F24146DAF8B9
:10240000143004EB0B000192984700280EDB414684
:10241000DAF81830019AE0199847002806DB3444AE
:10242000A542E3D8002003B0BDE8F08F43F65C205E
:10243000F9E700BF546B0000A46B000008330020D4
:1024400008B54FF480514FF47720FFF79FFF48B94C
:10245000BDE808404FF480524FF477214FF47620C6
:10246000FFF7B2BF08BD00002DE9F3471B4D8146C1
:102470006B680F4614469847194BC0F3410013F898
:1024800020A0B9FBFAF60AFB16961EBB6CB1D5F874
:102490001480B4FBFAF509F576292A4639464846F0
:1024A000C047002805DA43F65C26304602B0BDE896
:1024B000F0870AFB05F5641BF7D0012201A909EB9F
:1024C0000500C0470028EEDB224601A9781902F07A
:1024D00055FFEAE74AF2C536E7E700BF546B000054
:1024E000A46B00002DE9F04F861806F6FF7525F461
:1024F0007F6525F00F0585B0B5F5805F0446019135
:1025000004D943F65C2005B0BDE8F08FDFF86C819C
:10251000D8F8043098470422594BC0F3410053F8CF
:102520002070D8F8143057480093FBB2B2FBF3F296
:1025300003A9009B9847039A531C023208BF01234A
:102540000393002D34D024F47F6B2BF00F0BA5EBFD
:102550000B010BF57620FFF719FF0028D3D1B5F555
:10256000637FAA4628BF4FF4637ADA4529D8B5F5C8
:10257000637F5ED3FBB20427B7FBF3F7424D3A46C5
:1025800029464048009B9847B6F5637F5CD80422F3
:1025900003A93D4802F0F2FE384B3A463A493B481F
:1025A0009B69984708B18742ABD1FFF749FFAAE77B
:1025B0004FF480514FF47620FFF7E8FE0028C2D098
:1025C000A1E70BF180039A452CBF4FF08009AAEBDD
:1025D0000B095FFA87F8B9FBF8F82B494246009BD4
:1025E0000BF5772098475E4516D909EB0B039C4203
:1025F00012D2A3455A4638BF2246111BA2EB0B004C
:102600009E4294BFC2EB0602C2EB0302019B194437
:102610001D4B184402F0B2FE184B42469B691A4902
:102620000BF57620984710B180457FF46AAFCB4414
:102630009BE74FF463724FF476214FF47720FFF756
:10264000C3FE002896D05EE7B4F5647F9FD2B4F550
:10265000637F224638BF4FF46372019B111BA2F5C2
:1026600063700B44B6F5647F94BFC2EB0602C2F5FB
:1026700064721946284402F081FE88E7546B00001A
:10268000A46B00008C730F00083300208C630F00D4
:102690002DE9F0414F4F86B00020BB6898470028D5
:1026A0006ED104226946FFF7DFFE0446002875D18B
:1026B00004224FF463700DEB0201FFF7D5FE0446D0
:1026C00000286BD1444D009BAB4203D1019B013BE1
:1026D000033367D97B689847404BC0F3410053F8F8
:1026E000206004224FF4805004A9FFF7BDFE044689
:1026F000002853D1042241F28C3005A9FFF7B4FE23
:10270000044600284AD1049B4FF48051AB424FF459
:10271000762012D1059B013B03330ED8FFF736FE1E
:10272000044600283AD14FF480524FF476214FF4FA
:102730007720FFF749FE044630E0FFF727FE044606
:1027400060BB01468022264802F03FFEF3B280269D
:10275000B6FBF3F6DFF8888004F576203246414672
:10276000BB6980349847B4F5805FF5D3FFF768FE06
:10277000044698B9042202A90295FFF7B3FE10B1EE
:1027800043F65C240AE0012304224FF4637003A99A
:102790000393FFF7A7FE04460028F1D1204606B0B8
:1027A000BDE8F081042241F28C3005A9FFF75CFE00
:1027B00004460028F2D1059B5A1E033206D8019A1E
:1027C000934203D30233E9D1012AE7D1FFF738FE60
:1027D000B1E700BF546B00001281DEC0A46B0000A3
:1027E00008330020FFF754BF07280ED80123834089
:1027F00013F0650F40D113F0980F3FD14CF25A30CF
:102800007047442300200B60704708381628F5D81D
:102810001628F3D801A353F820F000BF7928000050
:10282000792800007928000079280000032800009A
:10283000032800000328000003280000812800006E
:10284000812800008128000081280000FD27000069
:10285000FD270000FD270000FD270000FD270000E8
:10286000FD270000FD270000FD270000FD270000D8
:1028700081280000792800002023C3E70423C1E752
:102880004023BFE737B50C4601A91D46FFF7ACFF53
:1028900050B9019B29469A4228BF1A46204603B0E8
:1028A000BDE83040FFF7E0BD03B030BD13461E2841
:1028B00070D8DFE800F0106F15191D2125292D3182
:1028C00035393D42474C51565B606F6F6F6F6F6F8C
:1028D0006F6F6F656A000A4600200421FFF7D2BFC0
:1028E0000A4602202421F9E70A4603204421F5E79D
:1028F0000A4604204821F1E70A4605204C21EDE76D
:102900000A4606206C21E9E70A4607208C21E5E704
:102910000A4608209021E1E70A460920B021DDE7B8
:102920000A460A20D021D9E70A460B20F021D5E734
:102930000A460C204FF48871D0E70A460D204FF468
:10294000AA71CBE70A460E204FF42671C6E70A4665
:102950000F204FF43771C1E70A4610204FF4CC71B5
:10296000BCE70A4611204FF4EC71B7E70A46122083
:102970004FF40671B2E70A4613204FF41671ADE723
:102980000A461D204FF44871A8E70A461E204FF45E
:102990005871A3E74CF25A307047F0B593B00E4629
:1029A000694615461C46FFF71FFF20B9009B93425E
:1029B00003D24AF2C53013B0F0BD442BF9D83046EB
:1029C00001A9FFF751FD0028F5D1224601AB2819D6
:1029D000824205D12A4621463046FFF783FDEAE7C9
:1029E00013F8011B12F8017BB943F1D0E1E713465C
:1029F0001E2870D8DFE800F0106F15191D21252959
:102A00002D3135393D42474C51565B606F6F6F6FCA
:102A10006F6F6F6F6F656A000A4600200421FFF731
:102A2000BCBF0A4602202421F9E70A4603204421BC
:102A3000F5E70A4604204821F1E70A4605204C2123
:102A4000EDE70A4606206C21E9E70A4607208C21BB
:102A5000E5E70A4608209021E1E70A460920B0216F
:102A6000DDE70A460A20D021D9E70A460B20F021EB
:102A7000D5E70A460C204FF48871D0E70A460D20AE
:102A80004FF4AA71CBE70A460E204FF42671C6E731
:102A90000A460F204FF43771C1E70A4610204FF461
:102AA000CC71BCE70A4611204FF4EC71B7E70A4637
:102AB00012204FF40671B2E70A4613204FF4167144
:102AC000ADE70A461D204FF44871A8E70A461E20CC
:102AD0004FF45871A3E74CF25A307047002070470A
:102AE00000207047064B82B01868002382B262F360
:102AF0000F03000C60F31F43184602B0704700BF7D
:102B0000F86B0000012070476FF00300704700234E
:102B100082B00193019802B070476FF003007047D4
:102B2000002382B00193019802B07047022814BFBD
:102B30006FF0030000207047014B1869704700BF19
:102B400034040020014B5869704700BF3404002052
:102B500010B5044C204600F0D5FF002084F8240076
:102B600010BD00BF3404002038B50C4D0C4695F85C
:102B7000243013B94FF0FF3038BD0A4601462846CD
:102B800001F050F8064B984205D00B3B9842F1D12A
:102B900000206C61F0E76FF00100EDE734040020E5
:102BA0000B00AD0BF0B51B4E054696F824300C46D5
:102BB00091B01BB94FF0FF3011B0F0BD00F0604391
:102BC000B3F1005F21D100230A460146304600F0F0
:102BD000BBFC114B98421AD00B3B9842EAD13461AE
:102BE00011E0A71B402F28BF4027A9193A46684685
:102BF00002F0C4FB39466846FFF7D4FF0028DBD15A
:102C00004036B442EDD80020D6E70026F9E76FF051
:102C10000100D1E7340400200B00AD0BFFF7C2BF69
:102C2000C3B2012B30B540F0A2804DF6C0239942CB
:102C300076D028D8B1F5615F75D011D8B1F5965F1F
:102C400073D008D8B1F5966F71D0B1F5166F71D009
:102C50006FF0070063E0B1F5165FF9D14B4B33E03D
:102C600047F61223994268D007D8B1F5964F67D03E
:102C7000B1F5E14FECD1464B26E0B1F5164FE7D167
:102C80004FF41D0320E0434B99425BD011D8B1F5BE
:102C9000E13F5AD007D8B1F5614F59D0B1F5963F11
:102CA000D6D13D4B10E0B1F5613FD1D14FF06C73FF
:102CB0000AE0B1F5612F4ED0384B99424ED0B1F5B4
:102CC000E12FC5D14FF0E86310F4E06F52D110F45A
:102CD000404403D0B4F5804F4FD11024304900F464
:102CE0004052B2F5805F8D8B3BD0B2F5005F3BD098
:102CF000002A45D110F4403003D0B0F5403F42D116
:102D000001204A7622432A430876024300200B62C0
:102D10008C768D830968C1F82435C1F86C2530BDE7
:102D20004FF46503D0E71F4BCEE71F4BCCE74FF4C2
:102D30009E23C9E74FF41D23C6E74FF40003C3E702
:102D40001A4BC1E74FF08063BEE74FF0EB73BBE770
:102D50004FF46B03B8E74FF07063B5E74FF0805363
:102D6000B2E700250E22C5E74FF48075FAE76FF051
:102D70000300D4E76FF00800D1E76FF00A00CEE758
:102D80006FF00900CBE76FF00B00C8E70050270099
:102D900000C0750090D0030000903A0140420F003F
:102DA0003404002000F03A0000B0130000A04E00F0
:102DB00030B501EB8202914200D130BD51F8044B95
:102DC00004F07F037F2B4FEA144408BF4FF0FF331A
:102DD000032CF0D8DFE804F0020406080360EAE7F9
:102DE0004360E8E78360E6E7C360E4E710B58EB0D0
:102DF0002822002104A802F0E8FA4FF0FF33CDE9C1
:102E00000033CDE902334FF0EB7368460A93072392
:102E1000104C8DF83530D4E90212FFF7C9FF014696
:102E20000022204600F0E2FA0B4B98420ED1DDE979
:102E30000B0100230A9AA061226201221846C4E90C
:102E40000433A18384F824200EB010BD6FF001007C
:102E5000FAE700BF340400200000AD0B036803F064
:102E60001F025B09026004D0012B034818BF002039
:102E700070470248704700BF0028845000258450E6
:102E80000346D0F8580130B931B9D3F820010038E1
:102E900018BF012070470120704730B504460D4629
:102EA00085B010220021684602F08FFAD4E90013A1
:102EB00068468DF80050984705B030BD7FB5044690
:102EC0000E46154600211022684602F07EFA0123C4
:102ED00068468DF80030CDE90165D4E900139847C4
:102EE00004B070BD10B5044600F0DEFED4F85831D1
:102EF00033B1D4F8043313F4800308BFC4F80035A9
:102F0000BDE8104000F0D8BE7FB500250C46C0F8E3
:102F100008511646D0F80821D0F8002222F02002ED
:102F2000C0F80022104AC0F80823FFF7DBFFA560B5
:102F3000256104F14C03D3E8EF1F21F47F0121F454
:102F40007041C3E8E21F002AF5D1102229466846E5
:102F500002F03BFA042368468DF800300196D4E96C
:102F60000013984704B070BD10020A00044B054AD4
:102F70001B68B3FBF2F35843034B43F001031847BC
:102F80003004002040420F00006C000007B50190A3
:102F900001A8FFF763FF019B00EB8300D0F800223C
:102FA000034B1340C0F8003203B05DF804FB00BFD0
:102FB000F0F0FCFFD0F8583133B1CB6CC3F30032E2
:102FC000DB0458BFC0F80025704700002DE9F04F22
:102FD000804690F804A05020664F0E4600FB0A7011
:102FE000416885B049B113F0020304D0836B002B14
:102FF00000F0B2800123009300E000914FF05009EF
:1030000009FB0A73DB6CD90600F1A6804FF0010BB7
:10301000B3180293029BB34200F0A78006F060430E
:10302000039398F80450D8F8004009FB05739A6B95
:103030009AB9039BB3F1005F40F09980019200F0D0
:1030400033FE09FB0572D16C204601F00101FFF748
:1030500017FF28B900F030FEE3E701230193EEE704
:10306000516C33460029BCBFD4F84C155164019A09
:1030700042B109FB05713078D1E90E23D054D1E972
:103080000E3213441BB1C4F84435C4F848B50022CD
:10309000C4F82021D4F82011C4F85821D4F85811CC
:1030A000C4F85021D4F850210822C4F80025009A11
:1030B000E2B14FF48003C4F80433C4F808B000F060
:1030C000FBFD502303FB0A72516800294BD1D26CDF
:1030D000120748D503FB0A734C33D3E8EF1F21F0E6
:1030E0000801C3E8E21F002A36D0F6E7C4F808B0AA
:1030F000019300F0E1FD09FB0572D16C019B01F029
:10310000010120460193FFF7BBFE8446019BD4F8E2
:103110004C05D4F84425BCF1000F0DD19342F0D0FA
:1031200005EB850507EB0515D1B100F0BDFD29467E
:103130002046FFF73FFFC2E705EB8505934207EB0B
:103140000515F1D10028EFD100F0AEFD294620464B
:10315000FFF730FF00F0B0FD074805B0BDE8F08F85
:10316000C4F80CB0E1E7013654E70448F5E7044839
:10317000F3E700BF883300200800AD0B0000AD0B63
:103180000400AD0B07B5019001A8FFF767FE019B96
:1031900000EB8300D0F80022044B134043F00303FC
:1031A000C0F8003203B05DF804FB00BFF0F0FCFF94
:1031B00007B5019001A8FFF751FE019B00EB8300CA
:1031C000D0F80022044B134043F00203C0F8003251
:1031D00003B05DF804FB00BFF0F0FCFF70B5CE6CEF
:1031E0000D4606F001010446FFF74AFE38B94FF4D8
:1031F000800346F00406EE64C4F8043370BDD5E9DC
:103200000A365AB1296CEA6B761A964228BF1646DE
:1032100019443246A86B02F0B1F8AB6B4FF0FF32A5
:103220006A641BB1C4F84435C4F848650023C4F887
:103230002031D4F82021C4F85831D4F85821C4F8EA
:103240005031D4F850310823C4F800354FF48003CE
:10325000C4F804330123A360D0E700002DE9F3474D
:103260000C4694F83330054690F804800968002B2A
:1032700036D150235A4F03FB0873DE6C46F00072C0
:10328000DA644A1C0AD001A80191FFF7E7FD012387
:10329000019A934083600846FFF774FF6068431CFF
:1032A00001D0FFF773FE94F82C30012B18D1502376
:1032B00003FB0873E06846F02066421CDE6401D020
:1032C000FFF764FEA668731C0AD001A80196FFF7F9
:1032D000C5FD0123019A934083603046FFF752FFFA
:1032E00094F832703FB950223D4B02FB0833DA6C40
:1032F00042F08072DA6494F82C6094F82D0094F80F
:103300002E90228E2B68D4F828A0324340EA090080
:103310000243D4F80CC0D4E9018EC3F824A5C3F845
:103320006C254FB9012EC3F80C15C3F8148504BFE2
:10333000C3F808E5C3F810C5D3F8682503F264574D
:10334000012A08BFDA60D3F86425012A0FD10821C9
:1033500049F64046C3F800155A603B68A3BB2B688A
:10336000D3F88024C3F880240022C3F8002500216C
:103370002B6894F83520C3F81011D3F81001C3F866
:103380002011D3F82001C3F82411D3F82401C3F885
:103390004411D3F84401C3F85811D3F8581143F33A
:1033A00007335201002BD2B214DB0E49C81880F843
:1033B00000230122580903F01F0302FA03F341F826
:1033C000203002B0BDE8F0870120FFF7CFFD013EBD
:1033D000C3D1C4E7044903F00F03CA54F1E700BFA7
:1033E0008833002000E100E014ED00E02DE9F34710
:1033F0009046502290F804904E4C02FB09FA04EBE0
:103400000A070D4697F84810064600297ED109EBB9
:10341000890004EB001001F0D8FF2B69AA6944F879
:103420000A306B69BB6302B1013A502303FB0943C5
:10343000DA632A6A042A81BFEA699A610022DA61A2
:1034400095F83430B8F1000F34D083F001073F0213
:1034500033B1502303FB0943DA6C42F00102DA6412
:10346000502303FB09440123C4F8048084F8483046
:103470003468D4F84C21FAB929463046FFF7EEFEFD
:103480000822002334688DF80730C4F800250DF1B8
:103490000702C4F84425C4F8483501230A25A3606F
:1034A000E360D4F858319BBB0120FFF75FFD013D7D
:1034B000F7D125E04746CBE708224FF06409C4F86E
:1034C00000256360D4F84431F3B9D4F82431DBB972
:1034D0000A20FFF74BFDB9F10109F3D14B46002259
:1034E000C4F84C21D4F84C11C4F81021D4F81011B0
:1034F000C4F84421D4F84411C4F80025002BBBD1F2
:103500000D4802B0BDE8F0870123E8E70B48F8E773
:103510000023C4F820319845D4F82021C4F80035A0
:10352000074B08BF00231F4333680648C3F80473E2
:10353000E7E700BF883300200100AD0B0C00AD0BA6
:1035400010020A000000AD0B2DE9F04784460F463B
:103550009E4616460579002A51D04FF0500ADFF8F2
:10356000AC80D0F800900AFB058ADAF8044074B900
:103570006BB9DAF82C50002D43D1CAF82C20FFF794
:1035800025FD0446CAF82C502046BDE8F0871EF001
:10359000030F07D0734632463946BDE8F047604610
:1035A000FFF714BD07F06043B3F1005F4FF0500424
:1035B00014D104FB058400F077FBE26A1AB1144CC5
:1035C00000F07AFBE0E7C4E90A7605EB850548469A
:1035D00008EB0511FFF702FE0E4CF1E704FB058432
:1035E000A36B83B100F060FBE36A002BE7D1E36CCF
:1035F000012243F00203C4E90A76E364E5E7064CDE
:10360000C2E7034CC0E7054CBEE700BF883300208B
:103610000B00AD0B0000AD0B0600AD0B0A00AD0BAF
:103620002DE9F84350230679284D046803FB06531F
:10363000D4F80473DA6AC4F8087322B92448C4F8C9
:103640000473BDE8F88306EB860005F14C024FEAEF
:10365000001802EB0012D2E8EFCF4CF0080CC2E8E1
:10366000E0CF0028F7D10122E26031B3D96C01EA42
:10367000020949462046FFF703FC0028FAD000F073
:1036800013FBB9F1000F1CD1D4F8203153B1012341
:10369000E360D4F85831002BFBD0204605EB08013D
:1036A000FFF788FC00F008FB0023C4F82031D4F8B1
:1036B0002021502202FB0655EB620648C4F8047331
:1036C000BFE7D4F85831002BE7D1EBE7883300206F
:1036D0000500AD0B0000AD0B2DE9F84390F8048018
:1036E0004A4E08EB88073F0107F14C050468354452
:1036F000D5E8EF3F43F48052C5E8E02F0028F7D12A
:10370000DA047FD44B0705D5502303FB08639B697C
:10371000002B79D03E4B3744C4F808330823C4F853
:1037200000350023C4F81031D4F81021C4F84C310E
:10373000D4F84C21C4F844310A03D4F844318B0343
:1037400003F4804302F400524903134301F400419F
:103750000B43D5E8EF2F1A43C5E8E12F0029F8D134
:103760004FF0500909FB0869D9F80830EBB9D9F8CE
:10377000043093B9502303FB0863DB6CD8043FD5B6
:10378000D5E8EF3F23F47F0323F47043C5E8E23F1D
:10379000002AF5D11F48BDE8F88303213846FFF71A
:1037A0007CFBD9F80830002BE4D0D4F80433590757
:1037B00013D5502303FB08635A6872B1DB6C1A03FC
:1037C0000BD5D5E8EF3F23F40023C5E8E23F002AFC
:1037D000F7D106213846FFF760FB502303FB08634F
:1037E000DB6CDB040CD5D4F84C310BB9012323601E
:1037F000502303FB0866736813B1054BC4F8043308
:103800000548C8E70548C6E70548C4E788330020EF
:1038100010020A000200AD0B0000AD0B0B00AD0B57
:103820000800AD0B2DE9F84F502390F804905B4E43
:10383000046803FB09631746DA6CD4F804A3500349
:103840008846C4F808A300F1A38001F06041B1F1FB
:10385000005F40F09F80996859B15B68002B40F091
:103860008380D4F8101100297ED0C4F81031D4F828
:103870001031502505FB0965EA6909EB890BC5E99B
:1038800002874FEA0B1B002A49D0974235D84FF0E8
:1038900000093A46A9694046C5E9029901F06EFD62
:1038A000EA69A869D21BC119EA6101F074FD6B686D
:1038B00023B93B48C4F804A3BDE8F88FEB6C5E4421
:1038C000990414D5374B5B44D3E8EF1F41F48021B2
:1038D000C3E8E21F002AF7D13A4641463046FFF7D7
:1038E000EDFA4A4631462046FFF70EFBE1E73A463D
:1038F00041463046FFF7E2FADBE74046A96901F0AE
:103900003DFDEB696B620023EB61264B5B44D3E822
:10391000EF1F41F40021C3E8E21F002AF7D1502332
:1039200003FB0963586ADA689968DB6C121A014470
:10393000C4F83415C4F83825DA04BAD5194B5B44F9
:10394000D3E8EF1F21F48021C3E8E21F002AF7D15A
:1039500001232360D4F84431002BAAD00023C4F8FB
:103960004431D4F84431A4E7502303FB096633699A
:1039700093B95304C4F83485C6E90487C4F838758C
:1039800097D5D4F8003243F02003C4F8003290E712
:1039900005488FE705488DE705488BE78833002009
:1039A0000000AD0BD43300200500AD0B0A00AD0BB9
:1039B0000B00AD0B50232DE9F0414E4D90F80480E3
:1039C000046803FB0853D86CD4F8007200F482201A
:1039D000B0F5805F05D009B10022DA614648BDE844
:1039E000F081D4F80463C4F8086309B9BB0652D463
:1039F0004FF4A111D4F8003223F02003C4F80032B0
:103A0000502303FB08574C37D7E8EF0F0843C7E8AC
:103A1000EC0FBCF1000FF7D122B903FB08535B6830
:103A2000002B63D1354BC4F8083301236360D4F80D
:103A30004431002BFBD00023C4F84C31D4F84C2186
:103A4000C4F81031D4F81021C4F84431D4F844211A
:103A5000502202FB0852D16C11F400411ED1D161F9
:103A60002046FFF73FFA502303FB08550023AB60C5
:103A70002B61D7E8EF3F23F47F0323F47043C7E8BB
:103A8000E23F002AF5D126F4202626F404761C48CD
:103A9000C4F80463A3E74FF48031B1E79269C4F836
:103AA0004C31D4F84C11C4F834250522C4F838251B
:103AB000C4F81031D4F810310123E362D4F8103186
:103AC000002BFBD00023C4F81031D4F81031D4F807
:103AD0004C210AB1D4F83C25502303FB0853DA618A
:103AE0000023C4F84C31D4F84C31B9E701236360AA
:103AF000CDE700BF883300200500AD0B10020A009F
:103B00000000AD0B2DE9F04103682E4A0579C3F89A
:103B1000082343F30733002B04460DDB01215A0928
:103B200003F01F03994002F12003274A42F82310B3
:103B3000BFF34F8FBFF36F8F012220461146FFF76F
:103B400039FF01212046FFF76BFD236822795024BD
:103B50001E49D3F80C0504FB0212D46CD3F814856B
:103B6000E201D3F80865D3F8107509D54FF0FF329C
:103B7000C3F80C25C3F81425C3F80825C3F810258D
:103B8000A20115D5431C01D0FFF712FBB8F1FF3F8E
:103B900002D04046FFF70CFB200109D57A1C02D069
:103BA0003846FFF705FB731C02D03046FFF700FBD9
:103BB0005023002203FB0513DA6483F848205A607F
:103BC000BDE8F08110034A0000E100E088330020E6
:103BD00010B5502402790E4B04FB02335B689BB98D
:103BE0000368D3F80025082A05D011B1D3F83C3575
:103BF0000B60084810BDD3F810213AB111B1D3F8C9
:103C00003C350B600448F5E70448F3E70448F1E766
:103C1000883300200C00AD0B0000AD0B0800AD0B8D
:103C20000B00AD0B2DE9F34105461646FFF7FAFDF3
:103C3000184B0446984226D10321284695F8048063
:103C4000FFF74AFD144FB84201D0A0421FD15022C5
:103C5000124B02FB08335B68ABB90193284601A9FC
:103C6000FFF7B6FFB842F9D00D4B98420AD0019B3E
:103C7000B34207D301222846114602B0BDE8F04105
:103C8000FFF798BE074C204602B0BDE8F08104461D
:103C9000F9E700BF0000AD0B0B00AD0B883300202F
:103CA0000C00AD0B0800AD0B72B6024A136801336D
:103CB00013607047D8330020034A1368013B136038
:103CC00003B962B6704700BFD833002001680E4ABE
:103CD0000346914215D1C169A2F11022A2F1EF125F
:103CE00091420ED18268012A0BD8C26812B10169D3
:103CF0008A4206D0586928B19B691B1A584258411C
:103D000070470120704700BF55AA00FF0D4B70B5EA
:103D10009E68A6B13046FFF7D9FF044678B9F3682C
:103D20006BB935690DB9204670BD2846FFF7CEFF47
:103D300028B9EB68B34202D12E462D69F2E701247F
:103D4000F1E700BFDC3300202DE9F843404F3C6829
:103D5000D4B1BC68C4B100284DD000294BD001FBC0
:103D600000F5B5FBF0F0884245D1281D43D8A907DE
:103D70000DD025F003060436FC6803E06368B34207
:103D80003BD2A469002CF9D12046BDE8F8832E4629
:103D9000F2E7F86044E006F1200C04EB0C03203954
:103DA00059600021DFF8ACE0C3E902142169196110
:103DB00044F80CE0DFF8A0C0C3F81CC001B1CB6030
:103DC000C3E90520AAB193619A6902B153612361E5
:103DD00000234FF00109C4E905333B69C4E90169D7
:103DE000DB072DD5FFF792FF50B31C4B48461B68ED
:103DF00025E0FB60E8E70024C6E7A3681BB1174B8A
:103E000001201B689847D4E90520616804F1200867
:103E1000891B2329BFD80123A360002AB9D0906150
:103E2000A36903B15A610023C4E905333B69DA078A
:103E300006D5FFF76BFF18B10120084B1B689847A8
:103E40002A4600214046444601F0BFFA9CE700BFE5
:103E5000DC33002055AA00FF669911EE5C040020B7
:103E60002DE9F041054600287AD03E4E3368002BFC
:103E700076D0B268002A73D0834203D872681344A4
:103E8000984203D3384B01201B689847A5F12004C2
:103E90002046FFF71BFF18B1334B01201B689847E2
:103EA00055F8183C012B03D02F4B01201B68984775
:103EB00055E90570002345F8183C07B3BB68F3B912
:103EC00055F81C2C7B68203213447B60386100B1AC
:103ED000C76020220021204601F077FA386908B136
:103EE000836853B333699B073AD5FFF70FFF002868
:103EF00036D0BDE8F0411C4B01201B68184740B389
:103F0000836833BB4268636813442033636003698A
:103F1000D4E90521236192B9B9B942698169626125
:103F2000A161A2B19461A26902B1546103B1DC60E4
:103F30002022002101F049FAD4E73C46E2E79161F2
:103F4000A1690029E9D04A61E7E7F160F8E7F46088
:103F5000E9E7F36845F8083C03B15C61F460C1E748
:103F6000BDE8F081DC3300205C04002038B50D464C
:103F7000142200210446124801F027FA1149124880
:103F800000F026F8232D1AD914F003031FBF043DB7
:103F9000ED18C3F10403E4182A460021204601F07D
:103FA00014FA074B094AC3E900459C602260A2F15C
:103FB0001022203DA2F1EF126560E261DC6038BDA5
:103FC000DC330020613E0000493D000055AA00FF9F
:103FD000024B1860024B00201960704764040020F7
:103FE0006004002010B50A46044619B1024B0021B6
:103FF0001B68984710BD00BF68040020036810B517
:1040000004462BB1054A934205D1043000F08EF8E6
:104010000020206010BD6FF08800FBE7090000025F
:10402000F8B5076805460C4607BB124B994213D1F9
:10403000061D304600F076F83046394600F07CF830
:10404000064628B92C603046BDE8F840FCF714BCA1
:104050002846FFF7D3FFF6E701F0FE44B4F1007FF6
:1040600014BF6FF086006FF08500F8BD6FF0880018
:10407000FBE700BF0900000210B5074B04689C4233
:1040800006D1043000F0E4FBBDE81040FCF7F4BBBF
:104090006FF0880010BD00BF090000022DE9F0415B
:1040A00005781E461C4B45F000759D420746884624
:1040B000144605D1326052BB6FF08900BDE8F08133
:1040C00005F17E45043D0F2D15D9326072B90025EA
:1040D0003A68124B9A421CD14146381D00F0F7FB5A
:1040E000FCF7CAFB0028E9D13560E7E7212140460B
:1040F00001F06BF9EBE70A4B32605D5D22B12246BD
:104100002121404601F061F9AC42E1D2D4E710250B
:10411000F5E76FF08800D1E7030000020900000214
:10412000066C00006822002101F04FB910B168212F
:10413000FFF758BF7047000003460846C1B9C3E9FE
:1041400010110D4A0D49DFF838C0C3E912120D4AAB
:104150000D49C3E914C20D4AC3E916120C4A1A6686
:1041600002F17452A2F52302A2F692425A667047F7
:104170006FF07300704700BF85AE67BB67E6096AE2
:1041800072F36E3C3AF54FA57F520E518C68059B39
:10419000ABD9831F2DE9F04F0D46D5B000F1440394
:1041A00004934BAB059300F164030693DDE90432FD
:1041B00053F8041F42F8041F06999942F8D10024CD
:1041C0000BAE2919042209A801F0D8F8099B043480
:1041D0001BBA402C46F8043FF3D198490DF1280A48
:1041E0005546DDE951EBDDE94C76DDE94E328C4692
:1041F000DDF84C81DDF840910191A868DCF80010F1
:104200004FEAF92484EAB91401448BEA0E0084EAE7
:10421000796400EA090080EA0B002144014441442A
:104220004FEA773888EAB70888EAB7580A448844DA
:1042300047EA060107EA0600194001438844E86896
:10424000DCF804104FEA7834014489EA0E0010408B
:1042500080EA0E00594401444FEAF22080EAB2108D
:1042600080EA726084EAB804014484EAB8540B44DA
:104270000C4448EA070108EA0700314001430C44B6
:104280002869DCF808102035014482EA090018404A
:1042900080EA0900714401444FEAF32080EAB31038
:1042A00080EA736001444FEA743080EAB40080EA27
:1042B000B45001EB060E084448EA040108EA04067B
:1042C00039403143084455F80C6CDCF80C100CF103
:1042D000200C0E444E4482EA030909EA0E094FEA13
:1042E000FE2189EA020981EABE1181EA7E614E441B
:1042F0000E444FEA703181EAB00181EAB05106EB19
:104300000709314444EA000604EA000706EA080601
:104310003E43314455F8087C5CF8106C3E4416442A
:1043200083EA0E0202EA09025A4016444FEAF922D1
:1043300082EAB91282EA796216444FEA713282EA5D
:10434000B10282EAB152B044324440EA010600EAC6
:10435000010726403E43324455F8047C5CF80C6C5F
:104360003E441E448EEA090303EA080383EA0E036F
:104370001E444FEAF82383EAB81383EA78631E44A5
:104380004FEA723383EAB20304EB060B83EAB253BB
:1043900041EA02043344044001EA02063443234460
:1043A0002E685CF8084C344489EA080606EA0B06D5
:1043B00086EA0906744434444FEAFB2686EABB16B3
:1043C00086EA7B66344400EB040E4FEA733080EAE1
:1043D000B30080EAB350204442EA03040C4002EAEE
:1043E0000306344306196C685CF8040C204488EA20
:1043F0000B0404EA0E04484484EA080420444FEA0B
:10440000FE2484EABE1484EA7E64204401EB0009A1
:104410004FEA763181EAB60181EAB651014443EAB6
:104420000600104003EA060420430F181AA9A94207
:104430007FF4E3AE3AA9079102E000BF186C0000D8
:10444000DAF84010DAF80C404FEAF14585EA714598
:10445000DAF8080085EA9125DAF82C100AF1200A2A
:1044600001444FEAB44080EAF41080EAD4002944C1
:10447000014403918BEA0E004FEAF92181EAB91158
:1044800000EA090081EA796180EA0B000844019999
:1044900007EA0605096C08440399084440440244AD
:1044A0000292CAF8281047EA06024FEA773181EAF9
:1044B000B7011A402A4381EAB7511144DAF824209F
:1044C00001444FEAF24585EA72455AF8100C85EA34
:1044D0009225DAF81020DDF808C014444FEAB04203
:1044E00082EAF01282EAD0022C441444029A89EA49
:1044F0000E051540019A85EA0E05526CCAF82C404B
:104500005A4422441544029A4FEAF22282EABC122B
:1045100082EA7C622A4403EB020B47EA01054FEA78
:10452000713307EA010C83EAB103354045EA0C0513
:1045300083EAB1532B441344039A5AF80CCC4FEA44
:10454000F24585EA724585EA9225DAF8142000EBF7
:1045500002084FEABC4282EAFC1282EADC02A8446A
:104560009044029A4FEA733589EA0200019A00EA00
:104570000B00926C80EA09007244424410444FEAF6
:10458000FB2282EABB1282EA7B62024441EA030018
:1045900006EB020E85EAB30501EA03063840304314
:1045A00085EAB355054415445AF8086CDAF8182022
:1045B0004FEAF44080EA744080EA94200CEB020455
:1045C0004FEAB64282EAF61282EAD6020444144462
:1045D000029A03EA050C82EA0B0000EA0E00504042
:1045E000019ACAF83080D26CCAF834404A44224456
:1045F00010444FEAFE2282EABE1282EA7E62024440
:1046000007EB02094FEA753043EA050780EAB50077
:104610000F4047EA0C0780EAB550384410445AF876
:10462000047CDAF81C204FEAF84C8CEA784C1644EB
:104630004FEAB7428CEA982C82EAF71282EAD70254
:1046400066441644019ADDF80880126D8BEA0E0C60
:104650000CEA090C32448CEA0B0C424462444FEAE7
:10466000F92C8CEAB91C8CEA796C94444FEA7032CC
:1046700082EAB00201EB0C0882EAB05245EA00017E
:104680000292194005EA00021143029ACAF8386002
:104690000A444FEAF44181EA744181EA9421DAF84C
:1046A00020406244DAF800C03C440C444FEABC416C
:1046B00081EAFC1181EADC010C4401998EEA0907C8
:1046C000496D07EA08072144594487EA0E070F4459
:1046D0004FEAF82181EAB81181EA7861394403EBA5
:1046E000010B4FEA723383EAB20383EAB25340EA22
:1046F000020702932F4000EA02031F43029BCAF8FD
:104700003C403B440B444FEAF64181EA764181EA62
:104710009621DAF82460DAF80470664431444FEAEE
:10472000B74686EAF71686EAD70631440291019920
:10473000DDF808C0896D89EA0806614406EA0B06BF
:10474000714486EA09060E444FEAFB2181EABB1157
:1047500081EA7B61314405EB010E42EA03064FEA30
:104760007335CAF840C0064002EA030C85EAB30577
:1047700046EA0C0685EAB35535446E18DAF8081097
:10478000039D4FEAF44C3D444FEAB14787EAF117E5
:1047900087EAD1078CEA744C01998CEA942C654421
:1047A000C96D3D4488EA0B0707EA0E0729444944CE
:1047B00087EA08070F444FEAFE2181EABE1181EA29
:1047C0007E6143EA060C394403EA06090CEA020C4E
:1047D0004CEA090C00EB010901984FEA76372030CA
:1047E00087EAB6070190079887EAB657CAF8445097
:1047F000BC44504501EB0C077FF422AE4E93CDE94B
:104800000A1C029BCDF84C814F924994CDF848B1D7
:104810004A93CDF844E14D964B95CDF840914C9795
:10482000049A059952F8043F049251F8042F134456
:10483000049A05911360069B9342F1D10AA84FF4A4
:104840009471FFF7CFFB002055B0BDE8F08F00BF9B
:104850002DE9F04105460E4614467AB3036C03F089
:104860003F079B18036422BF436C013343645FB36B
:10487000C7F1400842451CD34246384400F07EFD53
:1048800029462846FFF786FCC8B92744A7F140040B
:104890003F2C46440BD900272846F119FFF77AFC34
:1048A00078B94037E31B3F2BF6D81C463E442CB169
:1048B000002722463146E81900F060FD0020BDE8DF
:1048C000F0814FF0FF30FAE73F2AE4D8F1E773B503
:1048D0000D468021036C044603F03F035A1C382A1E
:1048E000C154104477D80021C2F1380200F06DFDA8
:1048F000D4E91062730F43EAC20304221BBA0DEB22
:10490000020104F13800019300F038FD0422F600A2
:104910000DEB020136BA04F13C00019600F02EFDC9
:1049200021462046FFF736FC064600284DD10422DA
:10493000A36C0DEB02011BBA2846019300F01EFD8B
:104940000422E36C0DEB02011BBAA818019300F0DE
:1049500015FD0422236D0DEB02011BBA05F10800C1
:10496000019300F00BFD0422636D0DEB02011BBAF5
:1049700005F10C00019300F001FD0422A36D0DEB85
:1049800002011BBA05F11000019300F0F7FC0422AC
:10499000E36D0DEB02011BBA05F11400019300F069
:1049A000EDFC0422236E0DEB02011BBA05F1180089
:1049B000019300F0E3FC0422636E0DEB02011BBACD
:1049C00005F11C00019300F0D9FC2046FFF7AEFB77
:1049D000304602B070BD0021C2F1400200F0F5FC8B
:1049E00021462046FFF7D6FB06460028EDD10146BA
:1049F000382220467AE70000043004289ABF034B8F
:104A000033F910006FF08300704700BF186D00008D
:104A10004123F0B595B00DF1080CCDE9003CDDE97E
:104A20001A56DDE91C47029303ABFBF72AFF98B93E
:104A30009DF80C30042B0DD1402F0FD133462A4660
:104A400020460DF10D0100F08BFB15B0BDE8F040E4
:104A5000FFF7D2BF6FF0860015B0F0BD6FF0940085
:104A6000FAE70022016000F11C0340F8042F98428D
:104A7000FBD17047F0B5002405462646204652F883
:104A8000247051F82430DB1946EB06071B1845F853
:104A9000243004F1010447F10000082CEFD1F0BDEF
:104AA000002370B50646184652F8235051F82340AB
:104AB000641B65EB0505241A46F8234003F1010346
:104AC00065F10005082BC5F10000EDD170BD70B592
:104AD00004395642041F013A1C3054F8043F51F87F
:104AE000045F134035402B4384422360F5D170BDF1
:104AF000002330B50446184654F8232051F82350BB
:104B000001336A40082B40EA0200F5D130BD021F94
:104B100000F11C03002052F8041F9A4240EA0100F1
:104B2000F9D1704770B50446056800201668034641
:104B3000E1FB6653256056686568E1FB6653656076
:104B40009668A568E1FB6653A560D668E568E1FB59
:104B50006653E56016692569E1FB66532561566970
:104B60006569E1FB665365619669A569E1FB66537A
:104B7000A561D569E269E1FB6523E261226A9B18C0
:104B80004041236270BD10B50438A1F120024B7F73
:104B90000C7F1B0443EA0463CC7F0439234391F860
:104BA00022408A4243EA042340F8043FEFD110BD7B
:104BB00070B588B01E460446FFF75CFF32460546D6
:104BC00021466846FFF76CFFC0F1010269462046A6
:104BD0002A43FFF77CFF08B070BD2DE9F04F9846DF
:104BE000D3F840A00023074618468BB0914601AA8F
:104BF0000133092B42F8040BFAD1A1F1040B01F1A6
:104C00001C06D9F800305BF8041F019D4A4601A834
:104C100003FB0155FFF786FF0AFB05F504464246F4
:104C2000294601A8FFF77EFF0823044401AA516822
:104C3000013B42F8041BFAD1B3450994E1D1424645
:104C400001A93846FFF72CFFC0F101022243384684
:104C5000C2F10102FFF73BFF0BB0BDE8F08F00008F
:104C6000014BFFF7BABF00BFC86D00000B4601F152
:104C700020020146FFF7B1BF30B504460D4689B0AA
:104C800068460121FFF7EDFE2B466A462146204685
:104C9000FFF7A3FF09B030BD38B504461546FFF74E
:104CA000E0FE29462046BDE83840FFF7DFBF2DE98A
:104CB000F04314460646274689B001226846FFF7AE
:104CC00006FF224601213046FFF7E6FF256804F182
:104CD0001C09023D4FF02008EB0705D523466A4624
:104CE00031463046FFF779FF23466A4669466846F3
:104CF000FFF773FFB8F101084FEA5505ECD14F45B6
:104D000002D057F8045FE5E709B0BDE8F083000082
:104D100070B5144606460D4688B0214620460C4A1A
:104D2000FFF7C5FF224621466846FFF799FF6A460E
:104D300031463046FFF794FF224669466846FFF742
:104D40008FFF6A4629462846FFF78AFF08B070BDE4
:104D5000C86D000030B5044689B0FFF714FF0C4A57
:104D600021466846FFF79CFE012105466846FFF78D
:104D700078FE6A4621461046FFF792FE2DB10038B4
:104D800018BF0120404209B030BD4FF0FF30FAE7B4
:104D9000846D000010B588B004460146054A684697
:104DA000FFF77EFE6946C0F101022046FFF78FFE45
:104DB00008B010BD846D000070B51F2A04460B4674
:104DC00088B00FD86D4600202946064601302028BD
:104DD00005F8016BFAD1C2F11F0008441A4493424E
:104DE0000CD12046FFF7CFFE2046FFF7D3FF204629
:104DF000054908B0BDE87040FFF738BF13F8015B04
:104E000000F8015FEBE700BF846D000030B589B0AA
:104E10000446FFF745FE054621466846044AFFF76B
:104E200029FE2A4669462046FFF751FE09B030BDEB
:104E3000C86D0000F0B516461F4604460D4699B0F1
:104E400011466846FFF70CFF3246694608A8FFF78F
:104E500007FF3A4669466846FFF702FF08A9084679
:104E60001E9AFFF7FDFE224669466846FFF7CEFF11
:104E700008A92A460846FFF7C9FF6A463146304668
:104E8000FFF7EEFE6A46694610A8FFF7E9FE6A469C
:104E9000684610A9FFF7E4FE10A922460846FFF76E
:104EA000DFFE08AA11462046FFF7DAFE214620461B
:104EB00010AAFFF7ABFF2146204610AAFFF7A6FF76
:104EC0006A4621462046FFF7A1FF10A92246084660
:104ED000FFF79CFF10A9084608AAFFF7C1FE2A4663
:104EE00069466846FFF7BCFE6A46284610A9FFF7E8
:104EF0008DFF19B0F0BD000070B5044690B00D46AE
:104F000011461646FFF73FFE2146234A08A8FFF741
:104F1000C7FD01283DD111462046FFF7A7FE2846D0
:104F200006F12001FFF72FFE29461B4A08A8FFF7CC
:104F3000B7FD01282DD111462846FFF797FE2A46D6
:104F400029466846FFF78CFE2246214608A8FFF74F
:104F500087FE08A908462246FFF782FE08A90846F0
:104F60002246FFF753FF08A908462246FFF74EFFE7
:104F700008A908462246FFF749FF08A90846064B3C
:104F8000064AFFF715FE684608A9FFF7B1FD10B005
:104F900070BD4FF0FF30FAE7C86D0000646D00008F
:104FA000F0B504460D46174699B0364E114608A88E
:104FB000FFF756FE33462146684608AAFFF7F8FD7C
:104FC000214608AA10A8FFF721FF694610AA08A8E1
:104FD000FFF746FE08AA334611466846FFF7E8FD8C
:104FE00033466946684608AAFFF7E2FD2A46294685
:104FF00010A8FFF735FE10AA334611461046FFF7FA
:10500000D7FD214610AA08A8FFF72AFE08AA3346B2
:1050100011461046FFF7CCFD10AA11461046FFF7C7
:105020001FFE10AA334611461046FFF7C1FD6A461F
:1050300069462046FFF714FE2146204608AAFFF7DE
:10504000E5FE2146204608AAFFF7E0FE3A4629463B
:105050003846FFF705FE33463A4639463846FFF7ED
:10506000A7FD2246284608A9FFF7D0FE6A46294632
:105070002846FFF7F5FD2946284610AAFFF7C6FE89
:1050800019B0F0BDC86D00002DE9F04F99460546F6
:1050900092460C46A3B02C9E2F49324602A8FFF739
:1050A000FFFCD6F800B031460BF0010202A80DF16A
:1050B0004808FFF70CFD00214046FFF7D2FC4A46A6
:1050C00041460AA8FFF7A2FE012251462846FFF7F3
:1050D000FEFC012249462046FFF7F9FC01211F4A48
:1050E0001AA8FFF7D9FD6FEA0B02204602F0010271
:1050F0000AA9FFF7ECFCFF277B0922AA02EB830336
:1051000053F8806C07F01F02D64086EA0B06F24384
:105110004946404602F00102FFF7D9FC404606F03E
:1051200001020AA9FFF7D3FC214628461AAAFFF775
:1051300037FF534621462846CDF800801AAAFFF7CC
:1051400079FE013FD8D1214628461AAAFFF7E0FD93
:1051500023B0BDE8F08F00BF846D0000C86D000073
:105160002DE9F041C2B004460F46014602A815469B
:105170009846FFF7EFFD28B16FF00307384642B0BD
:10518000BDE8F0810AAE304604F12001FFF7E2FDF0
:105190000028F1D14246294612A8FFF70DFE3046FD
:1051A0004649FFF763FD1AAC31463046434AFFF7E4
:1051B0007EFD424B3246204612A9FFF70EFD22AD7E
:1051C00020463E49FFF758FD0122284602A9FFF775
:1051D0007EFC28463949FFF749FD3246374B2946C0
:1051E0002846FFF7FAFC28463449FFF745FD3A46C2
:1051F00032A92AA8FFF780FE074600285BD112A833
:105200003146009532AB2AAAFFF73EFF2046FFF752
:105210007EFC90B90122204612A9FFF758FC2849CC
:105220002046FFF729FD2046FFF7B4FD204602A9DE
:10523000FFF75EFC0028A1D09EE7224B224A32A94C
:105240002AA80094FFF720FF012220462AA9FFF791
:105250003EFC0122284632A9FFF739FC01213AA879
:10526000174AFFF719FD12A92AA8FFF741FC60B100
:105270000B462046294600963AAAFFF7DBFD294651
:1052800020463AAAFFF744FDC9E7314632A8FFF7A6
:105290002FFC28B9294620463AAAFFF781FEEEE7FF
:1052A00039462046064AFFF7F7FC39462846044AA5
:1052B000FFF7F2FCB3E76FF001075FE7846D0000D2
:1052C000C86D0000246D0000446D0000024B0A46CA
:1052D0000146186800F081B86C04002008B5074B3F
:1052E000044613B10021AFF30080054B1868836AB0
:1052F00003B19847204600F0EDFF00BF000000001A
:105300000C6E000070B50D4D00260D4C641BA410F2
:10531000A64209D10B4D00260B4C00F0EBFF641B9D
:10532000A410A64205D170BD55F8043B013698473C
:10533000EEE755F8043B01369847F2E7D8620000E3
:10534000D8620000D8620000DC620000024B014617
:10535000186800F051B800BF6C0400200139024405
:1053600010B5904201D1002005E0037811F8014FFB
:10537000A34201D0181B10BD0130F2E70A44431EBE
:10538000914200D1704710B511F8014B914203F8DA
:10539000014FF9D110BD884210B501EB020402D9CA
:1053A0008442234607D8431EA14208D011F8012B9E
:1053B00003F8012FF8E7024401468A4200D110BDEC
:1053C00013F8014D02F8014DF7E7024403469342FA
:1053D00000D1704703F8011BF9E738B502FB01F56E
:1053E000294600F053F8044618B12A460021FFF779
:1053F000ECFF204638BD000038B50546002941D0F5
:1054000051F8043C0C1F002BB8BFE41800F0B8F9A9
:105410001D4A136833B9636014602846BDE83840FC
:1054200000F0B4B9A34208D9206821188B4201BF0B
:1054300019685B6809182160EDE71A465B680BB1D3
:10544000A342FAD911685018A0420BD12068014438
:10545000501811608342E0D118685B6808445360BB
:105460001060DAE702D90C232B60D6E720682118F8
:105470008B4202BF19685B680918636008BF21602E
:105480005460CAE738BD00BFF4330020F8B5CD1C26
:10549000064625F0030508350C2D38BF0C25002DD8
:1054A00001DBA94203D90C2333600020F8BD00F0D2
:1054B00067F921490A6814469CB9204F3B6823B913
:1054C0002146304600F054F838602946304600F056
:1054D0004FF8431C23D10C233046336000F056F9BB
:1054E000E3E723685B1B17D40B2B03D923601C4411
:1054F000256004E06368A2420CBF0B605360304635
:1055000000F044F904F10B00231D20F00700C21A3B
:105510001CBF1B1AA350C9E722466468CCE7C41C11
:1055200024F00304A042E3D0211A304600F020F812
:105530000130DDD1CFE700BFF4330020F03300208D
:105540000FB40A4B13B51C6824B1A36913B92046E4
:1055500000F076F805AB049AA1682046019300F0AC
:1055600043F902B0BDE8104004B070476C0400205D
:1055700038B50023054D044608462B6000F09AFE1E
:10558000431C02D12B6803B1236038BDFC330020DB
:10559000002310B504468360818119464366C281A9
:1055A00008228361C0E90033C0E904335C30FFF7AF
:1055B0000CFF054B24626362044BA362044BE3625D
:1055C000044B236310BD00BF815D0000A35D00009C
:1055D000DB5D0000FF5D0000014900F0AFB800BFD7
:1055E000C960000070B568234D1E0E465D4305F18D
:1055F0007401FFF74BFF044640B1002105F168023A
:10560000C0E900160C30A060FFF7DFFE204670BD39
:10561000014800F0B3B800BFF9330020014800F0A2
:10562000AEB800BFF9330020014800F0A7B800BFB2
:10563000FA330020014800F0A2B800BFFA3300207E
:1056400010B50446FFF7F0FFA3691BB1BDE8104099
:10565000FFF7F0BFC4E9123323652046124B134A0B
:105660001B68A262A34204BF0123A36100F020F8DB
:105670006060204600F01CF8A060204600F018F89A
:1056800000220421E0606068FFF782FF0122092107
:10569000A068FFF77DFF02221221E068FFF778FF84
:1056A0000123A361D2E700BF0C6E0000D9550000B2
:1056B000F8B50746FFF7ACFF1E4B1E68B36913B978
:1056C0003046FFF7BDFF4836D6E90134013B03D52C
:1056D00033680BB33668F7E7B4F90C50D5B9164BFD
:1056E00004F158006566E36000F047F8FFF796FFA5
:1056F0000822294604F15C002560A561C4E9015532
:10570000C4E90455FFF761FEC4E90D55C4E912551B
:105710002046F8BD6834D9E704213846FFF762FF18
:10572000044630600028D5D1FFF778FF0C233B609A
:10573000EEE700BF0C6E00000100FFFF2DE9F8430B
:105740000646884600F148040027D4E90195B9F1DE
:10575000010905D52468002CF7D13846BDE8F88347
:10576000AB89012B07D9B5F90E30013303D0294697
:105770003046C04707436835E9E7704770477047D0
:105780000148FFF7FBBF00BFF83300200148FFF7D7
:10579000F6BF00BFF83300209368013B002B9360F5
:1057A00010B407DA9469A34201DB0A2902D110BCC4
:1057B00000F02ABB1368581C10600846197010BC12
:1057C0007047F8B506460F461446D518AC4201D1CD
:1057D000002007E03A4614F8011B3046FFF7DCFFD3
:1057E000431CF3D1F8BD00002DE9F04F0D469DB0EC
:1057F00014469846064618B183690BB9FFF720FF97
:10580000874B9D421BD175686B6ED90705D4AB8958
:105810009A0502D4A86DFFF7B1FFAB891B0701D52C
:105820002B69EBB92946304600F052FBC0B16B6ED4
:10583000DC070ED54FF0FF301DB0BDE8F08F794B7F
:105840009D4201D1B568DFE7774B9D4208BFF568FF
:10585000DAE7AB899805EDD4A86DFFF790FFE9E78B
:105860000023CDF80C804FF00109DFF8C0810993C7
:1058700020238DF8293030238DF82A3023469A468C
:1058800013F8012B0AB1252AF9D1BAEB040B0BD07E
:105890005B46224629463046FFF793FF013000F071
:1058A000A680099A5A4409929AF80030002B00F019
:1058B0009E8000234FF0FF320AF1010A0493079300
:1058C0008DF853301A93CDE90523544605225748E5
:1058D00014F8011B00F0ACFC049BD0B9D90644BFFE
:1058E00020228DF853201A0744BF2B228DF8532015
:1058F0009AF800202A2A14D0079A544600204FF024
:105900000A0C214611F8013B303B092B4AD970B9EA
:1059100014E0A0EB0800A24609FA00F01843049036
:10592000D3E7039A111D1268002A039101DB079245
:1059300004E0524243F002030792049323782E2B93
:105940000AD163782A2B32D1039B02341A1D1B68BB
:1059500043EAE37303920593DFF8D4A0032221788E
:10596000504600F065FC38B1A0EB0A004022049BD1
:10597000013482401343049314F8011B06222D487E
:105980008DF8281000F054FC00283FD02A4B1BBB98
:10599000039B073323F0070308330393099B3B441E
:1059A00009936BE70CFB02320C460120A9E70023A8
:1059B00001344FF00A0C19460593204610F8012BCC
:1059C000303A092A03D9002BC6D00591C4E70CFB55
:1059D000012104460123F0E703AB2A4604A930461F
:1059E0000093164BAFF300800746781CD6D16B6E40
:1059F000D90705D4AB899A0502D4A86DFFF7BFFE7D
:105A0000AB895B063FF516AF099815E703AB2A464D
:105A100004A930460093094B00F084F8E4E700BF86
:105A2000506E0000306E0000106E0000706E0000BE
:105A3000766E00007A6E000000000000C357000080
:105A40002DE9F047164698468A6807460B690C46CA
:105A5000DDF820909342B8BF1346336091F843209D
:105A60000AB1013333602368990642BF33680233B9
:105A70003360256815F0060506D104F1190AE368BC
:105A800032689B1AAB422BDC94F843302268003B0F
:105A900018BF0123920630D404F143024146384630
:105AA000C847013023D023681A3454F80A2C03F075
:105AB0000603042B0ABF54F80E5C002533684FF030
:105AC000000608BFED1A54F8123C08BF25EAE57538
:105AD0009342C4BF9B1AED18B5421AD1002008E0CA
