:020000040005F5
:100000003DB8F3960000000000046B00EC8801008E
:1000100000000000000000000000000000000000E0
:1000200000000000000000000000000000000000D0
:1000300000000000000000000000000000000000C0
:1000400000000000000000000000000000000000B0
:1004000010490420BD38050035130600A938050041
:10041000A9380500A9380500A9380500A938050044
:10042000000000000000000000000000293A050064
:10043000A938050000000000B9390500A9380500F9
:10044000B53B0500B53B0500B53B0500B53B0500D8
:10045000B53B0500B53B0500B53B0500B53B0500C8
:10046000B53B0500B53B0500B53B0500B53B0500B8
:10047000B53B0500B53B0500B53B0500B53B0500A8
:10048000B53B0500B53B0500B53B0500B53B050098
:10049000B53B0500B53B0500B53B0500B53B050088
:1004A000B53B0500B53B0500B53B0500B53B050078
:1004B000B53B0500B53B0500B53B0500B53B050068
:1004C000B53B0500B53B0500B53B0500B53B050058
:1004D000B53B0500B53B0500B53B0500B53B050048
:1004E000B53B0500B53B0500B53B0500B53B050038
:1004F000B53B0500B53B0500B53B0500B53B050028
:10050000B53B0500B53B0500B53B0500B53B050017
:10051000B53B0500B53B0500B53B0500B53B050007
:10052000B53B0500B53B0500B53B0500B53B0500F7
:10053000B53B0500B53B0500B53B0500B53B0500E7
:10054000B53B0500B53B0500B53B0500B53B0500D7
:10055000B53B0500FFFFFFFF034611F8012B03F831
:10056000012B002AF9D17047034613F8012B002A0A
:10057000FBD1181A01387047F0B583B000AF0021E5
:1005800040F603403A1D05F075F80446002840F097
:10059000B0807868C3681B7853B9584BD3E8AF2F45
:1005A00002F00902D3E8EF1FC3E8E42F002CF9D1D1
:1005B00003F026FE002141F203003A1D05F05AF82F
:1005C0000446002840F095807A684D4DD16805F1C9
:1005D0007803D1F80100D1F8051003C3104603F0E9
:1005E0000FFE214641F201003A1D05F043F8044692
:1005F00000287ED17868C3685A7885F870205A88B8
:10060000A5F872201A7985F87120B3F80720A5F8AB
:100610007420B3F80530A5F8763003F0F1FD2146DB
:1006200041F202003A1D05F025F80446002860D189
:10063000D7F804C005F18006DCF80C20531C4132C9
:10064000344618685968083303C493422646F7D1E4
:10065000604603F0D5FD06F0C5F90446002848D1F0
:1006600095F88A30990610D40221264A264811F0BE
:10067000E1F895F87C305A064AD40121234A2248F1
:1006800011F0D8F86FF0120433E0072140F6334040
:1006900004F0D0FB0646002800F03D8107210C3015
:1006A00010F02CFF452303700223C0F80240847130
:1006B000447004712246C370314640F6334004F062
:1006C000D9FF0446A8B9012140F6314004F0B2FB3D
:1006D0000646002800F01F8101210C3010F01DFF9C
:1006E0002246314640F6314004F0C4FF044600285B
:1006F000BFD020460C37BD46F0BD00BFDC01042052
:10070000080104202C6A0600004A06005A6A060006
:10071000002142F203003A1D04F0ACFF0446002819
:10072000E7D17B68A04EDA68D2F80100D2F8051054
:1007300003C6184603F064FD214642F202003A1D4A
:1007400004F098FF04460028D3D17C68E368B3F82E
:10075000012091B249B1D97839B1A5F80421DA78EC
:10076000114606F1280013F013FB204603F048FD64
:100770001F2395F87C60A5F8203116F0200618D1CB
:10078000022140F66D4004F055FB0446002800F0BD
:10079000C28002210C3010F0B1FE0123214603700B
:1007A0004670324640F66D4004F064FF044600286F
:1007B0009FD195F89C301B0712D5002142F21C00F6
:1007C0003A1D04F057FF0446002892D17868C368A8
:1007D000D3F80120D3F80530C5E9382303F010FD24
:1007E00095F8D8309E0622D53846B91C05F01AF87F
:1007F000044600287FF47DAF042142F2240004F077
:1008000019FB0646002800F0868004210C3010F009
:1008100075FE3B88224603807B883146438042F246
:10082000240004F027FF044600287FF462AF95F807
:10083000D8305C0610D5002142F22A003A1D04F09F
:1008400019FF044600287FF454AF7868C3685B78CA
:1008500085F8223103F0D4FC082142F2010004F0B3
:10086000E9FA0446002856D008210C3010F046FE64
:1008700095F8D81040F2022311F0400F08BF03236F
:10088000024688074CBF43F02C0043F00C008B0657
:1008900095F8D93048BF40F0400013F0090F18BF59
:1008A00040F40060CE0748BF40F01000002110F077
:1008B000DBFF2146002242F2010004F0DBFE044689
:1008C00000287FF416AF95F87C30B5F8041198062F
:1008D00024D4C9B941F205003A1D04F0CBFE044608
:1008E00000287FF406AFB5F804317C684BB9E368A3
:1008F000B3F80120A5F804219A882C48114613F07A
:1009000047FA204603F07CFC082140F6014004F041
:1009100091FA044660B96FF06804EAE60029F3D161
:100920000121234A234810F085FF6FF00404E0E61C
:1009300008210C3010F0E2FD95F8D8300246D907B6
:1009400029D44FF000511C4810F08EFF21460022A0
:1009500040F6014004F08EFE044600287FF4C9AE44
:1009600001463A1D4FF6014004F084FE40B3134A9D
:100970000221104810F05EFF05F0EEFC044600284E
:100980007FF4B7AE07F072FA044600287FF4B1AEE8
:1009900004F0D6FBADE602A1D1E90001D4E700BF27
:1009A0009088000200800020E00104201002042052
:1009B0007E6A0600004A060010880002A16A06004E
:1009C0007B686E46DC688AB0B4F80130032B96BFB2
:1009D000424A434952F823106A46D3614FF40073E8
:1009E00040481384404BC2E9050142F8103F4FF4E0
:1009F00013513E4810F02DFFB4F80120B546022AED
:100A0000B4F8033049D1052B47D8394A52F823109E
:100A10006E468AB06A46D3614FF40073354813843A
:100A2000314BC2E9050142F8103F4FF413512F48F2
:100A300010F00FFFB546637994F806C0032B98BFFA
:100A40002D4AB4F80760D4F809006C468CB094BF06
:100A500052F8231022496A46C2E9073C4FF400735A
:100A6000DFF898E09385264BC2E905E1C2E9096009
:100A70004FF4735142F8103F1C4810F0EAFEA546AF
:100A8000786803F0BDFB00214FF602403A1D04F0E8
:100A9000F1FD044618B11B4A6AE71149B8E77868C6
:100AA000C368B3F80130A5F8C13003F0A9FB95F88D
:100AB000C1305B077FF560AF21464FF603403A1D1A
:100AC00004F0D8FD08B1104A52E77868C3685B7833
:100AD00085F8C03003F094FB4EE700BF004F0600DE
:100AE00086670600C56A060004000001004A060089
:100AF000E84E0600DE6A0600D84E0600F66A0600DA
:100B000007000001236B06004C6B0600044B0549EF
:100B10001870054B002818BF194604480FF0FABAA0
:100B2000A019042038540600305406004154060031
:100B300001480FF0EFBA00BF6654060010B5044636
:100B400004480FF0E7FA2046BDE81040052111F0F7
:100B500024BA00BF7854060030B50D4D89B003ACFF
:100B60000FCD0FC42B680B49236001230222009391
:100B700003A8094B05F046FE014620B107480FF0D7
:100B8000C9FA09B030BD06480FF0C4FAF9E700BF52
:100B9000D04A0600C04B0600B84B06009D54060024
:100BA000C354060070B503788AB004460E4607ADFC
:100BB000032B20D8DFE803F002191B1D114928463A
:100BC000FFF7CAFC059563781E210493A37830468D
:100BD0000393E3780C4A029323790193637900939A
:100BE000A3790EF0D1FD0AB070BD0849E7E70849C6
:100BF000E5E70849E3E70A212846074A0EF0C4FD65
:100C0000E0E700BFE554060007550600EC54060077
:100C1000F3540600FD540600BD7D060030B51546B0
:100C20008BB00C4611F03CFA02A9FFF7BBFF35B9B7
:100C30002246074802A90FF06DFA0BB030BD2246DC
:100C4000044B0548009502A90FF064FAF5E700BFD0
:100C50002A550600505D06004955060000B589B0CA
:100C600011F01EFA6946FFF79DFF694602480FF032
:100C700051FA09B05DF804FB7255060010B50C4638
:100C800088B011F00DFA6946FFF78CFF22466946DD
:100C900002480FF03FFA08B010BD00BF89550600AA
:100CA00010B50C4688B011F0FBF96946FFF77AFFE2
:100CB00022466946034B04480FF02CFAFFF74CFF1D
:100CC00008B010BD505D06009F55060030B50C46BB
:100CD00089B0054611F0E4F96946FFF763FF3CB1BE
:100CE00022466946094B0A480FF014FA09B030BD94
:100CF000694608480FF00EFA0421284611F084F9DD
:100D00000028F3D004480FF005FAEFE7505D060025
:100D1000C7550600E6550600F75506007FB50020CA
:100D200004F0CAFD0446002853D100F0B9F82C485D
:100D30000FF0F0F92B4807F05FF82B4807F076F832
:100D40002A4802F055FAFFF707FF29480FF0E2F9A9
:100D50000DF016F9014627480FF0DCF980200DF060
:100D60001DF9014624480FF0D5F910216846CDE958
:100D70000044CDE902440DF01DF820480FF0CAF9F7
:100D80006D461F4E304615F8011B01340FF0C2F9B5
:100D9000102CF7D11B480FF0BDF91B4C1B4D4FF425
:100DA0007A70002113F0CAF920782B789F288EBF23
:100DB0005A200130C0B220700BB102F02DFA02F0BF
:100DC00083FA20B10138C0B202F084FAE7E7642068
:100DD000FAE701460E480FF09DF9002004B070BDFF
:100DE0002F56060094020420840204207802042076
:100DF0004D5606006356060082560600A8560600A9
:100E0000C05606004F5D060070050420A01904209E
:100E10000F56060030292DE9FF4107460D46904642
:100E20001E4603D0402901D020292CD103AB0093CA
:100E30004FF410730DF08CF80446D8B9039B0321CE
:100E4000124A134810F092F903212B46114A104818
:100E500010F08CF94FF4107342462946384600963C
:100E60000DF076F83368044603210B4A084810F069
:100E70007DF924B12046094900F0F2F804462046E5
:100E800004B0BDE8F0816FF01504F3E7D756060013
:100E9000A8490600FA5606002657060048570600DD
:100EA00010B5194CADF5926D2146422204A813F0FD
:100EB00099FA4FF4FF7200210DF1520013F09FFADE
:100EC0004FF4107300214FF40F7295A80193949181
:100ED00013F095FAD4F8420094F8463002908DF859
:100EE0000C30402101AB94AA04A8FFF793FF0446FD
:100EF00030B90EF0E4FE019A94A902A800F006F8B9
:100F000020460DF5926D10BD284B06002DE9F74FD8
:100F1000044689461746002A00F08D800378D0F8F1
:100F200001609807164412D50A200EF007FC4348CA
:100F30000EF0F2FB42480EF0EFFB42480EF004FCCC
:100F4000D4F80110404821F00F010EF0E5FBD4F871
:100F500001A01AF00F0A08D00025DFF8F080404603
:100F600001350EF0D9FBAA45F9D1D4F801B0A9F1A9
:100F70000F085D465F4498F80F1035480AF1010AE2
:100F80000EF0CAFBBAF1100F2A4605F1010501D097
:100F9000AE422AD12378D9071DD5AE422FD116F003
:100FA0000F0A40D0AAEB8A01CBF101031344303180
:100FB000284A294801930EF0AFFBD4F80120019B89
:100FC000B21A0F2AA3EB0A0098BF03F00F0A51468A
:100FD00048440EF060FE0A200EF0B0FBAE4202D094
:100FE00023789B0722D44FF0000AAF4208F1010892
:100FF000C1D10A2003B0BDE8F04F0EF09FBBD4F87A
:10100000011001F10F03AB420DD901F00F01134A9A
:1010100011480EF081FBD4F80110484601F00F0191
:10102000C1F11001D5E710214046D2E72946064814
:101030000EF072FBD7E703B0BDE8F08FB0570600A3
:10104000545706007357060084570600B75706002A
:10105000C05606008A570600BB570600AA5706006E
:10106000F8B510F1800F04460D4600AF14DA10F108
:10107000970F12DB00F19703162B0ED8DFE803F071
:10108000560D5254504E4C4A48464442403E3C3A1B
:1010900038363432302E1400E8B101212346244A78
:1010A000244810F063F803E0234922480EF003FEC1
:1010B0006E4688B06A46214BC2E905354FF400738D
:1010C00093831F4B42F8103F00234FF4E25119481D
:1010D00001F054FDB5462046BD46F8BD1949E4E788
:1010E0001949E2E71949E0E71949DEE71949DCE760
:1010F0001949DAE71949D8E71949D6E71949D4E770
:101100001949D2E71949D0E71949CEE71949CCE77F
:101110001949CAE71949C8E71949C6E71949C4E78F
:101120001949C2E71949C0E71949BEE71949BCE79F
:1011300052590600A8490600C0570600705906001B
:1011400003000001D1570600E4570600F4570600DB
:1011500002580600105806002658060037580600A8
:1011600046580600505806006158060070580600A0
:101170007F58060093580600A8580600C15806007C
:10118000D1580600E7580600F7580600085906002F
:101190001A590600375906002DE9F04F91B0009317
:1011A00002F004030293C2F3C2030133840705462D
:1011B0000E46DDF868800392059340F0BB81041D64
:1011C00030B1072909D86FF01B0011B0BDE8F08FCE
:1011D00001F007063444C6F10806009B4FF00009F1
:1011E0004FF0040A591E4FF0FF334F460193CB4690
:1011F0005346CDF810900DB1009A22600598002852
:1012000000F3E8809848009A824203D397488242CC
:10121000C0F0E080039AA4EB050E92074FEA9E000F
:1012200000F103810F2F00F2B180002D00F0058145
:1012300007F140020DEB020C019A0CF8200C0CF89F
:10124000102C049801300490E7E07A285DD84B28F0
:101250000ED8472859D829282DD8252852D054D817
:1012600020287AD02338D0F1000B4BEB000B74E030
:101270004C382E2849D8DFE800F0704848484848E4
:101280004848484848484B484848484848484859CA
:10129000484B4B595959704B6D487048184B18487A
:1012A00048827F4B48484B487F0000204FF0000B9E
:1012B0004FF0040A38E001222A38C0B202FA00F0E6
:1012C00010EA0E0F49D110F0625C2FD110EA020B28
:1012D00043D06046013C5444B4FBFAF40AFB04F4E6
:1012E000002D61D0A3EB050CA444B4453FF66BAFD1
:1012F000002868D1042B47D158F8043B236004230D
:1013000004342AE0019A013A01924FF0000B24E0E4
:1013100011F8010C6C2834D1002011F8023C8346EE
:101320006C2BC5D14FF0080A5346D3E708F10708E4
:1013300028F00708073424F00704F8E802AB35B1B9
:1013400006982044B0423FF63EAFC4E900AB4FF0F0
:10135000000B08344FF0080A534611F8010F00281B
:1013600078D0BBF1000F7FF470AF2528F5D14FF096
:10137000010B019B013301934FF0040AECE758463F
:1013800094E700208346A5E7082B02D06FF01500F4
:101390001BE708F1070828F00708F8E80223C4E96A
:1013A000002308230834D8E768B9042B02D108F1D8
:1013B0000408A4E7082BE9D108F1070828F007087A
:1013C00008F10808EDE7059A013A059258F8042B50
:1013D000009210E7039A900720D54FF0010CA4EB80
:1013E000050E4FEA9E00BEF5007FCFD20F2FCDD85D
:1013F000F5B107F140020DEB020E019AC0B20EF8F2
:10140000200C0EF8102CBCF1000F3FF41AAF60F066
:101410007F000EF8200C09F101090137C5F108021F
:101420004FF6DA7E0434069297E74FF0000CDAE7C5
:10143000BCF1000F01D00136EFE702980236002818
:10144000EBD10098CDE90631FFF78EF8DDE90631E2
:101450000644E2E7631BB3F5806F97D245B9A6F166
:101460000804E018B1E600BF64450600E084060009
:10147000029A9B0828602B709DF81030C2B1EB7067
:1014800085F80290B9F1000F05D0002208A8C5F137
:10149000010C97420ED14FF0000AC5F101030DF186
:1014A000200801930DF1300B574512D1601B8CE6DB
:1014B0006B70E5E710F8013B190608D50CEB040E3C
:1014C000B64503F07F033FF67EAE04F8013B0132E0
:1014D000DFE7B9F1000F03D098F90020002A17DBED
:1014E000029BD3B11AF80B2004F8012B0022019BB8
:1014F00018191044B0423FF666AE98F80000009903
:1015000004F8010B2046039212F06CFF039A144476
:101510000AF1010A08F10108C6E798F8002055F819
:1015200022300093029B009845F82230FFF71CF808
:10153000421CDCE76FF00D0047E600BF2DE9F04FDD
:1015400097B000AFD7F880B03B62CBF3C00304463E
:10155000894690F802A0FA62BB6141B945780078EB
:101560000AEB800020444D4517D8A0EB0409E3782E
:10157000FB61BAF1000F02D01BF0010F16D1FB691D
:1015800053BBFB6A1BB1494620463A6A98474D4611
:1015900028465C37BD46BDE8F08F461C3046FEF756
:1015A000E3FF0130304409F10109DCE76268237888
:1015B0007A62FA6A9900796104EB8301002A40F0AB
:1015C00001810E464FF000084D4601EB0A094E45D9
:1015D0004CD101EB0A0610E01BF0020FD1D02378AA
:1015E0009A007A61626804EB83017A62FA6A002ADF
:1015F00077D14D46904601EB0A061BF0050F0CBF54
:1016000002230123FB62FB6906EB430A0BF0020392
:10161000BB625645BCD016F8021B16F8013C54F8C4
:101620002390994B994502D3984B994536D3BB6982
:10163000002B40D0786A0EF044FD00283BD0E946EC
:101640008AB06A46924B53617B6AC2E906314FF415
:10165000007313848F4B42F8103F00234FF4125154
:101660008D4801F08BFA023DCD46D2E716F8013BDA
:10167000F96254F82300FEF777FFD7F88430F96A4F
:1016800001304BB1D7F8883098453EBFD7F8843049
:1016900023F8180008F10108054498E7BB6923B155
:1016A000786A0EF00EFD0028C9D11BF0010F05D19C
:1016B000FB6AED1AADE7BB6A002BAAD04846FEF7DD
:1016C00053FFD7F8843053B1D7F8883098453FBFDF
:1016D000D7F88420431C22F8183008F1010805448B
:1016E00097E7BAF1000F73D01BF0040673D0D04611
:1016F000002607F1480052463B61B96212F072FEC3
:10170000B96A3B6901EB0A02BA62FA69F9695200E7
:10171000FA60BA6A02EB41023A610BF00202BA6067
:101720003A69B96A8A4258D162781BF0020F18BF31
:1017300000217A6208BF4FEA5801B2181BF0010F6E
:10174000D2B240F09F801BF0040F14BF404600202F
:10175000BB616270A070E17020463A6A7969FB6AE9
:101760009847051EFFF614AFBB69414623707B6A9C
:101770003A6A6370FB6984F802A0E37007F14800DD
:10178000FB6A9847B0F10008C0F2BA807B69A9EB08
:101790000A01C91AFB683A6AC91AD7E90A039847C5
:1017A0000028C0F2AF804FF0000BA84408EB000502
:1017B00007F1380AB34571D300213A6A0846FB6A3B
:1017C0009847E5E656464FF0000807F1380092E7E3
:1017D0005646D04696E7B04694E7BA6A12F8021B1E
:1017E00012F8015CBA6254F82500274A904202D3ED
:1017F000264A90421ED3BA6932B1786A7B600EF0F5
:1018000060FC7B6800288BD1BA6802BB08F1280213
:1018100007F1300C08F10100944407F1580208F177
:10182000020852FA80F00CF8101C5FFA88F800F8F1
:10183000105C75E7BA693AB1786A7B600EF041FCDA
:101840007B6800287FF46CAF1BF0010F09D006F114
:10185000280207F13000711C161806F8205CCEB281
:101860005EE71BF0040F3FF45BAF08F1280207F1BD
:10187000300008F1010102EB000808F8105C5FFA83
:1018800081F84DE7002063E764450600E084060028
:101890008359060004000001484A06001BF80A307C
:1018A00054F8239087F83730D7F884302BB3D7F823
:1018B00088309B4521D2D7F8843033F81B80012132
:1018C0003A6AFB6A07F13700984700281ADB05449B
:1018D000B8F1000F06D14846FEF746FE00F10108B8
:1018E0001FFA88F8414648463A6AFB6A984700283A
:1018F00008DB05440BF1010B5CE74FF00008DEE765
:10190000454645E6054643E6014B1860704700BF73
:10191000AC02042080B505460E46174698460DF0E9
:10192000AFFB034612F014FE0446DFF8189042465F
:1019300049F8003039463046A84754F8090002F00B
:1019400025F800BF080000002DE9F047058B04468C
:101950002807904611D4022905F0070540F0CC80F5
:1019600020460FF015F878B10138218B042811D8E2
:10197000DFE800F0C2106D85950001290CBF45F02D
:10198000100545F02005258388F31188BFF36F8F7C
:10199000BDE8F08701F0070AAA4500F0A5800027FE
:1019A000B9463E46A368002B00F0BC8041F0080118
:1019B000218388F31188BFF36F8FA168002900F09D
:1019C000BA800D68002900F0B680334652462046A2
:1019D000D1F80480C047002D76D02B6829461D46DB
:1019E000F0E701F007035A1F012A1BD8002221F05B
:1019F0000701062B276889B2C4E9002209D13B46BA
:101A000003E0628B013262831B68002BF9D141F045
:101A10000201204621830EF0BBFF00287AD041F05E
:101A2000200176E0042B0AD121F0070189B220467B
:101A300021830EF0ADFF10B141F020012183218BF5
:101A400001F0070AAA454FD00027B946AAE7236943
:101A500021F0070141F00601062DD3F80090218303
:101A60002DD1B9F1000F3FD041F00801218388F357
:101A70001188BFF36F8F20463949C84729E021F00C
:101A80000701236941F0040189B2042DD3F80490C1
:101A90002183E6D000274FF0040A3E4682E721F07A
:101AA0000701236941F0050189B2052DD3F808909B
:101AB0002183D6D000274FF0050A3E4672E7002763
:101AC0004FF0060A3E466DE72B4687E7B9F1000F57
:101AD000D1D1EFF31188202383F31288BFF36F8FE6
:101AE000238B23F008032383258BEA062ED525F0CC
:101AF0001003238305F007056669218B002EBFF6CE
:101B000070AF00232768C4E9003321F0070141F0DA
:101B100001012183218B4FF0000901F0070AAA453A
:101B20007FF440AF002F9CD041F00801218388F35F
:101B30001188BFF36F8F002FC8D03D6839463346F8
:101B4000524620460EF050FF2F46F4E7AB067FF5D5
:101B50001BAF25F02003238305F0070500E700BF36
:101B6000150A060010B530B90B480C490FF01BF8E8
:101B70006FF0150010BD836833B9074808490FF0AE
:101B800012F86FF00400F5E71B6813B1BDE81040D0
:101B900018471846EEE700BF684A0600375A0600A5
:101BA000485A060010B530B90B480C490EF0FBFF3F
:101BB0006FF0150010BD836833B9074808490EF06F
:101BC000F2FF6FF00400F5E75B6813B1BDE8104069
:101BD00018471846EEE700BF684A0600375A060065
:101BE000485A060070B508B101B132B90B480C492A
:101BF0000EF0D9FF6FF0150070BD84680CB1E56878
:101C000035B9064807490EF0CEFF6FF00400F3E740
:101C100041F8040BE368BDE870401847684A0600C5
:101C2000665A0600485A060010B5044630B91048F6
:101C300010490EF0B8FF6FF0150010BD006830B904
:101C40000B480D490EF0AFFF6FF00100F5E7836818
:101C50000BB11B6933B9064808490EF0A4FF6FF0B9
:101C60000400EAE7616898470028E6D12060E4E7CD
:101C7000684A0600925A0600A35A0600485A06000F
:101C800070B51346044630B9104811490EF08BFF69
:101C90006FF0150070BD006830B90C480D490EF0AA
:101CA00082FF6FF00100F5E782680AB1956835B9E7
:101CB000064809490EF077FF6FF00400EAE70A468C
:101CC000AC466168BDE87040604700BF684A0600E6
:101CD000925A0600A35A0600485A060001690346B4
:101CE000024A4068083100F059BC00BFD04B0600E2
:101CF0002DE9F04F814685B00E9B59F89C5B0C682E
:101D000000932B6A03341C4406460F46B4FBF3F4DD
:101D10004FF00008DDF83CB001922146A86A02AA03
:101D20000EF0AEFD10F11C0F82460ED1009B53EA5F
:101D30000B0352D05B464846009A0CF07DFCB0F194
:101D4000000A3EDB4FF00108E7E7B8F1000F11D1C0
:101D5000BAF1000F13DA1AF10B0F07D052462349DC
:101D600023480EF039FF1AF1160F33D0504605B054
:101D7000BDE8F08F06F19C000CF02AFCE8E73B6818
:101D80007BB9029C03936B6A01349C4207D22146C3
:101D9000A86A03AA0EF04DFD039B002BF3D0029B13
:101DA000E41A2B6A5C43043C3C602A6A029BE969A2
:101DB0005343CC50CA18019B0432DDF808A01A60C6
:101DC000D4E7B8F1000F02D048460CF001FC1AF13C
:101DD0001C0FC0D16FF00B0AC8E7B8F1000FF9D0A3
:101DE00006F19C000CF0F4FBF4E700BFC85A0600B3
:101DF000604A060008B50246034904480EF0ECFEAE
:101E00006FF0150008BD00BFEB5A0600604A0600DF
:101E100073B50546044655F8786B8DF804108DF8B7
:101E200005208DF806304FF0FF324FF0FF33284683
:101E30000CF0D4FA04F10801032301AA30460EF095
:101E4000B6FF044628460EF0D9FE022C04D82246DE
:101E5000034904480EF0C0FE204602B070BD00BF2A
:101E60000B5B0600604A0600F7B51B4E45683778E5
:101E700004696FB9194812F055F84FF0FF334FF469
:101E800000721749154800970CF076FD0123337056
:101E900025602B69EA6993422CBF0023012384F853
:101EA000043104F1780011F0C3FE0E4904F18C00F6
:101EB00011F0F1FF0122002104F19C0011F068FFF4
:101EC0004FF0FF330020C4F8F830C4F8FC30C4F8F9
:101ED000F43003B0F0BD00BFA119042008080420AD
:101EE000F81A0420B5200500F8B584688C4206D89D
:101EF000114A124801210FF030F90020F8BD446862
:101F0000076861437D18AAB10BB1BFF35B8FD0E9BD
:101F100001647443066879582644043C8C4203D318
:101F2000081D2844864201D2054AE2E711600BB140
:101F3000BFF35B8F281DE1E72A5B0600604A0600BD
:101F40003E5B060008B50121034A04480FF005F97D
:101F50006FF0150008BD00BF4E5B0600604A06002A
:101F6000F7B506680546306A0C4602440332B2FBF8
:101F7000F0F11A1E21DBC31C1344B3FBF0F38B42B8
:101F80000AD9124A0091124801210FF0F9F86FF0B6
:101F90001506304603B0F0BD6043F769C91A3A50E0
:101FA000E21881B1B06A0EF0BDFC061E07DA3246B7
:101FB000084907480EF010FEEBE72246F1E705F16D
:101FC0009C000CF005FB2646E3E700BF5E5B0600C5
:101FD000604A0600805B0600016901F58073D3E862
:101FE000EF0F40F00040C3E8E20F002AF7D10248AB
:101FF0008C3111F06CBF00BF0808042070B50024BC
:10200000036903F1B40520012E58964212D1022132
:102010001A18BC32D2E8EF0F012803D1C2E8E41F3E
:10202000002CF7D13DD1204803F18C0111F04FFF76
:10203000002017E00134042CE5D103F58070D0E8CE
:10204000EF4F651CC0E8E65F002EF8D14FF6FC703C
:102050000442A5B207D015480121154A0FF07DF8BA
:102060006FF00B0070BD05F10B000001061D184458
:10207000426093F804211E4442B1EAB253FA84F458
:1020800003EB051585F8C02084F8F42000F1080260
:102090000120D2E8EF4FC2E8E50F002DF9D10E6024
:1020A000C1E76FF01500DDE708080420604A06006C
:1020B000995B06002DE9F04F044689B000F17403E6
:1020C000D3E8AF3F002B60DA90F87850A0F18C0A8B
:1020D000002D5DD0DFF8F091DFF8F0B100F12C05B4
:1020E00000F16C080227D5E8EF3F012B03D1C5E8CA
:1020F000E27F002AF7D12FD155F8043C1868FEF78B
:1021000033FA4FF0FF334FF0FF32461CCDE9002386
:10211000504607AA06A90696FFF7EAFD031E0FDB45
:1021200055F8042C079811680393FEF715FA2A7ADC
:10213000039B3946504600960EF0BEFD031E0BDA97
:102140000022D5E8EF1FC5E8E02F0028F9D11A4694
:10215000494658460EF040FD10354545C2D100268F
:1021600004F130057034D5E8EF3F022B03D1C5E808
:10217000E26F002AF7D105D155F8082C93680BB10E
:10218000506998471035A542EDD109B0BDE8F08FF0
:10219000A0F114084FF6FF7B4FF0FF334FF0FF32F2
:1021A00040460CF01BF904F1680304F16A0903933B
:1021B00039F8023F5B457FD040460EF01FFD54F8D2
:1021C0008C3CB9F80060D3E904129B6902FB061647
:1021D00003FB02110436891B3046013912F039F92C
:1021E0000027421C04F12C03D3E8AF1F012934D18E
:1021F00053F8040C31460068CDE9042312F017F9B6
:10220000DDE9042348BB032004EB0711EAB281F89F
:10221000342003994F55D3E8EF1F012904D1C3E8B7
:10222000EC0FBCF1000FF6D124D02A4628492748EC
:102230000EF0D2FC4FF0FF324FF0FF3340460CF06F
:10224000CDF86FF015064FF6FF73324621491F484F
:10225000A9F800300EF0C0FC2EE00137042F03F186
:102260001003C1D14FF0FF324FF0FF3340460CF066
:10227000B5F821E004EB0717B96A8B681BB1486910
:1022800004929847049A13463146032250460EF0B2
:10229000CBFC061E07DA4FF0FF324FF0FF3340460B
:1022A0000CF09CF8CFE74FF0FF324FF0FF33404681
:1022B0000CF094F8A9F800B00135042D7FF478AF44
:1022C00040460EF09BFC4AE7AC5B0600604A060005
:1022D000C95B0600F85B0600032937B504460A46C9
:1022E00004D8431893F8F400032806D91B491C4866
:1022F0000EF072FC002003B030BD00F10B052D0183
:1023000005F108022244D2E8AF3FDBB2032B08D12B
:1023100063190C33D3E8AF3F002BEBD104356019C0
:10232000E9E7022B0ED10323D2E8EF1FC2E8E03F1A
:102330000028F9D163195A689368002BEED05069D0
:102340009847EBE704EB001090F8C02001210092C1
:102350000348044A0EF014FFCCE700BF0D5C0600F2
:10236000604A06002F5C06002DE9F043022914693B
:1023700085B01ED94578032D1BD80378032B09D8C7
:10238000DFE803F04602200B817820460EF0F5FCD2
:10239000021E10DB05B0BDE8F083817820460EF008
:1023A000ECFC021E07DB29462046FFF795FF0028BC
:1023B000F0D16FF015023149314805B0BDE8F04366
:1023C0000EF00ABC867820680123314603AA10303B
:1023D000FFF78AFD28B932462A4929480EF0FCFB4E
:1023E000E7E704F178074FF0FF324FF0FF3338464C
:1023F0007C350BF0F3FF384624F815600EF0FEFB39
:10240000214804F18C0105B0BDE8F04311F05FBD37
:102410008778D4F800900123394602AA09F1100008
:10242000FFF762FD294606462046FFF755FF804626
:1024300006B138B901213B46144A114800950EF007
:102440009FFEB6E73946D9F82C000EF0B3F9D8F85C
:10245000003030465A69DD680299A8473946D9F8F4
:102460002C0003AA0EF0C6F9039B002B92D1012287
:10247000314620460EF0D8FB8CE700BF845C060096
:10248000604A0600EB5A060008080420595C060062
:102490001FB50024074B4FF4A062029302AB0093D8
:1024A00005494FF0FF33054803940CF065FA2046C8
:1024B00004B010BDA95C0600F81C0420B00804207C
:1024C000024802F1580111F002BD00BFB00804201B
:1024D00010B550F8043C0446D3E9000183681B683A
:1024E0000BB10022984704F14003D3E8AF3F022B21
:1024F00007D02146BDE810400122002301480CF01E
:10250000A9BA10BDB008042070B50446A0B000F10F
:102510001005D5E8AF6F002250F8540C11460EF0AC
:102520002DFD01387F281BD86946802254F8540CB1
:102530000EF024FD022E014614D154F83C3C5B6899
:102540001BB1684654F8382C9847002254F8540CB4
:1025500011460EF013FD18B121460E4811F0B7FCDC
:1025600020B070BD0C28FBD90D2269460A4811F035
:102570004EFF0028F4D154F83C3C1B6813B154F8CA
:10258000380C98470223D5E8EF2FC5E8E13F002932
:10259000DBD0F8E7B0080420B55C06002DE9F04177
:1025A000054601260C466831D1E8EF0F002803D11B
:1025B000C1E8E76F002FF7D146D1C4E90723656270
:1025C00004F1080011F034FB20680EF059FC0028DB
:1025D00020DB60680EF06AFC00281BDB0D221C4922
:1025E00020680EF06FFC0C2814DD1A4904F1580025
:1025F00004F1280711F04FFC3846174911F098FCF8
:10260000D5E902018368D3F80480B8F1000F03D143
:102610006FF05700BDE8F0812346104AC0470028FC
:10262000F8D1D5E9020183681B69002BF0D032464E
:1026300098470028EED100220023394608480CF0C4
:10264000D9F900EAE070E5E76FF07700E2E700BF54
:10265000B55C060009250500D1240500C12405004C
:10266000B00804202DE9F047044607464FF0010961
:10267000DFF8508014B93846BDE8F08794FAA4F525
:10268000B5FA85F509FA05F32E0108EB05156FEA91
:10269000030A24EA03042B7B002BEBD058F8063006
:1026A0001B694BB94644736804222846196807EA37
:1026B0000A0700F04FFADDE7284698470028D9D1ED
:1026C000F0E700BFC04A060030B5002289B00F49CC
:1026D0000F4811F0E8FD002200230024CDE9062375
:1026E0000E230C4DCDE903344FF440722846CDE95A
:1026F0000144094B094900940CF01EFA0849284688
:1027000011F06BFC204609B030BD00BF2527050045
:10271000E80D042058090420F9290500F8210420B7
:10272000C25C060001480BF053BF00BF48060420FE
:102730002DE9F04780461E480F460EF08CFC0646F9
:1027400078B300252846BDE8F087237B6BB123686A
:10275000DB680BB12046984723681B69CBB96368D7
:1027600004222046196800F0F5F9013610344C4572
:10277000EBD3B8F1000FE5D0002DE2D02846FFF7EB
:1027800071FF0546002FF7D000210A2011F0D6FC7A
:10279000F2E7204698470028E1D00AFA06F31D43E5
:1027A000E3E705464FF0010A024CDFF80C90DEE744
:1027B00010150420C04A0600D04A0600014B53F809
:1027C00020007047744C060008B5034608462BB13C
:1027D000044A136000F068FC002008BD6FF015008B
:1027E000FBE700BFE002042010B5044C237813B9C6
:1027F00003480BF0EDFE0123237010BDA219042045
:102800004806042010B5044609480EF024FC3CB1EB
:10281000084BD3E8EF1F0139C3E8E21F002AF8D1C3
:10282000054811F04CFDBDE8104004480BF0D0BE47
:10283000081504200C150420E80D04204806042087
:1028400000200146034BD3E8EF0FC3E8E21F002A44
:10285000F9D170470815042070B5FFF7F1FF054660
:10286000074C084EB44200D370BD63685B792BB14E
:1028700023685B6813B12946204698471034F1E776
:10288000C04A0600D04A060010B5044C0449204650
:102890000DF05FFD034B1C6010BD00BF88050420D8
:1028A000604C06000015042008B50023074A4FF4C9
:1028B00000411370064A07481360074A1360FFF788
:1028C00083FFBDE80840FFF7DFBF00BFA319042066
:1028D00008150420531006000C15042001460022A0
:1028E000002301480DF056BD8805042001480DF075
:1028F000EFBD00BF88050420024B014618680DF0AB
:102900003BBE00BF0015042001480DF070BE00BFA3
:102910008805042070B5214B187800283CD0FFF7BB
:10292000E5FF054670B11E4BD3E8EF1F0139C3E840
:10293000E21F002AF8D11B4C1B4EB44222D328467A
:10294000FFF7DAFF194B1A4C1B68002B0EDD11F054
:1029500063FCD4E90032C01A40F2E93361EB0201B2
:10296000984271F1000101D3FFF776FFD4E90032FC
:1029700013F57A7342F10002C4E90032BDE87040F9
:10298000FFF7C2BF63685B7923B1236829462046FD
:102990001B6898471034D0E770BD00BFA21904200F
:1029A0000C150420C04A0600D04A06000815042071
:1029B000E00D042070B50D4D297861B90120FFF7B5
:1029C000B7FE0B4C0B4EB44206D3FFF7A3FF002813
:1029D000FBD101232B7070BD63685B791BB1236849
:1029E00020469B6898471034EDE700BFA3190420E8
:1029F000C04A0600D04A060000212DE9F0470846EB
:102A0000FFF796FE044658B34FF032084FF0000926
:102A100011F09EFD1B4B1C4A1B58136033B11B4B1E
:102A20001B68092B02DD1A480BF0D2FD0025194F57
:102A3000DFF85CA044B12046FFF714FE044618B945
:102A40004FF0FF384FF0FF39FFF764FF064628B913
:102A5000B5B942464B4650460BF0EEFD3546E9E728
:102A60004FF0FF384FF0FF39D2E72B689B691BB15D
:102A700000222846114698471035BD42F5D3E8E7B5
:102A8000054DFAE708000000041504200C15042089
:102A900048060420D04A0600C04A060013B518486C
:102AA0000EF0D9FA174B1B7873B1EFF31184202382
:102AB00083F31288BFF36F8FFFF72CFF84F3118825
:102AC000BFF36F8F02B010BD0F4B1B68002BF9D006
:102AD00050B9002200230D48CDE900234FF47A724B
:102AE00000230CF093FDEDE70928EBD1074811F026
:102AF000E6FB074802B0BDE810400BF069BD00BF1F
:102B00000C150420A319042004150420E80D04204A
:102B10004806042010B5064B04461B68984721461A
:102B2000A06004480DF0B5FCBDE81040FFF7B6BF4B
:102B3000E002042088050420044A054B9B1AB1EBEF
:102B4000D30F34BF52F8310000207047A849060067
:102B5000C04A0600084B10B4C31A44681B11013365
:102B6000237143689A7101224368196043685A715E
:102B700010BCFFF739BE00BFC04A06002DE9F04F78
:102B80008FB0C1F34A2804AF0D469146B8607B6010
:102B90000C0DB8F1000F63D000264FF0040B4FF07E
:102BA0000A0A07F11403C7F80C80C7E907667E62BA
:102BB0000193CDF808B0CDF800A007F11C03324610
:102BC0004846F968FEF7BAFCB0F5006F03461CD31F
:102BD0006C468AB0D9F8041004AB26481A46C3E9FB
:102BE000050140F2FF71D9614FF400711984224B45
:102BF00042F8103F4FF4125133462048FFF7BEFF12
:102C0000A5462C37BD46BDE8F08FC0F30A0804F195
:102C10001700184420F0070080083B60FFF75EFEB5
:102C200068F35325044690B13B6800F11001C7E9F1
:102C3000083607F11403F961CDE900A3CDF808B017
:102C400048460F4AF96807F11C03FEF777FC68F362
:102C500053252A4620467B68B9680EF02EFAD0E745
:102C600004F1170020F007008008FFF737FE044644
:102C7000EDE700BFD75C060004000001704A0600C3
:102C80008F1006002DE9F04F87B00446DDE9105A99
:102C9000DDE91279934698460391BFB13B4652460F
:102CA00010210020CDF80090CDF81490FEF774FAB2
:102CB000B0F5006F06460AD340F2FF730221174AAF
:102CC000174807B0BDE8F04F0EF050BA3E4605F188
:102CD0001700304420F007008008FFF7FFFD04F0E4
:102CE00007040BF0070BE40044EA8B1444EA462483
:102CF00044EA0554054640B13FB13B465246314691
:102D0000CDF800901030FEF747FA43462246284699
:102D1000039907B0BDE8F04F0EF0CFB9165D06007D
:102D2000704A0600406820B1034BC01A40F3CF0040
:102D300070474FF0FF307047A84906000EB403B546
:102D400003AB53F8042B01460448019301F052F9F8
:102D500002B05DF804EB03B0704700BFCF1106006E
:102D6000CA0605D48B064CBF02490349FFF7E6BFEC
:102D7000704700BF4F5D06004E5D06002DE9F04F25
:102D800089B09B46149B9DF84CA00693159B044666
:102D90000593169B0D469046179E0493BAF1000FBB
:102DA00000F09D8006F4807307930EF06EF906F034
:102DB0000209024600283ED020469149FFF7BEFF97
:102DC0000746B9F1000F08D016F0440F35D12A4656
:102DD00020468C49FFF7B2FF074406F0010353B1C8
:102DE000894B204653F82A20884B8949002A08BF7E
:102DF0001A46FFF7A3FF06F48073002B49D006F0B4
:102E00000803002B63D1B8F1000F66D0424620467C
:102E10008049FFF793FF0546069B3D44002B6DD18B
:102E2000049B002B73D1F30700F1E4803146204668
:102E3000FFF796FFD8E00746C3E7774B18680028EE
:102E4000CAD0764B4FF47A791B684FF03C0CB5FB37
:102E5000F3F5B5FBF0F14FF4616300FB115509FB8D
:102E600005F5B1FBF3F2B5FBF0FE03FB121100FB1D
:102E70001E55B1FBFCF309FB05F5B5FBF0F50CFBAA
:102E8000131120460091CDE901E56549FFF756FF92
:102E9000A2E706F00803EBB1624B204653F82A2064
:102EA0006149FFF74BFF0546B8F1000F05D04246D8
:102EB00020465849FFF742FF0544BBF1000FABD055
:102EC0005A4620465949FFF739FF0544A4E74FF019
:102ED000000BE1E706F00805E6E745469CE7BBF195
:102EE000010F069B06D1002B64D1049B002B7BD0E5
:102EF00000250CE0002BF8D04D485CE04D48069BC7
:102F000022464D490DF0ACF8049B002B68D0DFF849
:102F10002C81DFF82C91049F3146102F204628BFCA
:102F200010274FF0000BFFF71BFF5D4545DC059BAD
:102F3000494620461A78FFF701FF4FF0010B1BF0BE
:102F4000070F03D141462046FFF7F8FE5F453BD906
:102F5000059B4946204613F80B20FFF7EFFE0BF1C7
:102F6000010BBBF1100FEAD14FF0000B20463549A1
:102F7000FFF7E4FE5A46059B20469A5CA2F1200129
:102F80005F2928BF2E223049FFF7D8FE0BF1010B35
:102F9000BBF1100F1DD01BF0070F03D14146204697
:102FA000FFF7CCFE5F455A46E5D841462046FFF77D
:102FB000C5FEEBE71F485546A1E741462046FFF70F
:102FC000BDFE0BF1010BB0E720462049FFF7B6FE2E
:102FD000C5E7059B3B440593049BDB1B04939AD1F7
:102FE000BAF1000F7FF41FAF204609B0BDE8F04FE3
:102FF0000EF0E0B82046054A0549FFF79FFE15E7A9
:10300000565D06005A5D0600844C0600515D0600C0
:10301000DC6706007F5D06001815042014150420E7
:10302000635D0600984C0600835D0600895D06001E
:10303000FD110600CF110600F53F0500B957060047
:103040008E5D0600945D0600965D0600B75706008B
:1030500042F20F7373B58B4228BF0B4605680446D6
:10306000052168460D4A0CF08FFB0646636828462A
:103070000B225B680A490EF08FF863683246694696
:1030800028465B680EF088F863681B2228465B6858
:1030900004490EF081F802B070BD00BFFB6306006A
:1030A000B55D0600995D060000210123064A9042A5
:1030B00006D8064A01B901231360054B1860704712
:1030C000012140085B00F2E740420F001415042084
:1030D00018150420F8B50D460446064F4618B442AC
:1030E00001D12846F8BD14F8011BBB6801485B6894
:1030F0009847F4E758460600014B036000207047EC
:10310000E04C06000122024B00201A70704700BFFD
:10311000A71904201FB501240294044C0194BDF8A2
:10312000184000940FF0ABFE04B010BDA7190420A6
:10313000B0B5144A01296C4600AF88B0124B06BFE7
:103140000125134600256A461049C2E905134FF4CC
:10315000007393830E4B42F8103F00234FF4E65167
:103160000C48FFF70BFD0C4BA5461C683CB154F80E
:10317000083C083C0BB128469847A468F6E7BD46D2
:10318000B0BD00BF3054060038540600175E06007C
:1031900003000001584A06004815042070B5164681
:1031A0001D4603210F4A10480DF0E0FF0F4B1C682D
:1031B0007CB16FF08500083C63682BB1307898478C
:1031C00010B110F1860F09D1A4680CB1083CF3E7E7
:1031D00010B16FF07F0070BD2846FCE76FF00D0066
:1031E000F9E700BF2C5E0600584A06004815042087
:1031F00068B100238360074B00F10802596819B9D0
:10320000C3E90022002070470A605A60FAE76FF0B5
:103210001500704748150420062310B50C4C86B0E5
:103220001822607000216846237011F0E8F8094BFD
:103230006946CDE9013402230020ADF80C3006F0D8
:10324000E7FE10F1800F08BF002006B010BD00BFE0
:10325000A5190420584D060010B5084C86B02478F6
:103260008DF81740012402940DF117040194BDF864
:10327000204000940FF003FE06B010BD7605042038
:1032800080B50C4A0C4B00AF88B0012908BF13462B
:103290006A460A49C2E905134FF400739383084B49
:1032A00042F8103F00234FF4E6510648FFF766FC52
:1032B000BD4680BD30540600385406004A5E060004
:1032C00003000001B0490600014B1878704700BFA9
:1032D0007605042000B5642889B08DF8070019D858
:1032E0000E4B18221870002102A811F088F80C4B20
:1032F000002003930DF107030493012302A9ADF805
:10330000143006F085FE10F1800F08BF002009B0D0
:103310005DF804FB6FF01500F9E700BF76050420A7
:10332000F84D06002DE9F04706460C4600AF00298F
:1033300036D0D1E90012E9468AB06D46A3684FF055
:10334000050AA8461F48C5E90723C5E9050148F84D
:1033500010AF002342464FF421511B48FFF70EFCEB
:10336000D4E90312CD466369AD461848C5E9072381
:10337000C5E90501C5F810A0002342464FF42151CC
:103380001148FFF7FBFBCD46E3690121104A0E48C7
:103390000DF0ECFEA36901210E4A0B480DF0E6FE8C
:1033A000012E07D1EFF305830B4A31460648103B47
:1033B0000DF0DCFE214630460AF028FEBD46BDE891
:1033C000F08700BF635E0600A84A0600925E060012
:1033D000C15E0600D05E0600FE5E060030BFFFF74D
:1033E000FDBF00BF2DE9F04105460B4EDFF82C80F4
:1033F000324606EB0807CC1B2046094910F0F2FFC5
:10340000A01942460021083C10F0F9FF6C6707F153
:103410000800BDE8F08100BF0000000004000000CB
:10342000D04A0600074A936893F90E10002907DB7B
:10343000526993421FBF044A536843F0805353605C
:10344000704700BF3C19042000ED00E070B52A4C25
:1034500006460D4629482A490DF073FFA36ADB068C
:1034600047D5264827490DF06CFF1120A36A1C0799
:1034700004D5224824490DF064FF12201E4CA36A93
:10348000990712D521491D480DF05BFF636BA26AB5
:10349000120609D501211E4A18480DF067FE1EB11B
:1034A000A36A23F08003A3621320134CA36ADE07F0
:1034B00004D5124817490DF044FF1420A36A9C0656
:1034C00004D50E4814490DF03CFF15200A4B9A6AAA
:1034D000D10658BF9A6A9A6A920642BF5A6A22F483
:1034E00000525A629A6A42F0FF029A6200232B70DD
:1034F00070BD1020BAE700BF00ED00E0A84A06004A
:10350000115F0600275F06005A5F06006D5F060028
:10351000855F06009B5F0600BA5F060010B5244C6D
:10352000244925480DF00DFFA36A99013ED5224894
:1035300022490DF006FF1E20A36ADA0104D51E48B9
:103540001F490DF0FEFE1F20194CA36ADB0204D5B3
:1035500019481C490DF0F5FE0220A36A1C0304D58E
:10356000154819490DF0EDFE2120114CA36A5903AD
:1035700004D5114815490DF0E4FE2220A36A9A03F0
:1035800004D50D4812490DF0DCFE2320084CA36A37
:10359000DB0304D508480F490DF0D3FE2420A36AAD
:1035A0006FEA03436FEA1343A36210BD1D20C3E714
:1035B00000ED00E0E95F0600A84A06000160060091
:1035C000146006002E600600586006007660060053
:1035D0009B600600B560060070B5294C06460D4696
:1035E000284829490DF0ADFEA36AD9043CD52548E9
:1035F00026490DF0A6FE1720A36A1A0504D5214816
:1036000023490DF09EFE18201D4CA36A9B0512D580
:103610001C4820490DF095FEA36BA26A100409D541
:1036200001211D4A17480DF0A1FD1EB1A36A23F424
:103630000043A3621920124CA36A590504D511480E
:1036400016490DF07EFE1A20A36ADA050ED50D4844
:1036500013490DF076FE1B20094A936A43F47F4319
:10366000936200232B7070BD1620C5E7A36A9B04EC
:10367000F2D504480B490DF064FE1C20ECE700BFB6
:1036800000ED00E0A84A0600E0600600F6600600D3
:103690005A5F0600076106002061060035610600DA
:1036A00050610600BA5F06002DE9F0478AB0694B09
:1036B0000446D3F804A089461646002500AFCAF395
:1036C000080885F31188BFF36F8F02F07F43B3F1D1
:1036D0007F4F1ED1D3071CD4500603D4110708D442
:1036E000012508E05C495D480DF02BFE16F004064C
:1036F00000D04C4600250023FB71A8F10303092BE1
:1037000000F28680DFE803F0077C7F78848484847D
:1037100084822C46EFE7524950480DF012FE0023F8
:103720004C4EFB71F36A9A0705D54E494B480DF094
:1037300008FE002329E0F36A002B01DA4A49F5E785
:10374000F36A5B00F5D5494944480DF0FAFD736909
:10375000A26943F480737361BFF34F8FBFF36F8F20
:10376000736932F8022C23F480737361BFF34F8FB7
:10377000BFF36F8F4DF602739A4228D1236801215F
:103780003B4A36480DF0F2FC2368FA79DAB907F1C2
:10379000080604F1200C324620686168083403C230
:1037A00064451646F7D17A6A002D4ED0C2F308015F
:1037B00021B96FEA52226FEA42227A62184607F173
:1037C0000801FFF7AFFD2837BD46BDE8F087B36AB3
:1037D000DBB223B10120F91DFFF738FE0EE0B36A1A
:1037E00013F47F4F04D00120F91DFFF7F5FE05E02B
:1037F000B36AB3F5803F9CD3FFF790FE0346C4E75E
:103800000020F91DE8E70020F91DEEE719498DE7D2
:10381000194A6E461AF4F87F8AB0184B18BF13463F
:103820006A461749C2E90513A8F11003D3614FF4A2
:1038300000731384134B42F8103F00234FF41151CF
:103840000648FFF79BF9B54673E722F4FF7222F0B2
:103850000102B2E700ED00E096610600A84A06000A
:10386000B9610600D0610600F1610600FF61060043
:103870001E6206003A6206007D610600686106006D
:103880005E62060004000001064B5A6942F0100215
:103890005A615A6942F480625A615A6922F00802F8
:1038A0005A61704700ED00E0EFF30880EFF3098103
:1038B00001B57246FFF7F8FE01BD00BF002080F39E
:1038C0001488BFF36F8F002080F30A8880F30B8881
:1038D0000FF0F0FF00200E490860BFF34F8F0D4836
:1038E00080F3088800F02CF8202080F311880A4823
:1038F0004FF40061401880F30988EFF3148002212F
:10390000084380F31488BFF36F8F00F0E5F80000E0
:1039100094ED00E010490420D02F04200023184625
:103920000649D1F89020C2F30722934200DB70478A
:10393000C1F89830C1F8A0000133F6E700ED00E0CF
:1039400010B572B6002484F31388FFF7E7FF23460F
:103950004FF0FF300C4A03F120010133102B42F8E5
:103960002100F8D100234FF0FF30074A03F1600136
:103970000133102B42F82100F8D162B6BFF34F8F0C
:10398000BFF36F8F10BD00BF00E100E0084B9B68E4
:1039900083420BD1EFF3058343B1064B5A6842F0E3
:1039A00080525A605A6A22F400425A620BF06EBB8F
:1039B0003C19042000ED00E018498A6882F881E093
:1039C0004FF030001044EFF3098C80E8F01F202006
:1039D00080F31288BFF36F8F114F4FF000664A6972
:1039E0008A603E604FF07404141920680D4C20600A
:1039F00092F981E0906F0023936780F3118802F1C0
:103A0000300090E8F01F8CF3098802F1000004B543
:103A10000DF0A1FCBDE80440704700003C190420F3
:103A200004ED00E0501504201EF0040F0CBFEFF36E
:103A30000880EFF30980816911F8021C0229FFD088
:103A400001B572460DF072FC01BD00BF40B2002806
:103A500007DB01234109034A00F01F00834042F8BD
:103A60002130704700E100E040B200280CDB012269
:103A70000649430900F01F008240203341F823200B
:103A8000BFF34F8FBFF36F8F704700BF00E100E0BF
:103A9000054B420953F82220012300F01F0003FACE
:103AA00000F01040704700BF00E100E040B2002885
:103AB00001F10101ACBF00F16040064B4FEA41113A
:103AC000C9B2ABBF00F5614000F00F0080F80013F1
:103AD0001954704714ED00E00B4A08B50B4B22F067
:103AE0007F029A60BFF34F8FBFF36F8FD3F88820A8
:103AF00022F47002C3F888200AF074FB0BF0E0FB9C
:103B000000F04CF80AF0AEFB0004050000ED00E008
:103B100042F8203C009B0D4942F81C3C019B21F0DF
:103B2000010142F8183C029B42F8081C42F8143C80
:103B30004FF0807342F8043C002383674FF43C430A
:103B4000203A0265C0F88030704700BF15190500A3
:103B500000B50B4B15469860426F0A4B0E461A6033
:103B6000436E83F30B882C4686F309880020064BAE
:103B700098472046002100220023044C204700BF24
:103B80003C190420501504205F1306001519050088
:103B90001022014B1A61704700ED00E00023202144
:103BA0000348C2180133452B82F80013F9D170473E
:103BB00000E100E008B5EFF30583064A103B02EB95
:103BC000C30152F8330049688847BDE80840FFF751
:103BD00029BC00BFA84606001FB5094C094A234668
:103BE0000121094800F012F900230393074B01213A
:103BF000E41A01A80193029400F012F904B010BD78
:103C00000000072000000420484E06000808042099
:103C100010B50C7A0B6804F01F0223F01F031A433F
:103C2000CB68640923F01F03054943EA440343F0CA
:103C30000103C1F89800C1F89C20C1F8A03010BD64
:103C400000ED00E010B50A4BD3F89030C3F3072322
:103C5000013B984208D901210346064A06480DF067
:103C600085FA6FF0150010BDFFF7D2FFFBE700BF2C
:103C700000ED00E075620600904A06002DE9F04F65
:103C80008946144606464FF00008514D85B0C84598
:103C900027DAD6F804A0BAF1000F44D0BAF11F0F0A
:103CA00017D91AF01F0F14D1D6F800B01BF01F0F50
:103CB0000FD158460DF08FFB07460AEB0B00013879
:103CC0000DF089FB874210D06FF01507414A3B4643
:103CD00001E04346404A012140480DF047FA6FF0A9
:103CE0001504204605B0BDE8F08F17F1160FEDD092
:103CF000BC42EBDDC5F89870D5F89C10C5F89870FB
:103D0000D5F8A03021F01F0143F01F0BD6E9003297
:103D10001A44994202F1FF3A1DD1D34507D13146E9
:103D2000F8B20DF061FB08F101080C36AFE731463F
:103D3000C5F89870D5F89C3022F01F0203F01F03DD
:103D40001343C5F89C30E0B20DF04EFB10F1160F96
:103D5000C5D0441CE7E7C5F89870D5F8A020013B12
:103D600023F01F0302F01F021343D3453146E0B294
:103D7000C5F8A030E8D00DF037FB10F1160FAED02B
:103D8000C5F89870D5F89C209DF808300BF1FF3BE2
:103D900062F304038DF80830D5F8A0309DF80820B0
:103DA0005B0863F347128DF80820D6E9003213440C
:103DB000009323F01F035B44A3EB0A03013023F0BD
:103DC0001F036946C0B20393FFF73CFFBEE700BF85
:103DD00000ED00E0BE6206009B620600904A06000D
:103DE0000522044BC3F89420BFF34F8FBFF36F8FAE
:103DF000704700BF00ED00E0BFF35F8F0022024B71
:103E0000C3F89420704700BF00ED00E010B5034CEC
:103E10002278FFF733FF207010BD00BFA8190420DF
:103E20002DE9F74F294D8A4606464FF00008AB466C
:103E3000274FD0451BDAD6F80490B9F1000F3FD0D8
:103E40003168084601910DF0C6FA0199044609EB64
:103E5000010001380DF0BFFA84424FF014021D4BEF
:103E600008D002FB08F36FF015024BF8032003B0F3
:103E7000BDE8F08F14F1160F2C60F8D01978A1422C
:103E8000F5DD02FB08B0C7F89840C7F89840D7F8AE
:103E90009C4000F10801007B64F304000871D7F82E
:103EA000A0000C79400860F347140C71D7F89C10FF
:103EB00021F01F016960D7F8A01021F01F012961CE
:103EC00008F1010814350C36B3E700BF541504207F
:103ED00000ED00E0A8190420F0B54149414CD1F8AB
:103EE00090302568C3F307239D4287B075D8002022
:103EF000FFF782FF3C4BC1F8C030854216D13B4CE6
:103F000001A82570FFF7F8F800250646384FAE42A5
:103F100013D1002023783249D1F89020C2F3072230
:103F2000934254DBFFF75CFF00202FE0616801EB58
:103F30000011FFF76DFE0130DFE70199280101EB69
:103F40000513DA683A40B2F5001F21D0B2F5800FB0
:103F50002BD0B2F5801F38D15A689B680958013BB5
:103F600022F01F0003440120844623F01F0340EA8F
:103F70004C10CDE902218DF8100002A9207805939C
:103F8000FFF760FE00281DDA6FF0150007B0F0BDE6
:103F90005A689B680958013B22F01F0003444FF008
:103FA000020C012023F01F03E1E75A689B680958BF
:103FB000013B22F01F0003444FF0000C062023F0C9
:103FC0001F03D4E723780133237001359FE7C1F83D
:103FD0009830C1F8A00001339EE74FF0FF30D5E7DD
:103FE00000ED00E0544E0600AAFF4400A81904208A
:103FF0000000F0FFF0B587B007460E4614460021DA
:10400000102268461D4610F0FAF902238DF802309E
:10401000054B2A4621466846CDE9047601930BF00C
:10402000DFFB07B0F0BD00BF1B14060008B5024B54
:104030001B689847002008BD68150420034B044AFC
:104040001860937843F0020393707047681504205A
:104050007403042008B50649064821F00701C1F1A0
:10406000005202F5E0220BF0BEFF002008BD00BFA9
:10407000EF6704206C15042070B541690446867A08
:104080000A4D59B1437ADB0706D42C2303FB0653B0
:104090005B6A1B689B689847002363612C2021465C
:1040A00006FB0050BDE870400FF064BEA806042077
:1040B0002C22024B02FB0030704700BFA8060420F0
:1040C0002C21827A054B01FB02339A6A1B7F801AEE
:1040D0001B3323F00303B0FBF3F07047A806042062
:1040E00038B52C24827A064B04FB02335B6AD3E991
:1040F00001240C601568FFF7E3FF04FB005038BD96
:10410000A80604202DE9F04385B005466846904690
:104110001C46039110F082F8DDE90067EFF3118986
:10412000202383F31288BFF36F8F6B8B002B41D05A
:104130002A8B9A4225D90022002328460AF016FA33
:104140000446F0B189F31188BFF36F8F039B002BF6
:1041500041D032463B46684610F084F82C21A27AC2
:10416000254B204601FB02335B6A03A91B681D68CF
:10417000DDE90023A847606170BB2046FFF77CFFA4
:1041800024E0698B4B1E6B8389F31188BFF36F8F1B
:104190002B7F2A8BAC6A1B3323F00303521A02FBDA
:1041A0000344154B154AEB1A9B105343A3722B7F04
:1041B000E372CBE789F31188BFF36F8F2346424642
:1041C00028460AF0D3F904460028BFD1002420462F
:1041D00005B0BDE8F0836361012300252381039BC3
:1041E00029466382E27A656004F1180010F007F94D
:1041F00063692582E360EAE7A8060420A38B2EBA50
:1042000070B52C250B4C00B970BD037A4668013B94
:10421000DBB20372002BF7D1C3604360837A05FBE6
:1042200003431B6A13B198473046ECE7FFF724FFBE
:10423000FAE700BFA806042007B50DF1070008F053
:1042400085FE114B98421CD14FF480620F4B1049F0
:10425000C3F8B8254FF40062C3F83C259DF8070069
:104260000FF031FB0B499DF807000FF027FB0120F1
:104270009DF80730984008F063FE002003B05DF819
:1042800004FB6FF00B00F9E70000AD0B00A002404B
:104290002CA0024028A10240052370B5144D154EF4
:1042A0002C780134B4FBF3F303EB8303E41A0FF02F
:1042B000FDFA114A137823B156F82430C01A0728A2
:1042C00013D90E4BD3F8141141B10021C3F81411C6
:1042D000D3F814312C700CB9012313702C780FF023
:1042E000E5FA46F82400012070BD0020FCE700BF7D
:1042F000AA19042078150420A919042000500040B0
:1043000048B1054B054A1B68B3FBF2F35843044B15
:1043100043F0010318477047C804042040420F00CF
:10432000B04B06000B460121024AC2F814160021C8
:10433000184700BF00500040014902480CF077BB0D
:104340008C4E06008C1504202DE9F047174B0546CE
:10435000D3F830210C46072AD3F8343121D1023B5F
:10436000032B02D8124AD35CDBB14FF001080026C0
:104370004FF050290F4F0520C9F81886C7F814666A
:104380000FF09AFA4046C7F814860FF095FAC7F86E
:104390001466C9F8186628462346BDE8F047002190
:1043A00018470022034BC3F81426F4E700F0072057
:1043B0000B630600005000401FB578B10023019345
:1043C000039301236946084802930CF043FB029BC8
:1043D0009B0700D1039B05B05DF804FB024805B0C4
:1043E0005DF804EB0CF08DBB8C1504200E4B4029BE
:1043F00028BF402170B51D460C4C4618B04203F151
:10440000020304D1002305F81130074870BD02787B
:104410001209A25C03F8022C10F8012B02F00F0223
:10442000A25C03F8012CE9E7C919042029630600FE
:1044300030B503788BB0044607AD032B21D8DFE8F5
:1044400003F0021A1C1E12492846FCF785F8059550
:1044500063781E210493A3780E4A0393E3780E48F1
:1044600002932379019363790093A3790BF08CF97C
:1044700009480BB030BD0949E6E70949E4E70949B5
:10448000E2E70A212846084A0BF07EF9DFE700BF81
:10449000E554060007550600AB190420EC5406004D
:1044A000F3540600FD540600BD7D060030B500241F
:1044B000094D0A4B85B02846029303940FF032FD54
:1044C00002AB284600934FF4AF620A2304490AF076
:1044D00053FA204605B030BD200E0420416306008B
:1044E000F8240420014601480AF084BA200E042072
:1044F000014601480FF0EBBC200E0420037830B5D4
:10450000012B13D0022B27D07BB90A46184B03F19D
:10451000100453F8045BA34242F8045BF9D11B7802
:10452000137043884B731B0A8B7330BD0A46104BC4
:1045300003F1100453F8045BA34242F8045BF9D181
:104540001B7813704368C3F307224B731B0CCB73A8
:104550001B0A8A730B74E8E700F1100350F8042B70
:10456000984241F8042BF9D103780B70DDE700BFC6
:104570004A63060010B504460AF088FC044B1B6829
:104580000BB120469847BDE810400AF093BC00BF2D
:10459000A8150420022838B505460CBF0648074870
:1045A0000CF04CFF044620B101210C300CF09BFFB5
:1045B0002576204638BD00BF58070420A8060420F1
:1045C0000F2810B50ED80D280ED90B480CF036FF69
:1045D000044628B101210C300CF085FF022323761C
:1045E000204610BD1328F0D009B10448EEE70220A0
:1045F000BDE81040FFF7CEBFDC0704202C070420E5
:10460000C36802211B78024A02480DF015B900BFA9
:104610006A630600004A060070B5C6683378B6F8CB
:10462000014083B90F21204603F012F8F3780546C4
:1046300050B90A4A118831B96FEA04506FEA105034
:104640001080074A137070BD0373012102F01EFF32
:104650002846BDE8704002F0F3BE00BF7419042084
:104660004A1A042070B5C3681D78BDB9B3F801605B
:104670000F21304602F0ECFF044638B93346BDE85E
:1046800070400121064A07480DF0D6B8294602F0CD
:10469000FDFE2046BDE8704002F0D2BE70BD00BFF6
:1046A00092630600004A060010B5C3680121B3F802
:1046B0000140204602F0CCFF38B92346BDE8104047
:1046C0000121044A04480DF0B7B8BDE8104002F0DB
:1046D000B7BE00BFB8630600004A060010B5C36845
:1046E00001211C88204602F0B3FF38B92346BDE8FB
:1046F00010400121034A04480DF09EB8BDE8104067
:1047000002F09EBEB8630600004A0600012110B503
:104710000C300CF023FFBDE8104003780121024A61
:1047200002480DF089B800BFDC630600004A0600AD
:10473000014610B508480CF085FE084908480FF0FE
:10474000C6FB031E06DABDE810400121054A0648F3
:104750000DF072B810BD00BF540204209403042071
:10476000C80E0420FE630600004A060010B5084C7F
:104770000146062294F86F0003F06CFA38B994F8F9
:104780006F000522BDE81040024903F063BA10BD76
:10479000080104200F6306000121024A02480DF0BF
:1047A00049B800BF1B640600004A06000B46B0B5BE
:1047B0000D8A00AF04462946D868FFF717FE8AB075
:1047C0006A46094BC2E90750C2E9053440F2024388
:1047D0009384064B4FF43251054842F8103F0DF0D8
:1047E00038F8BD46B0BD00BF3564060005000001C5
:1047F000004A060070B5C5680121B5F80160304671
:1048000002F026FF044638B93346BDE87040012166
:104810000B4A0C480DF010B82B783BB9D5F8033093
:10482000C0F89530D5F80730C0F89930201D4FF406
:1048300080310DF003F82046BDE8704002F000BE64
:10484000B8630600004A0600B0B53C28044600AF35
:104850001AD101F097FE6FF0800110300CF0FCFFD0
:104860000020FFF783FF054630B90121114A1248A5
:104870000CF0E0FFBD46B0BD0473002102F006FE5F
:10488000284602F0DDFDF5E76D468AB06A460B4B1F
:104890004FF41251C2E90530094B0748D36140F289
:1048A00001331384074B42F8103F0CF0D2FFAD46A2
:1048B000E0E700BF57640600004A0600786406007F
:1048C000505D06000400000137B50446084602EBBF
:1048D000C3039A4202D16FF05E0010E0114611F856
:1048E000085BA54211D1038A5178994209D9084839
:1048F0000121084A00940CF043FC6FF0150003B04E
:1049000030BD536898470020F9E70A46E1E700BF49
:10491000004A06009464060073B53D480CF0A7FDFC
:104920000446002872D0017E022948D008296AD1A5
:10493000038A032B05D8374A012137480CF07CFF46
:1049400013E004210C300CF009FEFF234288068896
:104950006376238AC6F30B009A42A08309D0012113
:1049600000922D482D4A0CF00BFC2046FFF748FC26
:1049700012E00F2102F06CFE054610B9A38B284A05
:10498000DAE702F0A5FE21466076320B284602F0F7
:1049900033FC284602F054FD224BD3F84C31002B57
:1049A00034D0214921480FF092FA031E2EDA01215A
:1049B0001F4A194802B0BDE870400CF03DBF038AA1
:1049C000012B01D81B4AB7E70C300CF0C7FD054698
:1049D00000780CF01DFF10F002060DD140F6CF3329
:1049E000154A164916480BF0A2FB86F31188BFF34F
:1049F0006F8F0323184602DF06232146114A2878C9
:104A00000CF042FFB1E70B460F4A95E702B070BDCC
:104A100054020420B6640600004A0600D76406006B
:104A2000FB6406000801042094030420C80E04203F
:104A3000FE6306001D650600396506006D6506000B
:104A40009B650600384F0600B865060010B50121C9
:104A500004460C300CF082FD2146BDE810400823CE
:104A6000014A00780CF010BF684F0600F8B501212C
:104A7000044600AF0C300CF071FD0678002321468F
:104A80003046104AFFF720FF5F3018D1258AE068D2
:104A90002946FFF7ABFC6C468AB06A460A4BC2E96E
:104AA0000750C2E9053640F202439384074B4FF4A6
:104AB0003251074842F8103F0CF0CBFEA546BD46E8
:104AC000F8BD00BFA84F0600CC6506000500000138
:104AD000004A06002DE9F74F002380468946174615
:104AE000DFF814A1DAE8EF4FCAE8E23F002AF9D173
:104AF000264644B943460121404A414803B0BDE837
:104B0000F04F0CF099BE2046FFF7DAFA4FF00C0B8D
:104B10003C4D0BFB0050438843451BD02046FFF71C
:104B2000CFFA0BFB0050438801210093364A4346DD
:104B300033480CF025FBDAE8EF3FCAE8E26F002AC1
:104B4000F9D1002B54D01E46304603B0BDE8F04FDB
:104B5000FFF756BBA7420FD020460CF06AFC022399
:104B600004F10C080121404623760CF0BCFC4046C1
:104B70003A8AF9680CF0C8FC2046FFF7A1FA0C2726
:104B800007FB00504368ABB1B9F1000F12D12046CA
:104B9000FFF796FA012107FB00504268D2E90003B3
:104BA000127A03F01F07B9405B09DAB100EB83000A
:104BB0000CF044FE2046FFF783FA0C2707FB005059
:104BC0008368002BC0D02046FFF77AFA784305F8B7
:104BD00000902046FFF774FA07FB0055A86809F01B
:104BE000F7FCB1E7C94300EB83000CF035FEE1E7C9
:104BF00003B0BDE8F08F00BF50020420FE65060040
:104C0000004A0600AC150420266606002DE9F84F80
:104C10000123D0F80C80018A98F8004000AF03EB24
:104C200084038B425BD96D468AB06A46C2E907317C
:104C300005232D484FF42151C2E905042B4842F8C1
:104C4000103F0CF006FEAD46BD46BDE8F88F4B4662
:104C50000121274A25480CF0EFFD013598F8003076
:104C60009D42F1DA08EB8503B3F801900F21484625
:104C7000B3F8036002F0ECFC04460028E7D000F132
:104C8000C0095EB1204602F05BFA09F0A1FC63693D
:104C900043B95A46012115480CF0CCFD204602F0DC
:104CA000CFFBDAE7A1691A688B42626108BFA26193
:104CB000C3F800A0226A7AB9C4E90733D9E8EF3F04
:104CC000013BC9E8E23F002AF8D100212046013E1D
:104CD00002F042FAB6B2D4E713602362EEE7002591
:104CE000DFF810B0AA46B9E759660600004A060088
:104CF000836606009F66060073B5C5680121B5F896
:104D00000160304602F0A4FC044640B9334601215C
:104D10003A4A3B4802B0BDE870400CF08DBD2B789C
:104D2000061D1A2B19D1C378012B4ED14FF48041A7
:104D300030460CF083FD42040FD4D4F88830694625
:104D40000093D4F890302046019303F063FA204694
:104D500002B0BDE8704002F073BB2B78ABBB40F6ED
:104D60007A41B5F80320A4F8862093B2B5F805205F
:104D7000A4F88C20B5F80720A4F88E209A1F92B2D0
:104D80008A4204D902211F4A1D480CF055FDB4F88F
:104D90008C30B3F5FA7F04D302211B4A18480CF07B
:104DA0004BFD40F67641B4F88E30A3F10A0292B280
:104DB0008A4204D90221154A11480CF03DFD6FF4D6
:104DC000805130460CF048FD14E0D6E8AF3FDB04DC
:104DD000F5D52B78202BF2D194F89430002BEED01F
:104DE000013B84F8943041F28832002304F1400002
:104DF00009F02AFE204602F0D5FDA8E7B8630600B8
:104E0000004A0600B6660600DE6606000567060074
:104E100010B5C1E900239DF808300C460B72FFF76E
:104E20004FF90C22024B02FB00335C6010BD00BF47
:104E3000AC1504202DE9F0474FF0FF3206464FF045
:104E4000FF33184888460CF0F9FA044638B300F1ED
:104E50000C07012138460CF046FB0123204623763F
:104E6000FFF72EF94FF00C090F4D4FF0000A09FB28
:104E7000005046802046FFF723F909FB0050C0F898
:104E800008A02046FFF71CF909FB0055032138460E
:104E9000C5F804A00CF032FB068080F802802046A2
:104EA000BDE8F087B0070420AC15042029289ABF7C
:104EB000014B185C09207047066C060070B5C3688A
:104EC0000F21B3F801601D78304602F0C1FB0446A3
:104ED00038B93346BDE870400121174A17480CF035
:104EE000ABBC65B12846FFF7E1FF294602462046E4
:104EF00002F00AFE2046BDE8704002F0A1BA8678B2
:104F0000012EEFD106F06AFB20460CF069FC002868
:104F1000E8D10520FFF7CAFF05210246204602F02E
:104F2000F3FD3146064A05480CF084FC0521204675
:104F30000DF033F8DEE700BF92630600004A06007A
:104F4000316706002DE9F041C6680F21B6F80170FF
:104F50003578384602F07CFB044638B93B46BDE85C
:104F6000F04101211F4A20480CF066BC45B128469B
:104F7000FFF79CFF29460246204602F0C5FD08E0E7
:104F8000F278C37A934209D10221184A16480CF0EC
:104F900053FC2046BDE8F04102F052BA8378C27259
:104FA000012B05D00020FFF781FF00210246E3E737
:104FB0000AB106F013FB20460CF012FC0028F1D1D8
:104FC0000520FFF773FF05210246204602F09CFDF5
:104FD0000121074A04480CF02DFC052120460CF065
:104FE000DCFFD6E792630600004A0600576706001A
:104FF0003167060070B5064690B00B4D01AC0FCD81
:105000000FC40FCD0FC40FCD0FC495E8070084E87F
:1050100007000E2E9DBF10AB03EB860656F83C0C26
:10502000024810B070BD00BFE44A06008667060063
:10503000034B0146D3F86C0182689268104700BFA9
:10504000080104202DE9F843044600F10C0630461F
:105050000CF094FAB4F810800546B8F1010F0AD8A4
:1050600043460121194A1A480CF0E6FB2046BDE8E8
:10507000F843FFF7C5B8304602210CF06FFA074637
:1050800000780CF0C5FB10F0010906460DD140F682
:10509000E873104A104911480BF049F889F3118858
:1050A000BFF36F8F0323184602DF052321460C4A06
:1050B00038780CF0E9FBB307D8D56369A4F8108001
:1050C00013FA85F5E560BDE8F88300BF1D650600AD
:1050D000004A0600396506008E6706009B650600DB
:1050E000104F060038B50C4609F0D0FE237E022B87
:1050F00005D0082B14D12046FFF71AFB0BE0E3681C
:1051000018780CF085FBC207054602D52046FFF74C
:1051100099FFAB07EFD4002409F0CCFE204638BD40
:105120000121054A05480CF087FB2046FFF768F887
:105130006FF01504F0E700BFA7670600004A0600FD
:105140002DE9F84F3D4C00AF04213D480CF076FBB3
:105150003C4DE2793C4B2046012A88BF1D466E46F5
:10516000FFF766F98AB06A46384BA346C2E90535AF
:105170000125374BD0611362364B4FF4235136482B
:1051800042F8103F0CF065FBDFF8D080B546DFF841
:10519000C890334EE3790BF1070B9D4238DB94F84E
:1051A00070506E462846FFF725FF8CB06A46B4F86B
:1051B0007210B4F87630C2E907514FF400755362AB
:1051C000DFF8A0C0284BC2E905C015854FF4535144
:1051D00042F8103F20480CF03CFBB54694F8716053
:1051E0003046FFF707FF8AB06A46B4F874301F49AB
:1051F000C2E907631E4BC2E9051095844FF4335191
:10520000154842F8103F0CF024FBBD46BDE8F88F6E
:105210005846FFF70DF9EA468AB06A4640F2013374
:10522000C2E90565D06113844FF41351484642F832
:10523000108F0CF00EFB0135D546ABE708010420BA
:10524000DC010420505D0600BB670600BF67060056
:105250000002010304000002004A060004000001ED
:10526000CE670600DF670600060000011D68060025
:105270000500000100487047C6560600014809F0C5
:1052800075BB00BF8403042038B505460C4619B928
:10529000FFF7D0FD0446D8B140F635439D420FD10B
:1052A0002046FFF7C5FE054640B1034601210A48E6
:1052B0000A4A0CF0C1FA2046FEF7A2FF284638BD84
:1052C000214607480EF04BFD0025FFF7D7FFF5E715
:1052D0006FF06805F2E700BF004A06004468060068
:1052E0005C020420F8B50521054640F63540FFF77D
:1052F000A1FD044678B9F8231C4A1D491D480AF04F
:1053000016FF1D480AF013FF84F31188BFF36F8F57
:105310000323184602DF04F10C07012138460CF084
:10532000EDF801260421067038460CF0E7F80580F8
:10533000002521468670C57040F63540FFF7A4FF72
:10534000044688B14FF48173084A0C4909480AF0B1
:10535000EEFE21460A480AF0EAFE85F31188BFF303
:105360006F8F0323184602DFF8BD00BF39650600C2
:105370005E6306009B650600666806008568060099
:105380008E6806002DE9F0410446868B477E807AC0
:10539000FEF78EFE6169054649B1637ADA0704D4E7
:1053A000436A20461B689B68984700236361214637
:1053B00028460EF0DFFCA37E33BB144B93F88A30F3
:1053C0009B0621D5384602F049FD044638B93B46D4
:1053D000BDE8F04102210E4A0E480CF02DBA437B85
:1053E000073B012B09D90B4802210B4A0CF022FA8A
:1053F0002046BDE8F04102F023B802F021F8304623
:10540000BDE8F041FFF76EBFBDE8F0810801042060
:10541000B1680600004A0600DA680600F0B5C56803
:1054200001212F8887B0BCB2204602F011F9064650
:1054300040B923460121264A264807B0BDE8F0407E
:105440000CF0FAB902ACD5F80220D5F80630019478
:10545000698900910DF028FF40B3122142F21A0031
:10546000FFF7E8FC054648B901211B4A19480CF032
:10547000E1F9304601F0E4FF07B0F0BD12210C3035
:105480000CF03CF80346224623F8027B06AF144694
:1054900003CCBC4218605960224603F10803F6D1E0
:1054A000294642F21A00FFF7EFFEE2E7022142F23C
:1054B0001B00FFF7BFFC04460028D5D002210C30AA
:1054C0000CF01CF82146078042F21B00EBE700BFFE
:1054D000B8630600004A06000669060073B5C36893
:1054E000D9789A781E8842EA0122ADF800205979CD
:1054F0001A79B4B242EA0122ADF80220D9799A7938
:10550000204642EA0122ADF804201A7A5B7A012192
:1055100042EA0323ADF8063002F09AF8054658B97E
:1055200001211C4823461C4A0CF086F90221204622
:105530000CF0E9F902B070BD694602F079FA38B9A9
:105540001E2120460CF0DFF9284601F079FFF1E733
:105550000E2142F22000FFF76DFC04460028F3D034
:105560000E210C300BF0CAFF00230680C0F80A3071
:10557000BDF8003021464380BDF802308380BDF87D
:105580000430C380BDF80630038142F22000FFF7EB
:105590007BFED9E7004A0600B863060038B502462C
:1055A0000B462B4DD5F8541109B9002038BD05F52F
:1055B000987009F041F80028F7D10022002305F582
:1055C000AA7008F0D3FF044668B940F6DE33214ADA
:1055D000214922480AF0ABFD84F31188BFF36F8F95
:1055E0000323184602DFD5F848315BB101211C4A7C
:1055F0001C480CF01FF9D5F84801FEF701FE002306
:10560000C5F8483120460BF048FFC5F84801204650
:10561000FFF70EFD0346C8B10121134A11480CF0F3
:105620000BF9124808F0D4FF2046FEF749FD0C2282
:105630000F4B02FB0033588818B122461F21FFF799
:1056400049FA2046FEF7DCFDFFF718FE0120ADE722
:1056500008010420396506005E6306009B650600AC
:105660001D690600004A060044680600380204204E
:10567000AC1504202DE9F04F87B0054616460C46C0
:1056800000AF31B9FFF7D6FB044648B96FF06800A8
:1056900092E0887AFEF70CFD534B834240F09E80E7
:1056A0000122002138460EF073FB2046FEF708FD6C
:1056B0000C23DFF838A103FB00A0876020460BF025
:1056C000ECFE01464A480EF04AFBFFF7D7FD0EF00C
:1056D0003FFF484B1A58484B9A4220D1DFF81CB183
:1056E00043480EF051FB0021814642F21070FFF753
:1056F00055FF804688B940F2AD135946404A4148AB
:105700000AF015FD294640480AF011FD88F311887A
:10571000BFF36F8F0323184602DF4C45E0D142F2FE
:1057200010720023384608F087FF804698B140F297
:10573000B313334A354933480AF0F9FC4246294647
:1057400033480AF0F4FC002383F31188BFF36F8F12
:105750000323184602DF2046FEF7B2FC0C23584311
:105760001AF80080B8F1000F30D06E468AB06A4651
:10577000284BC2F81C80C2E90535274B4FF4325143
:10578000136240F202439384244B254842F8103FB1
:105790000CF05FF82046B546A8F10908FEF730FD89
:1057A000B8F1090F0FD8DFE808F01C0E0E0B050E3C
:1057B0000E0E0E196FF00B001C37BD46BDE8F08FC2
:1057C0006FF00C00F8E76FF00400F5E716B13460F5
:1057D0000020F1E72046FEF713FDF9E76FF0150012
:1057E000EAE76FF06E00E7E7B0070420AC1504208D
:1057F0005C02042008000000A81304203869060099
:10580000396506009B65060040690600856806004C
:1058100060690600A5690600505D060005000001EC
:10582000004A060073B506460D4642F22F000021DD
:1058300001AAFFF71FFF044638B10121144A154899
:105840000BF0F8FF204602B070BD0198C368B3F8B2
:1058500001203280B3F803302B80FEF7D1FC33886F
:10586000A3F11B02E02A04D902210B4A09480BF0DC
:10587000E3FF44F248112B88A3F5A47292B28A4246
:10588000E0D90221054A03480BF0D6FFDAE700BF52
:10589000C4690600004A0600E4690600096A0600B9
:1058A00010B5FAF769FE034B1B6813B1BDE8104051
:1058B000184710BDC415042073B52A4D0646D5F807
:1058C0006C010EF0BCF848B90121274A27480BF0BB
:1058D000B1FF6FF01204204602B070BD6FF00201FC
:1058E00005F1D4000BF0B8FF01210BF0A7FF10EA7F
:1058F000010434D11E4B1E600A4605F598700EF067
:1059000047FA05F5AA700EF01EFA1A480EF00AFBC7
:105910006FF007034FF4966217491648009409F098
:105920002BF8164913480EF058FBD5F86C011449B2
:1059300083681B689847044630B103460121114A29
:105940000A480BF079FFC6E726B902B0BDE87040FF
:10595000FAF712BE05F1C40009F008F8BBE76FF0D2
:105960007704B8E708010420756B0600004A0600BA
:10597000C4150420C80E0420702A04208D6B060074
:10598000E5500500966B06002DE9F04F85B0002626
:105990000546634BB0F80190198849F47042914272
:1059A00004BF1E805F4B00AF08BF1E7800F0FCFAFA
:1059B000EB7805F10408012B08BF5B4B404614BF90
:1059C000002493F86F400BF09BFE414668B34FF004
:1059D000010A07F108000BF088FED5F81130C7F86E
:1059E0000130B5F81530A7F80530EB78012B31D030
:1059F0004046FEF71DFD6C4688B06A464B4B4FF49F
:105A0000E251C2E905304FF400739383484B494893
:105A100042F8103F0BF01DFF1321A54648460BF03E
:105A20008DFF1437BD46BDE8F08F20460CF0CCF852
:105A30000346006895F804A0B8609A889B79686866
:105A4000BA81BB73B8F8042098F806303860BA8081
:105A5000BB71CAE707F10800FEF788FEEB78044641
:105A6000012B0AD100F08EFD83466FF080011030CB
:105A70000BF0F2FE58460CF0BFF9002CB8D02346CC
:105A8000B5F8012023F8702BBA7BB868B989206774
:105A90009A7100229980B5F81730A4F88630B5F8CD
:105AA0001930A4F88C30B5F81B30A4F88E30EB78A0
:105AB0002273012BE37022D187F800A0BA88BB794A
:105AC0003868A4F87B2084F87D30C4F8770000F0B3
:105AD00059FD237A144AC3EBC3039918D358C4F869
:105AE0007E308B88A4F882308B7984F88430D2E9B8
:105AF000381303F03F03194301D000F003FF0721DF
:105B0000204601F0C3FC26B101212046267301F096
:105B1000BDFC204601F01EFE204601F091FC80E70E
:105B2000741904204A1A042008010420B26B0600EC
:105B300003000001004A060000B5C36889B0187868
:105B400020B109B05DF804EBFEF77EBEB3F801208A
:105B50008DF80000ADF80120DA788DF80320B3F855
:105B60000B20ADF81720B3F80D20ADF81920B3F8CD
:105B70000F20ADF81B205A7C8DF81D20586801902D
:105B80001A899B7AADF808208DF80A30084B6846D0
:105B90001A689B88CDF80B20ADF80F30CDF8112096
:105BA000ADF81530FFF7F0FE09B05DF804FB00BF5B
:105BB0002363060038B5042104460C300BF0CEFCFC
:105BC000034640885D7818B122461978FEF782FFB7
:105BD00035B1044808F0FCFCBDE83840FFF74EBB87
:105BE00038BD00BF38020420B0B50446032100AF21
:105BF0000C300BF0B3FCE3680578197840F63543B8
:105C0000B0F80100984215D16C468AB06A460F4B35
:105C10000F48C2E905310F4B4FF41251D36140F2E6
:105C2000013313840C4B42F8103F0BF012FEA546D3
:105C3000BD46B0BD10B12246FEF74CFF002DF7D097
:105C4000064808F0C5FCFFF719FBF1E7CE6B06002C
:105C5000004A0600505D06000400000138020420DE
:105C6000F8B506460024094DEF79E3B29F4202D809
:105C70006FF0010007E0294630460BF0F0FE0735D3
:105C8000631C08B12046F8BD1C46EEE7080104205D
:105C900037B504460D4671B1284612490BF0DFFEB8
:105CA00048B929461048C4EBC40420440BF0E1FE77
:105CB000002003B030BD68460BF009FD0028F8D184
:105CC0006846FFF7CDFF0028F5DA074BC4EBC400A8
:105CD000694618440BF0CDFE002DE9D00146284658
:105CE000E4E700BF166306000801042070B5194EF2
:105CF0000622314605460EF08AFB30B3062142F2F9
:105D00000500FFF797F8044608B3062229460C3031
:105D10000BF0FAFB2146002242F20500FFF7AAFC35
:105D2000044648B110F10D0F04D102210A4A0B4874
:105D30000BF09DFE204670BD33462A6843F8692962
:105D4000AA88B280012283F868200024F2E76FF06D
:105D50006804EFE771010420376D0600204A060051
:105D6000F7B5002104460222084601F073FF0646FB
:105D700088B1414BD3E8EF1F41F48061C3E8E21FD3
:105D8000002AF7D1237A43F00103237203B0BDE860
:105D9000F04001F055BB394D0146394800F0ECFBAD
:105DA00095F823314BB130460BF0A6FE28B1354AA9
:105DB000022135480BF05BFE1DE095F8232195F894
:105DC00022319A4221D10221304A2F480BF04FFE56
:105DD000002242F229001146FFF74CFC10B12C4A78
:105DE0000121E6E795F82331013385F82331237A41
:105DF00043F00403237201200BF07EFE00212548AE
:105E000003B0BDE8F04000F0B7BB2246671C39463E
:105E100012F82A0B0BF034FE064608B11E4ADFE7E3
:105E200095F82331013385F82331237A43F00403B5
:105E3000237295F8A7305B0701D4184AB8E73946B2
:105E400068460BF016FE0123082142F24E008DF841
:105E50000730FEF7EFFF044660B1082269460C30B8
:105E60000BF052FB3246214642F24E00FFF702FC95
:105E70000028C0D00A4AB3E7DC010420080104204E
:105E8000A51B0600466D0600204A06006B6D060045
